:10000000F8FF0020110400009DA50000D769000042
:100010009DA500009DA500009DA500009DA50000D8
:100020009DA500009DA500009DA500009DA50000C8
:100030009DA500009DA50000D5690000D9690000BC
:10004000796900009DA500009DA500009DA5000008
:100050009DA500009DA500009DA500009DA5000098
:100060009DA500009DA500009DA500009DA5000088
:100070009DA500009DA500009DA500009DA5000078
:100080009DA500009DA500009DA500009DA5000068
:100090009DA500009DA500009DA500009DA5000058
:1000A0009DA500009DA500009DA500009DA5000048
:1000B0009DA500009DA500009DA500009DA5000038
:1000C0009DA500009DA500009DA500009DA5000028
:1000D0009DA500009DA500009DA500009DA5000018
:1000E0009DA500009DA500009DA500009DA5000008
:1000F0009DA500009DA500009DA50000DB690000F6
:100100009DA50000DD6900009DA50000DF690000DD
:100110009DA500009DA500009DA50000E1690000CF
:100120009DA500009DA500009DA500009DA50000C7
:100130009DA500009DA50000237100002571000011
:10014000277100009DA500009DA500009DA5000051
:10015000316D00009DA50000B56F0000A76F000085
:100160009DA500009DA500009DA500009DA5000087
:100170009DA500009DA500009DA500009DA5000077
:100180009DA500009DA500009DA500009DA5000067
:100190009DA500009DA500009DA50000C56F000065
:1001A0000D700000C36F0000A56800002171000001
:1001B0009DA500009DA500009DA500009DA5000037
:1001C0009DA500009DA500009DA500009DA5000027
:1001D0009DA500009DA500009DA500009DA5000017
:1001E0009DA500009DA500009DA500009DA5000007
:10040000FFFFFFFFFFFFFFFFFFFFFFFFFEFFFFFFFD
:1004100062B64FF000004FF000014FF000024FF0C5
:1004200000034FF000044FF000054FF000064FF0BE
:1004300000074FF000084FF000094FF0000A4FF09E
:10044000000B4FF0000C08F0CDF8FEE700B583B0CC
:100450000020DFF8A81A08700020DFF8A41A81F83D
:10046000100E00F027FBDFF89C0A0079412804DA1F
:100470000120DFF8941A087003E00020DFF8881AE2
:1004800008706921DFF8840A006800F58050683040
:1004900000F074F95521DFF8740A006800F648503E
:1004A00000F06CF900F0D6FC02F022FB03F0BCFB7C
:1004B00003F058FC0020DFF8581A0870DFF8540ADF
:1004C0000078002844D10120DFF8441A087069211F
:1004D000DFF8380A006800F58050683000F04EF907
:1004E000DFF81C0A90F8100E401DDFF8181AC978C2
:1004F000884223DADFF8080A90F8100E401DDFF872
:10050000041A0979884219DADFF8F40990F8100E14
:10051000401DDFF8F019497988420FDADFF8E40965
:100520000079C11CDFF8E4090068DFF8D8291279E6
:10053000282303FB0200783000F020F9DFF8C0091F
:10054000DFF8BC1991F8101E50F8210000F01AFCD9
:10055000DFF8C4090078012840F0F0804FF6FF7002
:1005600001904FF478400090DFF89409DFF890197B
:1005700091F8101E50F82130DFF8A0296421FA20EC
:1005800004F038F84FF6FF7001904FF47840009077
:10059000DFF86C09DFF8681991F8101E081890F858
:1005A000C033DFF8202D7821FA2004F023F84FF62D
:1005B000FF7001904FF478400090DFF84409DFF8B5
:1005C000401991F8101E081890F8303C5EA28C215A
:1005D000FA2004F00FF84FF6FF7001904FF47840C6
:1005E0000090DFF81C09DFF8181991F8101E10EBC5
:1005F0008100D0F8B03455A2A021FA2003F0FAFF10
:100600004FF6FF7001904FF478400090DFF8F0084B
:10061000DFF8EC1891F8101E081890F8203D4CA255
:10062000B421FA2003F0E6FF4FF6FF7001904FF47B
:1006300078400090DFF8C808DFF8C41891F8101E61
:1006400010EB8100D0F8703842A2C821FA2003F0E4
:10065000D1FFDFF8C008007800280CD0022820D095
:1006600014D3042833D027D3062846D03AD30828F9
:1006700059D04DD362E04FF6FF7000904FF47843AD
:1006800035A2DC21FA2003F0E1FE57E04FF6FF70BF
:1006900000904FF4784331A2DC21FA2003F0D6FE1B
:1006A0004CE04FF6FF7000904FF478432CA2DC2111
:1006B000FA2003F0CBFE41E04FF6FF7000904FF4BC
:1006C000784328A2DC21FA2003F0C0FE36E04FF682
:1006D000FF7000904FF4784323A2DC21FA2003F04E
:1006E000B5FE2BE04FF6FF7000904FF478431FA249
:1006F000DC21FA2003F0AAFE20E04FF6FF70009004
:100700004FF478431AA2DC21FA2003F09FFE15E093
:100710004FF6FF7000904FF4784316A2DC21FA20C8
:1007200003F094FE0AE04FF6FF7000904FF4784318
:1007300011A2DC21FA2003F089FEFFE70020DFF898
:10074000881B087007BD00004C0000004C5F56007D
:1007500052000000525F56004E0000004C70000036
:10076000527000004C690000526900004C6F00009C
:10077000526F00004C570000525700002DE9F14F16
:1007800088B00C005FF0A0080A2006904FF49B7020
:100790000590002700265FF0000B5FF0000A5FF075
:1007A000640900208DF808000025DFF8200B007890
:1007B000002807D1DFF8140B0078401CDFF80C1B71
:1007C000087011E0DFF8380750F82400DFF834171C
:1007D00049784018022190FBF1F08046DFF82007AD
:1007E000201890F8C003814600200500282D12DA59
:1007F000002008280DDA0899695CD0F10702114140
:1008000011F00101DFF8C82A10EBC5039954401C10
:10081000EFE76D1CEAE74646DFF8B40A3018C07807
:1008200001280BD1DFF8A80A30188078012805D1FB
:10083000DFF89C0A30184078012804D005988642D9
:1008400001DA761CE8E70598864209DA0496012069
:10085000DFF8AC16611881F8200D0120824607E010
:10086000002082460020DFF89816611881F8200DDC
:100870004746DFF85C0A381810F8030C01280DD140
:10088000DFF84C0A381810F8020C012806D1DFF8FE
:10089000400A381810F8010C012804D00698B84214
:1008A00001DA7F1EE5E70698B84209DA03970120CE
:1008B000DFF84C16611881F8300C0120834607E000
:1008C000002083460020DFF83816611881F8300CCC
:1008D000474501D0464513D1002082460020DFF86D
:1008E0002016611881F8200D002083460020DFF8D3
:1008F0001016611881F8300C01208DF8080002E014
:1009000000208DF808009DF80800012819D1D22C8C
:1009100017DADFF8EC0510EB8400C0F80C8019F151
:100920000800DFF8DC15611881F8C303E11CDFF86B
:10093000DC050068282202FB04007830FFF71EFF68
:100940004CE05AEA0B00002848D0BBF1010F0BD055
:10095000BAF1010F08D10498B0EB09008046049861
:10096000B0EB4900039039E0BBF1010F0BD1BAF1B4
:10097000010F08D0039819EB00008046039810EB94
:10098000490004902AE0BBF1010F27D1BAF1010F11
:1009900024D104980399401A04F07EF800225FF0F5
:1009A000804304F08FF804F0B1F98146B9F1640F87
:1009B00002DA6420814604E0B9F18D0F01DB8C205E
:1009C000814604980399081804F066F800225FF045
:1009D000804304F077F804F099F98046B8F1230FCA
:1009E00002DA2320804605E0B8F58F7F02DB40F273
:1009F0001D108046404604F04FF8CDE90001B4F1E7
:100A000069005FF0FF31484304F046F80022DFF848
:100A10000C3D04F0A1F90022DFF8043D04F052F887
:100A20000022DFF8003D04F069FADDE9002304F05C
:100A300065FA04F06BF9DFF8C81441F82400DFF818
:100A4000C00490F8100EA04203DADFF8B40480F876
:100A5000104E0398B0F5A07F03DB40F23F100390E7
:100A600004E00398002801D5002003900398DFF8E4
:100A7000901411EB8401C1F8B0040498B0F5A07F84
:100A800003DB40F23F10049004E00498002801D5F5
:100A9000002004900498DFF8681411EB8401C1F879
:100AA0007008DFF85C04201880F8C093002009B0BB
:100AB000BDE8F08F2DE9F043DFF848040078DFF857
:100AC00044144978DFF83C24927800230024002560
:100AD0005FF0EF0E764680B25FF0080E90FBFEFEF0
:100AE000DFF82884D8F80080F6B25FF0280909FB07
:100AF00006881EF808E080B25FF0080890FBF8F95D
:100B000009FB1809D9F107085EFA08FE5FEACE7EF4
:100B10003FD580B25FF0080E90FBFEFEDFF8EC835D
:100B2000D8F80080F6B25FF0280909FB06881EEBB2
:100B3000080E1EF828EC80B25FF0080890FBF8F968
:100B400009FB1809D9F107085EFA08FE5FEACE7EB4
:100B50001FD580B25FF0080E90FBFEFEDFF8AC837D
:100B6000D8F80080F6B25FF0280909FB06881EEB72
:100B7000080E1EF850EC80B25FF0080890FBF8F900
:100B800009FB1809D9F107085EFA08FE5FEACE7E74
:100B900004D4F6B2022E01DB761E9CE7F6B2EF2EED
:100BA00002D05FF0010E7346DFF858E38EF8036061
:100BB0005FF0EF0E774689B25FF0080E91FBFEFE04
:100BC000DFF84883D8F80080FFB25FF0280909FBFE
:100BD00007881EF808E089B25FF0080891FBF8F971
:100BE00009FB1819D9F107085EFA08FE5FEACE7E04
:100BF0003FD589B25FF0080E91FBFEFEDFF80C8353
:100C0000D8F80080FFB25FF0280909FB07881EEBC7
:100C1000080E1EF828EC89B25FF0080891FBF8F97D
:100C200009FB1819D9F107085EFA08FE5FEACE7EC3
:100C30001FD589B25FF0080E91FBFEFEDFF8CC8273
:100C4000D8F80080FFB25FF0280909FB07881EEB87
:100C5000080E1EF850EC89B25FF0080891FBF8F915
:100C600009FB1819D9F107085EFA08FE5FEACE7E83
:100C700004D4FFB2022F01DB7F1E9CE7FFB2EF2FEF
:100C800002D05FF0010E7546DFF878E28EF804704E
:100C90005FF0EF0EF44692B25FF0080E92FBFEFE9C
:100CA000DFF86882D8F800805FFA8CFC5FF02809D2
:100CB00009FB0C881EF808E092B25FF0080892FB6E
:100CC000F8F909FB1829D9F107085EFA08FE5FEA6E
:100CD000CE7E41D592B25FF0080E92FBFEFEDFF8A9
:100CE0002C82D8F800805FFA8CFC5FF0280909FBA1
:100CF0000C881EEB080E1EF828EC92B25FF0080874
:100D000092FBF8F909FB1829D9F107085EFA08FEE9
:100D10005FEACE7E20D592B25FF0080E92FBFEFE17
:100D2000DFF8E881D8F800805FFA8CFC5FF02809D2
:100D300009FB0C881EEB080E1EF850EC92B25FF017
:100D4000080892FBF8F909FB1829D9F107085EFA9F
:100D500008FE5FEACE7E07D45FFA8CFCBCF1020F7E
:100D600002DBBCF1010C96E75FFA8CFCBCF1EF0FE3
:100D700002D05FF0010E7446DFF888E18EF805C0FE
:100D8000BDE8F08370B504005C480078012801D10B
:100D9000002022E0DFF890190E00200004F022F974
:100DA000310004F039F904F053F9050001205349EA
:100DB000087058480078012803D056480078022867
:100DC00005D1D5F1A000DFF87C1D086004E0D4F166
:100DD000A000DFF8701D0860002070BD38B5002548
:100DE00000200400E4B2052C13DA282147480068EB
:100DF000E4B2052202FB04F2282303FB020000F503
:100E00008050683004F06DF9062800DA6D1C641C0F
:100E1000E8E7EDB2022D09DB3A48C078782803DB19
:100E200038484079782801DA012000E0002032BDFE
:100E3000DFF8140D006840F2A561884206D2DFF8A1
:100E40000C0D006840F2A561884201D3012000E04A
:100E50000020704780B500F00AF800F061F800F05B
:100E600097FB00F065FC01F004FC002002BD10B50A
:100E7000002428480078002813D100F071FE0400F7
:100E8000E4B2002C0DD0FFF7D3FF012809D121488F
:100E90000470DFF8BC0C006830F02000DFF8B01CF4
:100EA00008601C480078052811D1FFF7C1FF012810
:100EB00022D10720174908700120164981F85000F7
:100EC0001448B0F854001349A1F8520014E0114836
:100ED0000078062810D1FFF7ABFF01280CD10820BD
:100EE0000C49087001200B4981F850000948B0F8FE
:100EF00054000849A1F85200002010BD8C6DFF1F5E
:100F0000AC12FF1F6404FF1F8D6DFF1F5C6DFF1F80
:100F1000966DFF1F6C04FF1F4910FF1F44A50000C2
:100F20002DE9F84300208DF80000DFF80008007874
:100F3000012806D0DFF8F4070078022801D001204C
:100F4000BEE100A800F0C8F9060016F1010F3FD17C
:100F5000DFF8D80790F83000401CDFF8D01781F890
:100F60003000DFF8C807C06AFFF70CFFDFF8BC07E6
:100F700090F830001428C0F2A281DFF8B0070078A2
:100F800001280FD10320DFF8A41708700120DFF833
:100F90009C1781F83900DFF89407808FDFF88C17F1
:100FA00048878CE1DFF884070078022840F08781C9
:100FB0000420DFF8781708700120DFF8701781F837
:100FC0003900DFF86807808FDFF86017488776E11F
:100FD000DFF858070078012840F0CB80BD48407802
:100FE0003230B04244DADFF8440790F83000401C59
:100FF000DFF8381781F830006921DFF890050068C4
:1010000000F580506830FFF7B9FBDFF8480B90F827
:10101000100E401DAF49C97888421FDADFF8340B43
:1010200090F8100E401DAB490979884216DADFF8B6
:10103000240B90F8100E401DA649497988420DDA1C
:10104000A4480079C11CDFF844050068A14A127960
:10105000282303FB02007830FFF790FBDFF8F40A47
:10106000DFF8F01A91F8101E50F82100070079E01F
:101070000020DFF8B81681F830009DF800005F28E6
:1010800036DA300003F008FD80468946A6F23F10AC
:101090009DF800106939484303F0FEFC0022DFF898
:1010A0007C3603F059FE04000D009DF80000DFF8C7
:1010B0007C1691F82B10401A03F0EEFC02000B0096
:1010C0002000290003F0FEFC02000B0040464946C8
:1010D00004F022F800225FF0804303F0F3FC0022CA
:1010E000DFF8743A03F00AFF03F010FE070035E062
:1010F000300003F0D1FC80468946A6F23F109DF8EF
:1011000000106939484303F0C7FC0022DFF80C36B1
:1011100003F022FE04000D009DF80000DFF80C161D
:1011200091F82B10401A03F0B7FC02000B002000CE
:10113000290003F0C7FC02000B004046494603F0BB
:10114000EBFF00225FF0804303F0BCFC0022DFF8DD
:101150000C3A03F0D3FE03F0D9FD0700232F01DA88
:1011600023200700DFF8C405C7623800FFF70AFE36
:101170009AE0DFF8B8050078022840F095805548DD
:1011800040783238864244DADFF8A00590F8300023
:10119000401CDFF8981581F830006921DFF8EC0376
:1011A000006800F580506830FFF7E8FADFF8A4091E
:1011B00090F8100E401D4749C97888421FDADFF8C1
:1011C000940990F8100E401D42490979884216DAB8
:1011D000DFF8800990F8100E401D3E494979884299
:1011E0000DDA3C480079C11CDFF8A0030068394AD9
:1011F0001279282303FB02007830FFF7BFFADFF8EB
:101200005409DFF8501991F8101E50F8210007001A
:1012100044E00020DFF8141581F83000300003F0BE
:101220003BFC804689469DF80000693800FB06F0CB
:1012300003F032FC0022DFF8E43403F08DFD0400FB
:101240000D009DF80000DFF8E41491F82B10401A0F
:1012500003F022FC02000B002000290003F032FC06
:1012600002000B004046494603F056FF0022DFF81B
:101270002C3D03F043FE00225FF0804303F022FC8C
:101280000022DFF81C3D03F039FE03F03FFD0700AC
:10129000B7F58F7F02DB40F21D100700DFF88C04EA
:1012A000C7623800FFF76EFDDFF8F80C0078012800
:1012B00005D11F226921380080B203F0C2FB002053
:1012C000BDE8F2834CA50000996DFF1F8E6DFF1FD6
:1012D0006C11FF1F6404FF1F2DE9F14FBEB00A24FB
:1012E0004FF49B750026002700208DF804005FF066
:1012F00000085FF000095FF0000A00F0D4FD0090E4
:10130000DFF828040078022805D10098C9280DDBF1
:101310005FF0FF3037E1DFF814040078012805D1D1
:101320000098782802DA5FF0FF302CE10020814637
:101330005FFA89F9B9F1140F80F2A480934800682C
:101340005FFA89F90321DFF8E42392F82A2001FBF0
:101350000921282202FB01008346002082465FFA11
:101360008AFABAF1280F1BDA0020C0B2082814DA72
:10137000DFF8341C5FFA8AFA5FEACA0252FA80F296
:101380005FFA8AFA1AF80B30D0F1070C53FA0CF313
:1013900013F001035354401CE7E71AF1010ADEE79A
:1013A000DFF888030078022831D100980700DFF8C1
:1013B000F80B3818C07801280BD1DFF8EC0B38187F
:1013C0008078012805D1DFF8E00B38184078012833
:1013D00003D0AF4201DA7F1CE9E7AF4205DA03A888
:1013E0005FFA89F920F8197049E0DFF8C00B4078FE
:1013F0000A30874205DA03A85FFA89F920F8195004
:101400003DE003A85FFA89F920F8195037E0C74892
:101410000078012833D100980600DFF88C0B3018D3
:1014200010F8030C01280DD1DFF87C0B301810F8F0
:10143000020C012806D1DFF8700B301810F8010CEF
:10144000012803D0B44201DA761EE6E7B44205DA99
:101450000DA85FFA89F920F8196010E0DFF84C0B4D
:1014600040780A38B04205DA0DA85FFA89F920F809
:10147000194004E00DA85FFA89F920F8194019F124
:10148000010955E7A9480078022834D10020814697
:101490005FFA89F9B9F1130F68DA03A85FFA89F9DD
:1014A00010EB4900408803A95FFA89F931F8191057
:1014B000401A17A95FFA89F941F8290017A85FFABD
:1014C00089F950F829001F2812DB0120804603A863
:1014D0005FFA89F930F8190002905FFA89F9032060
:1014E000924991F82A1000FB09103E9908703DE0DE
:1014F00019F10109CCE78D480078012836D1002088
:1015000081465FFA89F9B9F1130F2FDA0DA85FFA56
:1015100089F910EB490040880DA95FFA89F931F883
:101520001910401A2AA95FFA89F941F829002AA856
:101530005FFA89F950F8290010F11E0F13DA012023
:101540008DF804000DA85FFA89F930F819000290AF
:101550005FFA89F90320754991F82A1000FB0910F8
:101560003E99087002E019F10109CAE75FFA88F8AC
:10157000B8F1000F06D19DF80400002802D15FF0F9
:10158000FF3000E002983FB0BDE8F08F5C6DFF1FB8
:1015900080B566480078032805D0644800780428A0
:1015A00001D00120B8E0614890F83810DFF8000A57
:1015B00000685E4A92F83820282303FB0200FFF7F8
:1015C000DDF8DFF8900590F8100E401DDFF8DC190B
:1015D000C978884223DADFF87C0590F8100E401DA8
:1015E000DFF8C8190979884219DADFF8680590F838
:1015F000100E401DDFF8B419497988420FDADFF880
:10160000AC090079C11CDFF8A8090068DFF89C2943
:101610001279282303FB02007830FFF7AFF8DFF8D8
:101620003405DFF8301591F8101E50F82100FFF74F
:10163000A9FBDFF8100D0078032803DB0020DFF89A
:10164000041D0870DFF8000D0068DFF8001DDFF8EA
:10165000F42C127851F82210401ADFF8EC1C0860C4
:10166000DFF8F004DFF8EC1491F8101E50F82100B8
:10167000DFF8D81CDFF8CC2C127841F82200DFF814
:10168000C80C0068DFF8C41CDFF8B82C127851F8D9
:1016900022100818DFF8B01C0860DFF8A80C0078EA
:1016A000401CDFF8A01C0870204890F83E0001287C
:1016B00031D100F057FE012807D11C4890F83F00B7
:1016C000401C1A4981F83F0003E00020174981F8C7
:1016D0003F00164890F83F0002281CDB13480078B2
:1016E00003280CD1DFF8600C00684000032190FB58
:1016F000F1F00E49486305200C4908700BE00B48D7
:101700000078042807D1DFF8400C006807494863D7
:10171000062006490870002002BD00000000F03FCE
:10172000000034C00000F0BF5004FF1F6C04FF1F16
:101730002DE9F843DFF8180C0078062806D0DFF80A
:10174000100C0078052801D00120F8E1DFF8041C16
:10175000DFF8040C00F02EFC0600DFF8F40B007834
:10176000062840F0F780300003F096F9804689465D
:10177000DFF8E00B0068693800FB06F003F08CF935
:101780000022DFF8D83B03F0E7FA04000D00DFF891
:10179000C40B0068DFF8C01B0968401A03F07CF92D
:1017A00002000B002000290003F08CF902000B005E
:1017B0004046494603F0B0FC0022DFF8E03703F072
:1017C0009DFB00225FF0804303F07CF90022DFF8EC
:1017D000903B03F093FB03F099FA070016F1010F19
:1017E0005BD0DFF8C8074078B84256DAB7F58F7F8C
:1017F00002DB40F21D1007003800FFF7C3FADFF8E4
:10180000500B90F84000032804DB0020DFF8401B59
:1018100081F84000DFF8380B4763DFF8340B406B8A
:10182000DFF82C1BDFF8282B92F8402011EB820107
:10183000496C401ADFF8181B4863DFF8140BDFF817
:10184000101B91F8401010EB81004764DFF8000B8B
:10185000406BDFF8FC1ADFF8F82A92F8402011EB11
:101860008201496C0818DFF8E81A4863DFF8E00ADB
:1018700090F84000401CDFF8D81A81F84000DFF8EB
:1018800024070078012840F0598147F6FF7269214A
:10189000380080B203F0D5F850E1DFF8B80A0068EC
:1018A0005A283CDA6921DFF80807006800F5805003
:1018B0006830FEF763FFA74890F8100E401DDFF870
:1018C000EC16C978884221DAA24890F8100E401D23
:1018D000DFF8D8160979884218DA9E4890F8100E79
:1018E000401DDFF8C816497988420FDADFF8BC06D8
:1018F0000079C11CDFF8B8060068DFF8B02612795D
:10190000282303FB02007830FEF738FF9148914905
:1019100091F8101E50F82100FFF734FA0EE1DFF8BD
:10192000300A406B032190FBF1F0FFF72BFADFF850
:1019300074060078012840F001814FF61F026921EA
:10194000DFF80C0A406B032390FBF3F080B203F046
:1019500078F8F3E0DFF8F8090078052840F0EE8029
:10196000300003F099F880468946A6F23F10DFF870
:10197000E41909686939484303F08EF80022DFF85A
:10198000DC3903F0E9F904000D00DFF8C80900684C
:10199000DFF8C4190968401A03F07EF802000B0052
:1019A0002000290003F08EF802000B004046494653
:1019B00003F0B2FB00225FF0804303F083F80022C3
:1019C000DFF88C3D03F09AFA03F0A0F9070016F156
:1019D000010F58D0DFF8D4054078874253DA232F1F
:1019E00001DA232007003800FFF7CCF9DFF860099F
:1019F00090F84000032804DB0020DFF8541981F838
:101A00004000DFF84C094763DFF84409406BDFF81A
:101A10004019DFF83C2992F8402011EB8201496C13
:101A2000401ADFF82C194863DFF82409DFF8201981
:101A300091F8401010EB81004764DFF81409406B07
:101A4000DFF80C19DFF8082992F8402011EB820129
:101A5000496C0818DFF8F8184863DFF8F40890F8C4
:101A60004000401CDFF8E81881F84000DFF834053A
:101A70000078012862D147F6FF726921380080B2F0
:101A800002F0DFFF5AE0DFF8CC0800685A283CDAA1
:101A90006921DFF81C05006800F580506830FEF70A
:101AA0006DFE2C4890F8100E401DDFF80015C97827
:101AB000884221DA274890F8100E401DDFF8EC1418
:101AC0000979884218DA234890F8100E401DDFF893
:101AD000DC14497988420FDADFF8D0040079C11CA0
:101AE000DFF8CC040068DFF8C4241279282303FB54
:101AF00002007830FEF742FE1648164991F8101E93
:101B000050F82100FFF73EF918E0DFF84408406B79
:101B1000032190FBF1F0FFF735F9DFF88804007836
:101B200001280BD14FF61F026921DFF82408406B12
:101B3000032390FBF3F080B202F083FF0020BDE8A6
:101B4000F2830000C421FF1F0421FF1F0821FF1F93
:101B5000C0F00F40AC12FF1F00004E400000444098
:101B60002DE9F04FA3B00A214FF49B72002300240B
:101B70000025002600208DF8030000208DF80200CB
:101B800000208DF8010000208DF8000000275FF094
:101B9000000E00200700FFB20A2F80F2A080DFF8BD
:101BA00010040068FFB25FEA870CDFF8A49799F889
:101BB0002A901CEB090C5FF0280909FB0C008046F9
:101BC000002086465FFA8EFEBEF1280F1CDA002048
:101BD000C0B2082815DADFF8D0C35FFA8EFE5FEADC
:101BE000CE0959FA80F95FFA8EFE1EF808A0D0F1EE
:101BF000070B5AFA0BFA1AF0010A09F80CA0401C5C
:101C0000E6E71EF1010EDDE7DFF8A00340780400EF
:101C1000DFF894032018C07801280BD1DFF888037F
:101C200020188078012805D1DFF87C03201840783F
:101C3000012803D0944201DA641CE9E7944206DAF1
:101C4000DFF80C07FFB210EB4700C48211E0D74861
:101C500040780A30844206DADFF8F406FFB210EB6F
:101C60004700C28205E0DFF8E806FFB210EB47004C
:101C7000C282CE4840780300CB48181810F8030CF5
:101C800001280BD1C848181810F8020C012805D1FA
:101C9000C548181810F8010C012803D0994201DA40
:101CA0005B1EE9E7994206DADFF8A406FFB210EB03
:101CB0004700438011E0BD4840780A38984206DA70
:101CC000DFF88C06FFB210EB4700418005E0DFF83B
:101CD0008006FFB210EB470041807F1C5BE70020CD
:101CE0000700FFB2092F29DADFF86406FFB210EB14
:101CF00047008088DFF858C6FFB21CEB470CBCF8E1
:101D000002C0B0EB0C000DF1680CFFB24CF82700DC
:101D1000DFF83C06FFB210EB4700008BDFF830C65F
:101D2000FFB21CEB470CBCF816C0B0EB0C000DF179
:101D3000440CFFB24CF827007F1CD2E700200700BC
:101D4000FFB2082F80F28D801AA8FFB210EB870037
:101D500040680DF1680CFFB25CF827C0B0EB0C00D6
:101D60000DF1240CFFB24CF8270011A8FFB210EBC4
:101D7000870040680DF1440CFFB25CF827C0B0EB5F
:101D80000C000DF1040CFFB24CF8270009A8FFB2BB
:101D900050F82700012804DB09A8FFB250F82700FB
:101DA00004E009A8FFB250F827004042032812DAE5
:101DB0001AA8FFB250F82700012804DB1AA8FFB2C6
:101DC00050F8270004E01AA8FFB250F8270040425C
:101DD000012800DB6D1C01A8FFB250F82700012884
:101DE00004DB01A8FFB250F8270004E001A8FFB20D
:101DF00050F827004042032812DA11A8FFB250F829
:101E00002700012804DB11A8FFB250F8270004E0E6
:101E100011A8FFB250F827004042012800DB761CD1
:101E200009A8FFB250F8270010F1170F08DAFFB227
:101E3000022097FBF0F0A84202DA01208DF80100A1
:101E400001A8FFB250F82700182808DBFFB20220D3
:101E500097FBF0F0B04202DA01208DF800007F1C01
:101E60006EE7062D02DB01208DF80300062E02DB53
:101E700001208DF802009DF80300002805D09DF890
:101E80000000012801D102200AE09DF8020000288C
:101E900005D09DF80100012801D1012000E00020BB
:101EA00023B0BDE8F08F30B585B000200500EDB25D
:101EB000142D69DAB4200400EDB20A2000FB05F00D
:101EC0004130082190FBF1F039490968E4B2282239
:101ED00002FB0411405CEDB20A2101FB05F1413126
:101EE000082291FBF2F303FB1213D3F1070108411F
:101EF000C0073FD5EDB20A2000FB05F041300821B4
:101F000090FBF1F02A490968E4B2282202FB04118F
:101F1000401810F8280CEDB20A2101FB05F14131FF
:101F2000082291FBF2F303FB1213D3F107010841DE
:101F3000C0071FD5EDB20A2000FB05F04130082193
:101F400090FBF1F01A490968E4B2282202FB04115F
:101F5000401810F8500CEDB20A2101FB05F1413197
:101F6000082291FBF2F303FB1213D3F1070108419E
:101F7000C00704D4E4B20A2C01DB641E9CE700A86D
:101F8000EDB22C546D1C92E7142100A803F082F8E6
:101F90000A214843413005B030BD000000F07340D5
:101FA000000044C04910FF1F6C11FF1F6404FF1F95
:101FB0005C6DFF1F2DE9F041D7B0020000235FF0F8
:101FC000FF300024E24F3F78062F40F0CD800027FD
:101FD0003E00F6B2282E6FDAEF273D00F6B2B700CA
:101FE0005FF0080C97FBFCF7DFF860CBDCF800C073
:101FF000EDB25FF0280E0EFB05CC17F80C70F6B2B0
:102000005FEA860C5FF0080E9CFBFEF808FB1EC81A
:10201000D8F1070C57FA0CF7FF0743D5F6B2B70013
:102020005FF0080C97FBFCF7DFF820CBDCF800C072
:10203000EDB25FF0280E0EFB05CC17EB0C0717F87E
:10204000287CF6B25FEA860C5FF0080E9CFBFEF877
:1020500008FB1EC8D8F1070C57FA0CF7FF0721D56B
:10206000F6B2B7005FF0080C97FBFCF7DFF8DCCAAC
:10207000DCF800C0EDB25FF0280E0EFB05CC17EBCC
:102080000C0717F8507CF6B25FEA860C5FF0080E7A
:102090009CFBFEF808FB1EC8D8F1070C57FA0CF79A
:1020A000FF0704D4EDB20A2D01DB6D1E96E700AFE9
:1020B000F6B2F555761C8CE700273E00F6B2272EC7
:1020C00011DA00AFF6B2F7197F780DF1000CF6B215
:1020D00016F80CC0B7EB0C070DF1C00CF6B24CF8BB
:1020E0002670761CEAE700273E00F6B2262E37DA85
:1020F00030AFF6B217EB86077F680DF1C00CF6B271
:102100005CF826C0B7EB0C070DF1280CF6B24CF8C2
:1021100026700AAFF6B257F82670012F04DB0AAF1B
:10212000F6B257F8267004E00AAFF6B257F82670F8
:102130007F42032F00DA5B1C0AAFF6B257F8267015
:1021400017F10F0F0ADAF6B2022796FBF7F79F4254
:1021500004DA012B02DB01273C0001E0761CC4E716
:10216000F6B2B7003800E3E0794F3F78052F40F032
:10217000DF8000273E00F6B2282E80F27F80EF2716
:102180003D0040F23F17F6B2B7EB86075FF0080C50
:1021900097FBFCF7DFF8B4C9DCF800C0EDB25FF0E4
:1021A000280E0EFB05CC17F80C7040F23F1CF6B25F
:1021B000BCEB860C5FF0080E9CFBFEF808FB1EC80B
:1021C000D8F1070C57FA0CF7FF074DD540F23F172F
:1021D000F6B2B7EB86075FF0080C97FBFCF7DFF869
:1021E0006CC9DCF800C0EDB25FF0280E0EFB05CC28
:1021F00017EB0C0717F8287C40F23F1CF6B2BCEB3B
:10220000860C5FF0080E9CFBFEF808FB1EC8D8F198
:10221000070C57FA0CF7FF0726D540F23F17F6B226
:10222000B7EB86075FF0080C97FBFCF7DFF81CC9DB
:10223000DCF800C0EDB25FF0280E0EFB05CC17EB0A
:102240000C0717F8507C40F23F1CF6B2BCEB860C32
:102250005FF0080E9CFBFEF808FB1EC8D8F1070CC7
:1022600057FA0CF7FF0704D4EDB20A2D01DB6D1EFF
:1022700087E700AFF6B2F555761C7CE700273E00F5
:10228000F6B2272E11DA00AFF6B2F7197F780DF10A
:10229000000CF6B216F80CC0B7EB0C070DF1C00C31
:1022A000F6B24CF82670761CEAE700273E00F6B23C
:1022B000262E37DA30AFF6B217EB86077F680DF1BE
:1022C000C00CF6B25CF826C0B7EB0C070DF1280C79
:1022D000F6B24CF826700AAFF6B257F82670012F06
:1022E00004DB0AAFF6B257F8267004E00AAFF6B284
:1022F00057F826707F42032F00DA5B1C0AAFF6B254
:1023000057F8267017F10F0F0ADAF6B2022796FB7C
:10231000F7F79F4204DA012B02DB01273C0001E0C2
:10232000761CC4E740F23F17F6B2B7EB86073800D9
:102330009DF80070176000AFF6B2F75D0F6057B000
:10234000BDE8F0818F6DFF1FCC20FF1FC020FF1F55
:102350006C04FF1FD420FF1FD020FF1F0000F03FA0
:1023600000003440F0B4C1B000210020DFF8E047A5
:102370002478042C40F0B48000242300DBB21E2B10
:1023800060DAEF242200DBB29C001E34082594FBA7
:10239000F5F4DFF8CC5B2D68D2B2282606FB025597
:1023A000645DDBB29D001E35082695FBF6F707FB42
:1023B0001657D7F107052C41E40739D5DBB29C004D
:1023C0001E34082594FBF5F4DFF8945B2D68D2B237
:1023D000282606FB0255641914F8284CDBB29D0030
:1023E0001E35082695FBF6F707FB1657D7F10705AC
:1023F0002C41E4071CD5DBB29C001E34082594FB5D
:10240000F5F4DFF85C5B2D68D2B2282606FB025596
:10241000641914F8504CDBB29D001E35082695FB5C
:10242000F6F707FB1657D7F107052C41E40704D44C
:10243000D2B20A2A01DB521EA5E700ACDBB21A5564
:102440005B1C9BE700242300DBB21D2B0DDA00ACE4
:10245000DBB21C19647800ADDBB25D5D641B24AD9A
:10246000DBB245F823405B1CEEE700242300DBB21F
:102470001C2B80F2FA8024ACDBB214EB830464687A
:1024800024ADDBB255F82350641B08ADDBB245F830
:10249000234008ACDBB254F82340012C04DB08AC29
:1024A000DBB254F8234004E008ACDBB254F823401C
:1024B0006442032C00DA491C08ACDBB254F8234018
:1024C00014F10F0F0ADADBB2022493FBF4F48C420E
:1024D00004DA012902DB01242000C6E05B1CC6E708
:1024E000DFF86C462478032C40F0BF8000242300E2
:1024F000DBB21E2B6CDAEF24220040F22114DBB297
:10250000B4EB8304082594FBF5F4DFF8545A2D68E6
:10251000D2B2282606FB0255645D40F22115DBB2DB
:10252000B5EB8305082695FBF6F707FB1657D7F1A1
:1025300007052C41E40741D540F22114DBB2B4EB8E
:102540008304082594FBF5F4DFF8145A2D68D2B201
:10255000282606FB0255641914F8284C40F2211570
:10256000DBB2B5EB8305082695FBF6F707FB16579C
:10257000D7F107052C41E40720D540F22114DBB246
:10258000B4EB8304082594FBF5F4DFF8D4592D68E7
:10259000D2B2282606FB0255641914F8504C40F2BA
:1025A0002115DBB2B5EB8305082695FBF6F707FB93
:1025B0001657D7F107052C41E40704D4D2B20A2AF2
:1025C00001DB521E99E700ACDBB21A555B1C8FE7AA
:1025D00000242300DBB21D2B0DDA00ACDBB21C198A
:1025E000647800ADDBB25D5D641B24ADDBB245F801
:1025F00023405B1CEEE700242300DBB21C2B34DA03
:1026000024ACDBB214EB8304646824ADDBB255F870
:102610002350641B08ADDBB245F8234008ACDBB2A5
:1026200054F82340012C04DB08ACDBB254F82340FF
:1026300004E008ACDBB254F823406442032C00DA17
:10264000491C08ACDBB254F8234014F10F0F0ADA2E
:10265000DBB2022493FBF4F48C4204DA012902DB9E
:102660000124200001E05B1CC7E7C0B241B0F0BC10
:10267000704710B582B0DFF8D8040078072806D07C
:10268000DFF8CC040078082801D001205FE000A822
:1026900000F060F8040014F1010F41D16921DFF866
:1026A000AC04006800F580506830FEF767F8DFF88A
:1026B000B40890F8100E401DDFF8AC18C9788842B5
:1026C00023DADFF8A00890F8100E401DDFF8981804
:1026D0000979884219DADFF88C0890F8100E401D4D
:1026E000DFF88418497988420FDADFF87C0800792E
:1026F000C11CDFF858040068DFF86C281279282321
:1027000003FB02007830FEF739F8DFF85808DFF8ED
:10271000541891F8101E50F82100FEF733FB15E015
:102720009DF80010DFF8240400689DF8002028239D
:1027300003FB0200FEF722F8DFF82808DFF8241870
:1027400091F8101E50F82100FEF71CFB002016BD6A
:1027500000002E402DE9F14FE2B00A244FF49B75A2
:10276000002600275FF000085FF0000900208DF8C8
:10277000010000208DF800005FF0000A5FF0000B00
:10278000FFF791FB0190DFF8C8030078022805D11C
:102790000198C9280DDB5FF0FF30A6E1DFF8B00338
:1027A0000078012805D10198782802DA5FF0FF301F
:1027B0009BE1002082465FFA8AFABAF1140F80F298
:1027C000A780DFF8880300685FFA8AFA0321DFF840
:1027D000802392F82A2001FB0A21282202FB010013
:1027E0000390002083465FFA8BFBBBF1280F1CDAB5
:1027F0000020C0B2082815DADFF82C1D5FFA8BFB29
:102800005FEACB0252FA80F2039B5FFA8BFB1BF864
:102810000330D0F1070C53FA0CF313F001035354B7
:10282000401CE6E71BF1010BDDE7C94800780828EA
:1028300031D101980700DFF8F00C3818C078012872
:102840000BD1DFF8E40C38188078012805D1DFF8C7
:10285000D80C38184078012803D0AF4201DA7F1C29
:10286000E9E7AF4205DA04A85FFA8AFA20F81A709D
:102870004BE0DFF8F40640780A30874205DA04A816
:102880005FFA8AFA20F81A503FE004A85FFA8AFA41
:1028900020F81A5039E0AE480078072835D1DFF823
:1028A000C80640780600DFF8800C301810F8030CDA
:1028B00001280DD1DFF8700C301810F8020C012837
:1028C00006D1DFF8640C301810F8010C012803D091
:1028D000B44201DA761EE6E7B44205DA0EA85FFAE2
:1028E0008AFA20F81A6010E0DFF87C0640780A388F
:1028F000B04205DA0EA85FFA8AFA20F81A4004E01E
:102900000EA85FFA8AFA20F81A401AF1010A52E773
:10291000002082465FFA8AFABAF1130F2DDA8C484A
:102920000078082811D104A85FFA8AFA10EB4A004F
:10293000408804A95FFA8AFA31F81A10401A3CA9B3
:102940005FFA8AFA41F82A0014E0814800780728E3
:1029500010D10EA85FFA8AFA10EB4A0040880EA93F
:102960005FFA8AFA31F81A10401A4FA95FFA8AFA08
:1029700041F82A001AF1010ACCE7002082465FFAEA
:102980008AFABAF1120F80F2A48071480078082800
:102990004CD13CA85FFA8AFA10EB8A0040683CA947
:1029A0005FFA8AFA51F82A10401A18A95FFA8AFACF
:1029B00041F82A0018A85FFA8AFA50F82A0001287C
:1029C00005DB18A85FFA8AFA50F82A0005E018A873
:1029D0005FFA8AFA50F82A004042032801DA19F116
:1029E000010918A85FFA8AFA50F82A0010F11E0FA0
:1029F0006CDA5FFA8AFABAF10300484566DAB9F18F
:102A0000020F63DB01208DF8000004A85FFA8AFA48
:102A100030F81A0002905FFA8AFA03204C4991F8C4
:102A20002A1000FB0A106299087052E048480078AA
:102A300007284BD14FA85FFA8AFA10EB8A0040684A
:102A40004FA95FFA8AFA51F82A10401A2AA95FFAA8
:102A50008AFA41F82A002AA85FFA8AFA50F82A006E
:102A6000012805DB2AA85FFA8AFA50F82A0005E057
:102A70002AA85FFA8AFA50F82A004042032801DAAD
:102A800018F101082AA85FFA8AFA50F82A001F28CC
:102A90001CDB5FFA8AFABAF10300404516DAB8F196
:102AA000020F13DB01208DF801000EA85FFA8AFAED
:102AB00030F81A0002905FFA8AFA0320244991F84C
:102AC0002A1000FB0A106299087002E01AF1010A4C
:102AD00055E79DF80000002806D19DF80100002868
:102AE00002D15FF0FF3000E0029863B0BDE8F08FE4
:102AF00080B517480078002801D001200AE00020A6
:102B0000DFF8541D087000F006F800F023F801F01B
:102B100040F8002002BD10B50024DFF83C0D00781D
:102B2000032809D0DFF8300D0078042804D0DFF83E
:102B3000280D0078052801D1012005E000F09EFE57
:102B400000F014FA0400002010BD00005C6DFF1FAF
:102B50006C04FF1F2DE9F04383B0DFF8FC0C007814
:102B6000032806D0DFF8F00C0078042801D00120FB
:102B7000F3E100A901A800F0D9FC0600DFF8D80CA9
:102B80000078032840F0F680300001F085FF804691
:102B900089460098693800FB06F001F07DFF0022AD
:102BA000DFF8B83C02F0D8F804000D000098019955
:102BB000401A01F071FF02000B002000290001F013
:102BC00081FF02000B004046494602F0A5FA0022B0
:102BD000DFF88C3C02F092F900225FF0804301F0B4
:102BE00071FF0022DFF87C3C02F088F902F08EF8D9
:102BF0000700DFF8740340780A30B8424ADAB7F5C4
:102C00008F7F02DB40F21D1007003800FEF7BAF894
:102C1000DFF8540C00780A2803DB0020DFF8481C9A
:102C20000870DFF8340C4068DFF8401CDFF8382CFF
:102C3000127831F81210401ADFF81C1C4860DFF8D7
:102C40002C0CDFF8241C097820F81170DFF8080C30
:102C50004068DFF8181CDFF8102C127831F81210D9
:102C600010FA81F0DFF8F01B4860DFF8FC0B007809
:102C7000401CDFF8F41B0870DFF8F40B0078012823
:102C800040F06A8147F6FF726921380080B201F096
:102C9000D8FE61E1B4480079B349C9780A3988425D
:102CA00006DBB1484079B04909790A39884246DAE9
:102CB0006921AB48006800F580506830FDF75EFD83
:102CC000A84890F8100E401DA749C97888421CDA20
:102CD000A44890F8100E401DA3490979884214DADF
:102CE000A04890F8100E401D9F49497988420CDA9F
:102CF0009D480079C11C9A4800689B4A1279282394
:102D000003FB02007830FDF739FD9648954991F8AC
:102D1000101E50F82100AB2808DB9248914991F829
:102D2000101E50F82100FEF72DF815E1DFF8280BF2
:102D300040680A2190FBF1F0FEF724F80CE1DFF87F
:102D4000180B40680A2190FBF1F0FEF71BF8DFF842
:102D5000200B0078012840F0FF804FF61F02692108
:102D6000DFF8F40A40680A2390FBF3F080B201F028
:102D700068FEF1E0DFF8E00A0078042840F0EC801B
:102D8000300001F089FE80468946A6F23F10009986
:102D90006939484301F080FE0022DFF8C03A01F0B3
:102DA000DBFF04000D0000980199401A01F074FE49
:102DB00002000B002000290001F084FE02000B003D
:102DC0004046494602F0A8F900225FF0804301F036
:102DD00079FE0022DFF89C3A02F090F801F096FFAD
:102DE0000700614840780A38874247DA232F01DA22
:102DF000232007003800FDF7C5FFDFF86C0A0078D4
:102E00000A2803DB0020DFF8601A0870DFF8480AA0
:102E10004068DFF8581ADFF8502A127831F812109B
:102E2000401ADFF8341A4860DFF8400ADFF8381A31
:102E3000097820F81170DFF8200A4068DFF82C1AB2
:102E4000DFF8242A127831F8121010FA81F0DFF836
:102E5000081A4860DFF8100A0078401CDFF8081AEA
:102E60000870DFF80C0A0078012875D147F6FF7268
:102E70006921380080B201F0E4FD6DE03A48007944
:102E8000394949790A39884206DB3748C0783649DA
:102E900009790A39884246DA69213148006800F523
:102EA00080506830FDF76AFC2E4890F8100E401DE7
:102EB0002D49C97888421CDA2A4890F8100E401D26
:102EC00029490979884214DA264890F8100E401DE5
:102ED0002549497988420CDA23480079C11C2048E9
:102EE0000068214A1279282303FB02007830FDF79D
:102EF00045FC1C481B4991F8101E50F821009628EB
:102F000008DA1848174991F8101E50F82100FDF70B
:102F100039FF21E0DFF8400940680A2190FBF1F019
:102F2000FDF730FF18E0DFF8300940680A2190FB18
:102F3000F1F0FDF727FFDFF83809007801280BD101
:102F40004FF61F026921DFF8100940680A2390FB41
:102F5000F3F080B201F075FD0020BDE8FE830000B3
:102F60005C6DFF1FAC12FF1F6404FF1F2DE9F04FC3
:102F7000ADF5B56D0A2004904FF49B7003900021CD
:102F800000220023002400208DF80B0000208DF883
:102F90000A0000208DF8070000208DF806000020B0
:102FA0008DF8050000208DF804000025002600277C
:102FB0005FF0000C5FF0000E8DF809E05FF0000E8E
:102FC0008DF808E05FF0000ECDF818E05FF0000E1D
:102FD000CDF814E05FF0000E5FF000080020864698
:102FE0005FFA8EFEBEF13C0F80F2A080DFF8880809
:102FF0000068DFF8649899F808905FFA8EFEB9EBE4
:103000004E095FF0280A0AFB0909CDF81C90002040
:1030100080465FFA88F8B8F1280F22DA0020C0B2A3
:1030200008281BDADFF800A55FFA88F85FEAC8090C
:1030300059FA80F9CDF800A0DDF81CA05FFA88F8F5
:1030400018F80AB0D0F1070A5BFA0AFA1AF0010A76
:10305000DDF800B009F80BA0401CE0E718F101080A
:10306000D7E7DFF8F4070078022829D123200200EF
:10307000DFF8B4041018C07801280BD1DFF8A804D9
:1030800010188078012805D1DFF89C0410184078CA
:10309000012804D00398824201DA521CE8E7039821
:1030A000824205DAF2A85FFA8EFE40F82E203AE05E
:1030B00003980DF572795FFA8EFE49F82E0032E022
:1030C000DFF89407007801282DD140F21D1001008F
:1030D000DFF85404081810F8030C01280DD1DFF8AC
:1030E0004804081810F8020C012806D1DFF838044B
:1030F000081810F8010C012804D00498884201DA5D
:10310000491EE5E70498884206DA0DF597605FFAF4
:103110008EFE40F82E1006E004980DF597695FFAD0
:103120008EFE49F82E001EF1010E59E7DFF8280740
:10313000007802287BD1002086465FFA8EFEBEF121
:103140003B0F26DAF2A85FFA8EFE10EB8E00406885
:103150000DF572795FFA8EFE59F82E90B0EB0900EA
:103160000DF5F8795FFA8EFE49F82E007CA85FFA1B
:103170008EFE50F82E0010F1640F07DA5FF001099F
:103180008DF808905FFA8EFECDF814E01EF1010E66
:10319000D3E7002086465FFA8EFEBEF13B0F80F239
:1031A000C4809DF80600002808D17CA85FFA8EFE36
:1031B00050F82E00012801DA761C35E09DF8060053
:1031C000002824D15FFA8EFEBEF1320F1FDA7CA8F0
:1031D0005FFA8EFE50F82E00012818DB7CA85FFAFB
:1031E0008EFE10EB8E004068012810DB7CA85FFA91
:1031F0008EFE10EB8E008068012808DB5FF001096D
:103200008DF806901CF1010C8DF804E00CE09DF89F
:103210000600012808D17CA85FFA8EFE50F82E0027
:10322000012801DB1CF1010C1EF1010EB3E7DFF8F0
:1032300028060078012878D1002086465FFA8EFEA5
:10324000BEF13B0F26DA0DF597605FFA8EFE10EBAC
:103250008E0040680DF597695FFA8EFE59F82E9042
:10326000B0EB09000DF537795FFA8EFE49F82E00B4
:10327000B7A85FFA8EFE50F82E00652807DB5FF0D6
:1032800001098DF809905FFA8EFECDF818E01EF165
:10329000010ED3E7002086465FFA8EFEBEF13B0F9B
:1032A00043DA9DF80700002808D1B7A85FFA8EFE20
:1032B00050F82E00002801D46D1C33E09DF8070063
:1032C000002823D15FFA8EFEBEF1320F1EDAB7A8B6
:1032D0005FFA8EFE50F82E00002817D5B7A85FFAC7
:1032E0008EFE10EB8E00406800280FD5B7A85FFA5D
:1032F0008EFE10EB8E008068002807D55FF0010974
:103300008DF807907F1C8DF805E00BE09DF8070015
:10331000012807D1B7A85FFA8EFE50F82E000028CA
:1033200000D57F1C1EF1010EB6E7DFF82C050078F2
:10333000022842D1002086469DF804005FFA8EFEE6
:1033400086452CD27CA85FFA8EFE10EB8E0040687A
:103350000DF5F8795FFA8EFE59F82E90B0EB090062
:103360000DF120095FFA8EFE49F82E0008A85FFAD9
:103370008EFE50F82E00012805DB08A85FFA8EFEAD
:1033800050F82E0005E008A85FFA8EFE50F82E00D7
:103390004042032800DA641C1EF1010ECCE79DF8C0
:1033A000040040005FF0030990FBF9F0A0424BDA03
:1033B0005FF001098DF80A9046E0DFF89C04007880
:1033C000012841D1002086469DF805005FFA8EFE57
:1033D00086452CD2B7A85FFA8EFE10EB8E004068AF
:1033E0000DF537795FFA8EFE59F82E90B0EB090093
:1033F0000DF584795FFA8EFE49F82E0042A85FFA37
:103400008EFE50F82E00012805DB42A85FFA8EFEE2
:1034100050F82E0005E042A85FFA8EFE50F82E000C
:103420004042032800DA5B1C1EF1010ECCE79DF838
:10343000050040005FF0030990FBF9F0984203DAC1
:103440005FF001098DF80B90DFF80C04007802287A
:103450002FD19DF80A00002860D09DF806000028B2
:103460005CD09DF80400062858DB9DF8040040005D
:103470005FF0030990FBF9F0B0424FDA9DF80400C9
:103480002D284BDA9DF80800002847D005989DF8B4
:103490000490B0EB090040005FF0030990FBF9F0E5
:1034A00060453BDA0420DFF8B09389F80000012082
:1034B00035E0DFF8A403007801282FD19DF80B0038
:1034C00000282BD09DF80700002827D09DF8050084
:1034D000062823DB9DF8050040005FF0030990FB00
:1034E000F9F0A8421ADA9DF805002D2816DA9DF8A1
:1034F0000900002812D006989DF80590B0EB09004D
:1035000040005FF0030990FBF9F0B84206DA0320AF
:10351000DFF8449389F80000012000E000200DF559
:10352000B56DBDE8F08F00006C11FF1FF0B5B6B0AF
:1035300002000023A020C84E3678032E40F0B4804D
:1035400000263500EDB2192D60DAEF263400EDB219
:10355000AE00082796FBF7F6DFF854783F68E4B230
:103560005FF0280C0CFB0477F65DEDB2AF005FF066
:10357000080C97FBFCFE0EFB1C7EDEF107073E41AC
:10358000F60739D5EDB2AE00082796FBF7F6DFF85F
:1035900020783F68E4B25FF0280C0CFB0477F61942
:1035A00016F8286CEDB2AF005FF0080C97FBFCFE3C
:1035B0000EFB1C7EDEF107073E41F6071CD5EDB27F
:1035C000AE00082796FBF7F6DFF8E4773F68E4B231
:1035D0005FF0280C0CFB0477F61916F8506CEDB26E
:1035E000AF005FF0080C97FBFCFE0EFB1C7EDEF1CB
:1035F00007073E41F60704D4E4B20A2C01DB641E3F
:10360000A5E700AEEDB2AC556D1C9BE7002635007A
:10361000EDB2182D0DDA00AEEDB2AE19767800AF2E
:10362000EDB2EF5DF61B1EAFEDB247F825606D1CE5
:10363000EEE700263500EDB2172D31DA1EAEEDB201
:1036400016EB850676681EAFEDB257F82570F61BAF
:1036500007AFEDB247F8256007AEEDB256F825602A
:10366000012E04DB07AEEDB256F8256004E007AE8C
:10367000EDB256F825607642032E00DA5B1C07AEE9
:10368000EDB256F8256016F10F0F07DAEDB20226FB
:1036900095FBF6F69E4201DA012B01DA6D1CCAE7B2
:1036A000EDB2AE003000CCE06B4E3678042E40F028
:1036B000C88000263500EDB2192D72DAEF263400ED
:1036C00040F23F16EDB2B6EB8506082796FBF7F6FB
:1036D000DFF8DC763F68E4B25FF0280C0CFB04777F
:1036E000F65D40F23F17EDB2B7EB85075FF0080CCF
:1036F00097FBFCFE0EFB1C7EDEF107073E41F60742
:1037000045D540F23F16EDB2B6EB8506082796FB8D
:10371000F7F6DFF89C763F68E4B25FF0280C0CFB0C
:103720000477F61916F8286C40F23F17EDB2B7EBA4
:1037300085075FF0080C97FBFCFE0EFB1C7EDEF19C
:1037400007073E41F60722D540F23F16EDB2B6EB31
:103750008506082796FBF7F6DFF854763F68E4B253
:103760005FF0280C0CFB0477F61916F8506C40F249
:103770003F17EDB2B7EB85075FF0080C97FBFCFE37
:103780000EFB1C7EDEF107073E41F60704D4E4B2CF
:103790000A2C01DB641E93E700AEEDB2AC556D1C44
:1037A00089E700263500EDB2182D0DDA00AEEDB236
:1037B000AE19767800AFEDB2EF5DF61B1EAFEDB23D
:1037C00047F825606D1CEEE700263500EDB2172D99
:1037D00031DA1EAEEDB216EB850676681EAFEDB29D
:1037E00057F82570F61B07AFEDB247F8256007AE16
:1037F000EDB256F82560012E04DB07AEEDB256F8A7
:10380000256004E007AEEDB256F825607642032E3F
:1038100000DA5B1C07AEEDB256F8256016F10F0F0B
:1038200007DAEDB2022695FBF6F69E4201DA012B8D
:1038300001DA6D1CCAE740F23F16EDB2B6EB850621
:1038400030009DF80060166000AEEDB2AE5D0E6017
:10385000C0B236B0F0BD0000C404FF1F0000F03F4E
:1038600000F0734000002440906DFF1FD820FF1F20
:103870004910FF1F000024C05C6DFF1FF0B4B6B0FC
:103880000023002400200200D2B20A2A80F2DC8049
:10389000EF200100D2B2032000FB02F0082590FBCC
:1038A000F5F0DFF80C552D68C9B2282606FB015546
:1038B000405DD2B2032505FB02F5082695FBF6F71D
:1038C00007FB1657D7F107052841C0073DD5D2B2EF
:1038D000032000FB02F0082590FBF5F0DFF8D05440
:1038E0002D68C9B2282606FB0155401910F8280C8E
:1038F000D2B2032505FB02F5082695FBF6F707FB78
:103900001657D7F107052841C0071ED5D2B20320AC
:1039100000FB02F0082590FBF5F0DFF894542D68C9
:10392000C9B2282606FB0155401910F8500CD2B236
:10393000032505FB02F5082695FBF6F707FB16574E
:10394000D7F107052841C00704D4C9B2822901DB99
:10395000491E9FE7C9B22CA8D2B240F82210EF202E
:10396000010040F23F10D2B2032505FB12000825EA
:1039700090FBF5F0DFF838542D68C9B2282606FB15
:103980000155405D40F23F15D2B2032606FB1255A9
:10399000082695FBF6F707FB1657D7F107052841D0
:1039A000C00745D540F23F10D2B2032505FB1200F7
:1039B000082590FBF5F0DFF8F8532D68C9B22826EA
:1039C00006FB0155401910F8280C40F23F15D2B201
:1039D000032606FB1255082695FBF6F707FB16573C
:1039E000D7F107052841C00722D540F23F10D2B2D7
:1039F000032505FB1200082590FBF5F0DFF8B05316
:103A00002D68C9B2282606FB0155401910F8500C44
:103A100040F23F15D2B2032606FB1255082695FB4D
:103A2000F6F707FB1657D7F107052841C00704D45E
:103A3000C9B2822901DB491E93E7C9B222A8D2B2DA
:103A400040F82210521C1FE700200200D2B2092ABF
:103A50001DDA2CA8D2B210EB820040682CADD2B295
:103A600055F82250401B19ADD2B245F8220022A8C9
:103A7000D2B210EB8200406822ADD2B255F822508B
:103A8000401B10ADD2B245F82200521CDEE70020E8
:103A90000200D2B2082A67DA19A8D2B210EB82006B
:103AA000406819ADD2B255F82250401B08ADD2B2D1
:103AB00045F8220010A8D2B210EB8200406810AD89
:103AC000D2B255F82250401B00ADD2B245F82200C8
:103AD00008A8D2B250F82200012804DB08A8D2B20C
:103AE00050F8220004E008A8D2B250F82200404268
:103AF000032812DA19A8D2B250F82200012804DBF8
:103B000019A8D2B250F8220004E019A8D2B250F895
:103B100022004042012800DB5B1C00A8D2B250F812
:103B20002200012804DB00A8D2B250F8220004E0F1
:103B300000A8D2B250F822004042032812DA10A89E
:103B4000D2B250F82200012804DB10A8D2B250F8FB
:103B5000220004E010A8D2B250F82200404201280E
:103B600000DB641C521C94E7052B03DB052C01DBF6
:103B700001200BE0052B03DB01208E4D287004E0B3
:103B8000052C02DB02208B4D2870002036B0F0BCE3
:103B9000704710B587480078042803D0854800781E
:103BA000032801D101203EE0FDF718F9012839D1A1
:103BB000FEF779F904008148C0F8544155217C484A
:103BC000006800F64850FCF7D9FD7C4890F8100ECC
:103BD000401D7949C97888421CDA784890F8100E5F
:103BE000401D75490979884214DA744890F8100E1E
:103BF000401D7149497988420CDA6F480079C11C2F
:103C00006B4800686C4A1279282303FB0200783065
:103C1000FCF7B4FD6948694991F8101E50F821007D
:103C2000FDF7B0F8002010BDF0B578220023002485
:103C30000025002000263100C9B2042980F29080BE
:103C4000002633005A4E3668C9B20A2707FB01F72F
:103C500057FA82F75FF0280C0CFB07663678F6B24D
:103C6000F609F6B2002E02D10126350001E0002649
:103C70003500B3F5A07F6BDADE1C082796FBF7F65C
:103C80004B4F3F68C9B25FF00A0C0CFB01FC5CFAB9
:103C900082FC5FF0280E0EFB0C77F65DDF1C5FF0F8
:103CA000080C97FBFCFE0EFB1C7EDEF107073E4175
:103CB00016F00106EDB2AE4248D19E1C082796FBD5
:103CC000F7F63B4F3F68C9B25FF00A0C0CFB01FCF2
:103CD0005CFA82FC5FF0280E0EFB0C77F65D9F1CF1
:103CE0005FF0080C97FBFCFE0EFB1C7EDEF1070765
:103CF0003E4116F00106EDB2AE4227D15E1C082708
:103D000096FBF7F62A4F3F68C9B25FF00A0C0CFB2E
:103D100001FC5CFA82FC5FF0280E0EFB0C77F65D6E
:103D20005F1C5FF0080C97FBFCFE0EFB1C7EDEF1B7
:103D300007073E4116F00106EDB2AE4206D1641C03
:103D4000EDB2002D01D1012500E000255B1C90E7BC
:103D5000E4B2062C02DB0126300001E0491C6BE7CF
:103D6000C0B2F0BD10B51648007901281FD1FFF789
:103D70005BFF01281BD100201149087110484088C1
:103D80000F490880FEF78FF804000C48C0F8544132
:103D900055210748006800F64850FCF7EFFC07483B
:103DA000064991F8101E50F82100FCF7EBFF10BDFA
:103DB0005C6DFF1FC404FF1F6404FF1FAC12FF1FD4
:103DC0007810FF1F80B5012301220C21042001F08F
:103DD00063FA012301220B21042001F05DFA012383
:103DE00001220A21042001F057FA012301220921AE
:103DF000042001F051FA01BD10B50400FFF7E2FF05
:103E0000DFF8EC07006830F40060DFF8E4170860C2
:103E1000142001F0C7FADFF8D807006850F40060FA
:103E2000DFF8CC170860142001F0BCFACB2000F0BA
:103E300001F9392000F0DDF92C2000F0DAF900203A
:103E400000F0D7F9342000F0D4F9022000F0D1F9C5
:103E5000CF2000F0EFF8002000F0CBF9C12000F0F7
:103E6000C8F9302000F0C5F9E82000F0E3F885201B
:103E700000F0BFF9002000F0BCF9782000F0B9F99B
:103E8000EA2000F0D7F8002000F0B3F9002000F09D
:103E9000B0F9ED2000F0CEF8642000F0AAF903207C
:103EA00000F0A7F9122000F0A4F9812000F0A1F998
:103EB000F72000F0BFF8202000F09BF9C02000F0B0
:103EC000B9F8232000F095F9C12000F0B3F81020D4
:103ED00000F08FF9C52000F0ADF83E2000F089F920
:103EE000282000F086F9C72000F0A4F8862000F012
:103EF00080F9362000F09EF8E4B2002C03D0E820D0
:103F000000F077F902E0282000F073F93A2000F081
:103F100091F8552000F06DF9B12000F08BF80020E9
:103F200000F067F9182000F064F9B62000F082F87C
:103F3000082000F05EF9822000F05BF9272000F0F5
:103F400058F9F22000F076F8002000F052F926200F
:103F500000F070F8012000F04CF9E02000F06AF861
:103F60000F2000F046F9312000F043F92B2000F03B
:103F700040F90C2000F03DF90E2000F03AF908203D
:103F800000F037F94E2000F034F9F12000F031F95B
:103F9000372000F02EF9072000F02BF9102000F058
:103FA00028F9032000F025F90E2000F022F909205D
:103FB00000F01FF9002000F01CF9E12000F03AF8B1
:103FC000002000F016F90E2000F013F9142000F084
:103FD00010F9032000F00DF9112000F00AF9072074
:103FE00000F007F9312000F004F9C12000F001F9D8
:103FF000482000F0FEF8082000F0FBF80F2000F049
:10400000F8F80C2000F0F5F8312000F0F2F8362036
:1040100000F0EFF80F2000F0ECF8112000F00AF8A3
:10402000142001F0BFF9292000F004F82C2000F042
:1040300001F810BDDFF8B815096831F48051DFF8D8
:10404000B0251160C0B2C109C9B2DFF8A425126859
:1040500061F38A22DFF898150A60DFF89415096881
:1040600031F40071DFF888251160DFF884150968E4
:1040700051F40071DFF878251160C0B28109C9B22E
:10408000DFF86C25126861F38A22DFF864150A6094
:10409000DFF85C15096831F40071DFF85425116010
:1040A000DFF84C15096851F40071DFF84425116000
:1040B000C0B24109C9B2DFF83825126861F38A221B
:1040C000DFF82C150A60DFF82815096831F4007153
:1040D000DFF81C251160DFF81815096851F400712C
:1040E000DFF80C251160C0B20109C9B2DFF8002564
:1040F000126861F38A22DFF8F8140A60DFF8F0141E
:10410000096831F40071DFF8E8241160DFF8E01489
:10411000096851F40071DFF8D8241160C0B2C108F9
:10412000C9B2DFF8CC24126861F38A22DFF8C01428
:104130000A60DFF8BC14096831F40071DFF8B024BC
:104140001160DFF8AC14096851F40071DFF8A024A5
:104150001160C0B28108C9B2DFF89424126861F31B
:104160008A22DFF88C140A60DFF88414096831F4BD
:104170000071DFF87C241160DFF87414096851F4D1
:104180000071DFF86C241160C0B24108C9B2DFF8D9
:104190006024126861F38A22DFF854140A60DFF8A1
:1041A0005014096831F40071DFF844241160DFF81D
:1041B0004014096851F40071DFF834241160C0B272
:1041C000DFF82C14096860F38A21DFF824241160D9
:1041D000DFF81C14096831F40071DFF81424116051
:1041E000DFF80C14096851F40071DFF80424116041
:1041F0007047DFF8FC13096851F48051DFF8F023B1
:104200001160C0B2C109C9B2DFF8E423126861F3DA
:104210008A22DFF8DC130A60DFF8D413096831F46E
:104220000071DFF8CC231160DFF8C413096851F482
:104230000071DFF8BC231160C0B28109C9B2DFF898
:10424000B023126861F38A22DFF8A4130A60DFF852
:10425000A013096831F40071DFF894231160DFF8CE
:104260009013096851F40071DFF884231160C0B223
:104270004109C9B2DFF87823126861F38A22DFF8B6
:1042800070130A60DFF86813096831F40071DFF811
:1042900060231160DFF85813096851F40071DFF8EA
:1042A00050231160C0B20109C9B2DFF8442312687B
:1042B00061F38A22DFF838130A60DFF834130968E3
:1042C00031F40071DFF828231160DFF82413096846
:1042D00051F40071DFF818231160C0B2C108C9B2EF
:1042E000DFF80C23126861F38A22DFF804130A60F6
:1042F000DFF8FC12096831F40071DFF8F422116074
:10430000DFF8EC12096851F40071DFF8E422116063
:10431000C0B28108C9B2DFF8D822126861F38A22DC
:10432000DFF8CC120A60DFF8C812096831F40071B6
:10433000DFF8BC221160DFF8B812096851F400718F
:10434000DFF8AC221160C0B24108C9B2DFF8A02288
:10435000126861F38A22DFF898120A60DFF890127F
:10436000096831F40071DFF888221160DFF88012EB
:10437000096851F40071DFF878221160C0B2DFF8EB
:104380007012096860F38A21DFF864221160DFF897
:104390006012096831F40071DFF854221160DFF80F
:1043A0005012096851F40071DFF84422116070471F
:1043B00010B50400200AC0B2FFF71BFF2000C0B2F6
:1043C000FFF717FF10BDF8B504000D0016001F0021
:1043D0002A20FFF72FFE200AC0B2FFF70AFF2000B5
:1043E000C0B2FFF706FF280AC0B2FFF702FF28009D
:1043F000C0B2FFF7FEFE2B20FFF71CFE300AC0B252
:10440000FFF7F7FE3000C0B2FFF7F3FE380AC0B284
:10441000FFF7EFFE3800C0B2FFF7EBFE2C20FFF7EE
:1044200009FEF1BD2DE9F04182B004000D00160037
:104430001F00DDF82080CDF800803B003200D2B2B2
:104440002900200000F032F8BDE8F3812DE9F8439F
:1044500004000D0016001F00DDF820805FF0000949
:104460003078002820D0307880280EDACDF800800F
:104470003B00327829005FFA89F914EBC900FFF795
:10448000D1FF761C19F10109EAE7CDF800803B0065
:10449000320029005FFA89F914EBC90000F03CF8FA
:1044A000B61C19F10209DBE7BDE8F1832DE9F84FED
:1044B00004000D0016001F00DDF8288015F10F0321
:1044C0002A00E11D2000FFF77EFF00208146B9F1A0
:1044D000100F1FD2DFF82404F6B219EB061111F801
:1044E00000B000208246BAF1080F10D25FFA8BFBB1
:1044F0005FEA0B6003D53800FFF75AFF02E0404641
:10450000FFF756FF5FEA4B0B1AF1010AEBE719F1CF
:104510000109DCE7BDE8F18F2DE9F14F0C00150032
:104520001E000A9F14F10F032200009810F10F01E2
:104530000098FFF748FF00208246BAF1400F3BD2B7
:10454000DFF8BC03232101FB0A00007829788842A8
:104550002FD1DFF8AC03232101FB0A0040786978F2
:10456000884226D100208046B8F1200F21D2DFF802
:104570009003232101FB0A0018EB000090F803B020
:1045800000208146B9F1080F10D21FFA8BFB5FEAB9
:104590000B6003D53000FFF70BFF02E03800FFF798
:1045A00007FF5FEA4B0B19F10109EBE718F101086E
:1045B000DAE71AF1010AC0E7BDE8F18F70B504002F
:1045C000EF23002240F23F110020FFF7FCFE002005
:1045D0000500F02D0BD200200600B6F5A07F04D216
:1045E0002000FFF7E5FE761CF7E76D1CF1E770BDD4
:1045F00000F10F402DE9F44F8AB004000D009A46F7
:10460000149E159F5FF000085FF0000900208146AE
:104610000A985FFA89F919F8000000280CD00A9866
:104620005FFA89F919F8000001A95FFA89F909F818
:10463000010019F10109EBE7202001A95FFA89F9CE
:1046400009F8010019F10109BAF1000F0BD52D206D
:1046500001A95FFA89F909F8010019F101095FF070
:10466000FF3000FB0AFABAF10A0F0EDA1AF1300035
:1046700001A95FFA89F909F80100002001A95FFA90
:1046800089F919EB01014870E0E0BAF10A0F1FDB6C
:10469000BAF1640F1CDA0A209AFBF0F0303001A95D
:1046A0005FFA89F909F801000A209AFBF0F100FB92
:1046B00011A0303001A95FFA89F919EB01014870A6
:1046C000002001A95FFA89F919EB01018870BDE0AA
:1046D000BAF57A7F2BDA64209AFBF0F0303001A92A
:1046E0005FFA89F909F801000A209AFBF0F00A2123
:1046F00090FBF1F201FB1200303001A95FFA89F959
:1047000019EB010148700A209AFBF0F100FB11A09F
:10471000303001A95FFA89F919EB01018870002096
:1047200001A95FFA89F919EB0101C8708EE042F224
:10473000107082453BDA4FF47A709AFBF0F030301B
:1047400001A95FFA89F909F8010064209AFBF0F0E9
:104750000A2190FBF1F201FB1200303001A95FFA4F
:1047600089F919EB010148700A209AFBF0F00A213F
:1047700090FBF1F201FB1200303001A95FFA89F9D8
:1047800019EB010188700A209AFBF0F100FB11A0DF
:10479000303001A95FFA89F919EB0101C8700020D6
:1047A00001A95FFA89F919EB010108714EE0DFF800
:1047B000AC0182454ADA42F210709AFBF0F03030D8
:1047C00001A95FFA89F909F801004FF47A709AFBA0
:1047D000F0F00A2190FBF1F201FB1200303001A948
:1047E0005FFA89F919EB0101487064209AFBF0F037
:1047F0000A2190FBF1F201FB1200303001A95FFAAF
:1048000089F919EB010188700A209AFBF0F00A215E
:1048100090FBF1F201FB1200303001A95FFA89F937
:1048200019EB0101C8700A209AFBF0F100FB11A0FE
:10483000303001A95FFA89F919EB010108710020F4
:1048400001A95FFA89F919EB010148715FF0000BCA
:104850005FFA8BFBBBF1070F0CDA00973B002022BD
:1048600029005FFA8BFB14EBCB00FFF7DBFD1BF19C
:10487000010BEDE70020814601A85FFA89F919F8DC
:104880000000002836D001A85FFA89F919F8000065
:10489000802812DA0097330001A85FFA89F919F825
:1048A000002029005FFA88F814EBC800FFF7BAFD72
:1048B00019F1010918F1010811E00097330001A86E
:1048C0005FFA89F919F8002029005FFA88F814EBDB
:1048D000C800FFF721FE19F1020918F1020800973C
:1048E0003B00202229005FFA88F814EBC800FFF78C
:1048F00099FDC1E70BB0BDE8F08F0000D404FF1FA5
:10490000D40CFF1FF8B50400EF23002240F23F1142
:104910000020FFF758FD00200500F02D1DDA0020D3
:104920000600282E17DA00200700082F11DA2820A9
:1049300000FB0540305C80213941084203D0002053
:10494000FFF736FD03E04FF6FF70FFF731FD7F1CE8
:10495000EBE7761CE5E76D1CDFE7F1BDA086010003
:104960002DE9FF4F83B05FF000095FF0000ABDF84A
:104970001400BDF80C10401A8346BDF81800BDF8AD
:104980001010401A0500BDF80C000700BDF810001B
:104990008046BBF1010F02DB012001900AE0BBF170
:1049A000000F02D10020019004E05FF0FF30019081
:1049B000DBF1000B012D02DB0120009008E0002D4F
:1049C00002D10020009003E05FF0FF3000906D42C4
:1049D0005D4501DA5E4600E02E0000200400701CF8
:1049E000A4B2A04218DB414689B2380080B200F080
:1049F00016F81BEB090915EB0A0A4E4503DAB9EB69
:104A000006090198C719564504DABAEB060A009858
:104A100010EB0808641CE2E707B0BDE8F08F38B57A
:104A200004000D00ADB22B00ADB22A00A4B22100EB
:104A3000A4B22000FFF7C7FC4FF47840FFF7B8FCA2
:104A400031BDF8B504000D001600ADB26B1CADB25F
:104A50006A1EA4B2611CA4B2601EFFF7B4FC002061
:104A60000700FFB2092F05DAB6B23000FFF7A0FC4D
:104A70007F1CF6E7F1BD50F8041B61B150F8042B20
:104A8000D30744BFA9F101039A180023091F42F874
:104A9000043BFAD1EFE77047010040F10780F4468C
:104AA000404200F003F851F00041604709D0B0FAED
:104AB00080F18840C91CC1F58461090501EBD02152
:104AC00040057047F0B540F2FF7581EA030C0CF029
:104AD000004C15EA11541DBF15EA1357AC42AF4202
:104AE000E5E0BC41C1F31301C3F31303801A9941FC
:104AF00043F4801304D2641E400049418018594198
:104B0000C90241EA5051B1FBF3F603FB1611A2FBB7
:104B10000675D7EBC020A94102D2761E80185941F4
:104B2000C90241EA5051B1FBF3FE03FB1E11A2FB87
:104B30000E75D7EBC020A94103D2AEF1010E80184B
:104B40005941890241EA9051760546EA8E2EB1FB21
:104B5000F3F603FB1611A2FB0675D7EB8020A941E3
:104B600002D2761E80185941C90241EA50514EEADC
:104B7000060EB1FBF3F603FB1611A2FB0675D7EB8D
:104B8000C020A94102D2761E80185941C90241EACB
:104B90005051B1FBF3F703FB1711A2FB0735D3EB21
:104BA000C020A94167F100070CBF004247F0010790
:104BB00066F3D5274FEA1E31B80814F5806412DD7C
:104BC000BD0775F1004250EB0E5051EB045111F549
:104BD000801F5CBF41EA0C01F0BD4CF07F6141F0E9
:104BE000E0410020F0BDBD076D0840EA0E5041F4E1
:104BF0008011D4F10104B4F120060ADAC4F12006D0
:104C00000200E04001FA06F3E1401843B2401543C8
:104C10000EE0342C13DCC6F1200445EA40056D0893
:104C200020FA06F2154321FA06F0A1400D430021B7
:104C300075F1004250F1000051EB0C01F0BD002075
:104C40005FEA0C01F0BDCFB992185B41B3FA83F76C
:104C500004BFB2FA82F6BF190B3FB7F120062FBF8F
:104C600002FA06F3BB40C7F1200622FA06F638BF67
:104C70003343BA401CB1E419641E33E77F4231F07C
:104C80000041B1FA81F404BFB0FA80F6A4190B3CDC
:104C9000B4F120062FBF00FA06F1A140C4F12006AE
:104CA00020FA06F638BF3143A0403C1B1AE7AC425D
:104CB0001ABF05EA1357AF4212E050EA41061CBF83
:104CC00052EA4306BFE750EA4107304661461CBF3F
:104CD00041EA0551F0BD52EA430C08BFC143F0BDA3
:104CE00000204FF4001616EB410F98BF16EB430F50
:104CF00008BF16EB410F24BFC14305E016EB430F7D
:104D00000CBF61464CEA0551F0BD0000F446400D71
:104D100040EAC120490006D200F00EF8004248BF28
:104D20006FF00040604700F007F84FF00041884204
:104D30008CBF08464042604740F00040490DA1F555
:104D40008061491C05D4D1F11F0154BFC840C01770
:104D500070474FF000007047B0B581EA030C0CF0CB
:104D6000004C40F2FF7515EA11541DBF15EA1357A8
:104D7000AC42AF4239E0E41923EA455343F48013CF
:104D8000C90241F0004141EA505EC7021100A7FB91
:104D9000020200284FF00000EEFB01204FF000015E
:104DA000E3FB072118BF42F00102401800214941EE
:104DB000E3FB0E01A4F580640F0302D252004041D0
:104DC000494154F101046CDD470872F1004250F191
:104DD000000051EB0451A1F580115CBF41EA0C01C8
:104DE000B0BD4CEA05510020B0BD05EA1357AC42F6
:104DF00014BFAF4241E050EA410E1CBF52EA430EDD
:104E000002E061460020B0BD24423C441BD15FEA71
:104E1000070EF6D0090302BF01460020AEF1140EC2
:104E2000B1FA81F7AEEB070401FA07FE0C37C7F1C0
:104E3000200100FA07F7C8404EEA000E23EA455366
:104E400043F48013A2E733F00043B3FA83F704BFBF
:104E5000B2FA82FE77440B3FE41BB7F1200E2FBF5E
:104E600002FA0EF3BB40C7F1200E22FA0EFE38BF45
:104E700043EA0E03BA40641C82E750EA410E14BFB5
:104E800052EA430E6FF000014FF4001717EB430F87
:104E90008ABF194617EB410FB5E74CEA05510020D0
:104EA000B0BDD4F10104B4F120070FDAC4F120073A
:104EB000520828BF42F0010210FA07F501FA07F77D
:104EC000E1BF2A43E0403843E1400FE0352C98DC55
:104ED000C7F1200452EA400220FA07F218BF42F05C
:104EE000010231FA07F0A1400A43002172F10042A9
:104EF00050F1000051EB0C01B0BD000070B44FF058
:104F0000004591EA030C44BF6B4000F00FB900BFAD
:104F1000841A71EB030603D2001BB14112197341CD
:104F20004FF4001C1CEB410F34BF7CEB430443E007
:104F30000C0DA4EB1356352E50DC45EAC323DB0AD7
:104F400045EAC121C912B6F120050DDD63FA05F667
:104F5000EB4086EA0305124218BF45F00105C01870
:104F600051F100010CD213E062FA06F5F24055400F
:104F7000F3415A40B340F3405A408018594107D397
:104F800049085FEA30005FEA350528BF45F00105B2
:104F900001F58011420875F1004250F1000041EB2B
:104FA000045170BC4FF4001C1CEB410F38BF70471C
:104FB0000020090D090570471CEB410F10D252EA81
:104FC00043060BD0BCEB410F05D80C0DAB43661E5E
:104FD000342EB5DD02E0AB438018594170BC7047F8
:104FE00070BC7047002840F10980F446404200F050
:104FF00005F850F000406047002800BF0AD0B0FA22
:1050000080F18840D1F19D01C905020672F100428C
:1050100041EB10207047000070B504000D00686877
:10502000A8606C60E86828612968686800F0CCF9BD
:1050300006005FF07E50296800F032FA296900F01E
:10504000C3F9310000F0A0FAE860E86870BD000024
:105050004100090E7F3915D4D1F11F0114D440004D
:1050600007D2C00140F00040C84048BF6FF0004088
:105070007047C00140F00040C8404CBF4FF00040B6
:10508000404270470020704700424FF0004058BF38
:10509000C043704730B40200FF24002000252B00DD
:1050A0009BB289B28B420BD29BB29D5CE4B2A5420B
:1050B00004D29BB29D5C2C001D0028005B1CEFE716
:1050C000C0B230BC704710B402000120002423009D
:1050D000DBB2C9B28B4202D250435B1CF8E710BC72
:1050E000704730B40200002000252B00DBB2C9B2AB
:1050F0008B420ED200252C00E4B2082C07DADBB27A
:105100009D5C254115F001052818641CF4E75B1C23
:10511000ECE730BC7047000070B44FF0004591EAF6
:10512000030F44BF6B40FFF7F3BE00BF841A71EB5F
:10513000030604D26E40001BB141121973414FF4B3
:10514000001C1CEB410F34BF7CEB430684E00C0DCC
:10515000A4EB1356362E7DDC012E43DC45EAC32337
:1051600043EA525312BFD20292025B08240545EA79
:10517000C12141EA5051D2EBC020994125D407D139
:10518000B0FA80F610FA06F164D00020203608E06C
:10519000B1FA81F6B140C6F1200220FA02F21143C1
:1051A000B0404FEAF474B4EB465434F001064FEAD1
:1051B00074040AD8D6F50016760D04F00044F040C9
:1051C00061FA06F25040F1404840C00A40EA4150BE
:1051D00021F0004128BF5FEA500550F1000044EB88
:1051E000D12137E045EAC323DB0A45EAC121C90AD8
:1051F000B6F120050EDD42EA0242120CC5F120068E
:1052000003FA06F6EB4042EA06056D42984161F169
:1052100000010DE062FA06F5F240554063FA06FC23
:1052200082EA0C02F3405A406D42904161EB030167
:1052300011F4801F05D1641E620502D06D0040414B
:10524000494121F48011430875F1004350F10000F9
:1052500041EB045170BC70471CEB410F15D223F099
:10526000004352EA43060BD04FEA4C0CBCEB410F13
:1052700004D80C0D661E342EB7DDEBE7801A994179
:1052800050EA410608BF0021E4E708BF1CEB430FCA
:1052900028BF6FF00001DDE7F8B504000D0016002F
:1052A0001F00EDB2202D02D2FFB2022F03D3242122
:1052B000384800F0ABF93848E4B250F82400EDB2B9
:1052C000F6B256F4807140F82510F00705D5F6B215
:1052D000032E02D0F6B2132E0DD13048E4B250F8AE
:1052E000240040690121A94088432C49E4B251F8C7
:1052F000241048612AE02948E4B250F824004069AB
:105300000121A94008432549E4B251F8241048611D
:10531000FFB2012F0DD12148E4B250F824000068FB
:105320000121A94008431D49E4B251F82410086046
:105330000CE01A48E4B250F8240000680121A940AA
:1053400088431649E4B251F824100860F1BD30B426
:10535000C0B2420910F01F03114C24684FF40075CD
:1053600095402C430E4D2C6031F4E0610A4CD2B2D2
:1053700054F82240DBB254F8234014F4E064214393
:10538000054CD2B254F82240DBB244F8231030BCB2
:1053900070470000EC9F00003C04FF1F2804FF1F23
:1053A0003880044000231900814209D2054B1B6854
:1053B0001A00002A02D000BF521EFAE7491CF3E788
:1053C00070470000686DFF1FFF2212EAD05C1DBF0E
:1053D00012EAD153944593422BE09C44D30780EAD0
:1053E00001021A4043EA002043EA0121A1FB0030F8
:1053F000410038BF40007CF17F010BDBFE294ADA17
:105400005B0842EAC15153EA006373F1004C51EB6F
:1054100010207047D1F1080CDCF120012FDB5B0874
:1054200010FA01F10B4373F1004120FA0CF05041E6
:10543000704794451CBF02EAD153934280EA0102AF
:1054400002F000421DD0400019D0490017D05BB9CE
:10545000634514D00902B1FA81F39940BCEB030C07
:10546000C00140F00040C1E70002B0FA80FC10FA31
:105470000CF0B3EB0C0CC90141F00041B6E7100091
:10548000704740000AD0490008D010F1807F94BFD7
:1054900011F1807F02E042F0FF407047D043704737
:1054A00090EA010F44BF81F0004100F075B800BFE1
:1054B000431A4FF000423EBF5340C01AC91800BF04
:1054C000D3095FEAD05C13EB400F34BFB3EB410F5D
:1054D00040E07CEBD1530CD342EA012122D8D1EB3E
:1054E000402009D3400A28BF5FEA500140EBCC506E
:1054F0007047401A15D04002B0FA80F2521C90401A
:10550000400A4FEA3C23B3EB026384BF00EB730015
:1055100007E040F400001A16DB07C2F10102D04098
:1055200018437047182BFCDC31FA03F202FA03F33C
:10553000591A38BF42F00102D2EB40203CBF400074
:10554000ACF1010C5FEACC5CC20572F100414CEB9E
:105550005020704713EB400F0FD24B0009D0ACEB3B
:10556000D153022B03DB4902172BDDDD704791433A
:10557000401A4300D5D10020704713EB410FD0D320
:105580006FF000007047000090EA010F44BF81F007
:105590000041FFF78DBF00BF421A3CBF801A891837
:1055A0004FF0004CC0F3C752FF2A24D0C1F3C753B9
:1055B00013B3D21AD2F1190327DD4CEA01214CFAB8
:1055C00003F321EA0303D140C20D4CEA0020401846
:1055D00034BF20EA0C004CEA5000D20553EA0063C5
:1055E00073EB0C0C52EB1020420012F1807F38BF9D
:1055F0007047C00DC0057047490212BF9A4200EBC8
:105600005120F8E7D2F11703D9D5704738B5040017
:105610000D002A002100024800F0A1FAF9E700BFBE
:10562000149E000070B504000D00160030680128BB
:1056300002D0022805D00AE02000C0B27168884775
:1056400005E0B0680470B068401CB060FFE72868EF
:10565000401C286070BD2DE9F04704005FF0000A8F
:105660005046A1465FF0000A89F800A019F101092F
:10567000002A1FD0D1F800A05546002D05D15FF0BB
:10568000300A89F800A0401C38E0002D36D095FB88
:10569000F3FA564603FB165A5746002F02D5FF432E
:1056A000313700E03037350089F8007019F1010911
:1056B000401CEAE7D1F800A0D446BCF1000F05D1A8
:1056C0005FF0300A89F800A0401C17E0BCF1000F21
:1056D00014D0BCFBF3FAD64603FB1ECAD046B8F181
:1056E0000A0F02D218F1300801E018F13708F44629
:1056F00089F8008019F10109401CE7E7BDE8F0874F
:105700002DE9F04104000D0016001F00A046A84539
:1057100007DA3A0031003020FFF784FF18F1010862
:10572000F5E7BDE8F0812DE9F04104000D00160019
:105730001F00A046A84507DA3A0031002020FFF7F5
:1057400071FF18F10108F5E7BDE8F0812DE9F24F8E
:1057500092B00400150000200090129883469BF838
:10576000000001900198002800F0F581019825289B
:1057700013D001980A2805D0220000A90198FFF74C
:1057800051FF09E0220000A90D20FFF74BFF220086
:1057900000A90A20FFF746FFDAE100208146002039
:1057A00004900498002822D11BF1010B9BF8000003
:1057B00020280ED0232812D02B2807D02D2802D045
:1057C000302809D00EE059F00109EAE759F0020942
:1057D000E7E759F00409E4E759F00809E1E759F06F
:1057E0001009DEE7BBF1010B01200490D9E700208E
:1057F0008246002004900498002814D11BF1010B6C
:105800009BF80000019001983038092806D80A203A
:10581000019900FB0A10B0F1300AECE7BBF1010B73
:1058200001200490E7E71BF1010B9BF800002E28F4
:1058300011D100200490049800280ED11BF1010B17
:105840009BF800003038092800D8F4E7BBF1010BC1
:1058500001200490EFE7BBF1010B1BF1010B9BF85A
:1058600000004C2806D0682802D06C2801D002E045
:1058700003E002E001E0BBF1010B1BF1010B9BF81F
:10588000000001900198582875D0622800F0D5805A
:10589000632800F01D81642813D0692811D06E2878
:1058A00000F04A816F2800F0BD80702800F0D080A1
:1058B000732800F01781752800F0D58078285AD019
:1058C00041E128682D1D06900A23012206A909A896
:1058D000FFF7C1FE070009A838180600069800283F
:1058E00003D52D2003907F1C0FE05FEA897003D55C
:1058F0002B2003907F1C08E05FEA497003D520202D
:1059000003907F1C01E000200390002005905FEAD7
:10591000097011D50398002804D0220000A903982B
:10592000FFF780FE01200590230000AA51463800B1
:10593000FFF7E6FE574612E05FEAC9700FD4230076
:1059400000AA51463800FFF7EEFE0398002804D065
:10595000220000A90398FFF765FE01200590059835
:10596000002807D10398002804D0220000A903983A
:10597000FFF758FE98E028682D1D029010230022A2
:1059800002A909A8FFF767FE070009A83818060052
:10599000002005905FEA097016D55FEAC9600BD553
:1059A000220000A93020FFF73DFE220000A9782048
:1059B000FFF738FE01200590230000AA5146380069
:1059C000FFF79EFE57461BE05FEAC97018D45FEAF6
:1059D000C96000D5BF1C230000AA51463800FFF75C
:1059E000A2FE5FEAC9600BD5220000A93020FFF7B4
:1059F00019FE220000A97820FFF714FE012005906F
:105A00005FEAC9600DD5059800280AD1220000A9D7
:105A10003020FFF707FE220000A97820FFF702FEE2
:105A2000BF1C41E028682D1D02900823002202A916
:105A300009A8FFF710FE07001FE028682D1D02903F
:105A40000223002202A909A8FFF705FE070014E0BF
:105A500028682D1D02901023002202A909A8FFF733
:105A6000FAFD070009E028682D1D02900A23002294
:105A700002A909A8FFF7EFFD070009A838180600DA
:105A80005FEA097007D5230000AA51463800FFF7E6
:105A900037FE574608E05FEAC97005D4230000AA24
:105AA00051463800FFF73FFE3078002806D022002C
:105AB00000A93078FFF7B6FD761EF5E75FEAC970FA
:105AC00005D5230000AA51463800FFF72CFE3FE021
:105AD00028682D1DC0B20790220000A90798FFF783
:105AE000A1FD35E028682D1D8046B8F1000F22D0B9
:105AF000404600F049F807005FEAC97005D423006A
:105B000000AA51463800FFF70EFE98F80000002862
:105B100008D0220000A998F80000FFF783FD18F1D3
:105B20000108F2E75FEAC97005D5230000AA5146D3
:105B30003800FFF7F8FD0BE028682D1D089000984D
:105B40000899086004E0220000A90198FFF76AFDA7
:105B50001BF1010B03E6009813B0BDE8F08F0EB403
:105B60007EB50400012000900648019007A80500BA
:105B70002A00210000A8FFF7E9FD060030007EBCE6
:105B80005DF810FBF9A4000001000A000023002AC0
:105B900001D1002007E01000421C0078002801D04D
:105BA0005B1CF8E71800704700B0034000B00B40E2
:105BB00000001400008003400090034000800B4070
:105BC00000F00F4040F00F4080F00F40C0F00F4059
:105BD00000F10F400090044000A0044000B00440D9
:105BE00000C0044000D00440CDCC4C3F0000000079
:105BF00000000000000000000000000055A5F500B6
:105C00000000000000000000000000000000000094
:105C10000000000000000000000000000000000084
:105C2000000000000000000000000000000053968B
:105C300000000000000000000000000089000000DB
:105C40002003000000000000000000000000000031
:105C50000000000000000000A4060000000000009A
:105C600000000000B400000001000000000000007F
:105C70000000000000000000000000000000000024
:105C80000000000000000000000000000000000014
:105C90000000000000000000000000000000000004
:105CA00000000000000000000000000000000000F4
:105CB00000000000000000000000000000000000E4
:105CC00000000000000000000000000000000000D4
:105CD00000000000000000000000000000000000C4
:105CE00000000000000000000000000000000000B4
