:10000000F8FF00201104000089870000734C0000F5
:1000100089870000898700008987000089870000A0
:100020008987000089870000898700008987000090
:100030008987000089870000714C0000754C000022
:10004000154C00008987000089870000898700001F
:100050008987000089870000898700008987000060
:100060008987000089870000898700008987000050
:100070008987000089870000898700008987000040
:100080008987000089870000898700008987000030
:100090008987000089870000898700008987000020
:1000A0008987000089870000898700008987000010
:1000B0008987000089870000898700008987000000
:1000C00089870000898700008987000089870000F0
:1000D00089870000898700008987000089870000E0
:1000E00089870000898700008987000089870000D0
:1000F000898700008987000089870000774C00000D
:1001000089870000794C0000898700007B4C000043
:100110008987000089870000898700007D4C0000E6
:10012000898700008987000089870000898700008F
:1001300089870000898700003F5300004153000079
:1001400043530000898700008987000089870000E9
:10015000C34F000089870000D7510000C95100003B
:10016000898700008987000089870000898700004F
:10017000898700008987000089870000898700003F
:10018000898700008987000089870000898700002F
:10019000898700008987000089870000E7510000F7
:1001A0002F520000E5510000414B00003D5300007C
:1001B00089870000898700008987000089870000FF
:1001C00089870000898700008987000089870000EF
:1001D00089870000898700008987000089870000DF
:1001E00089870000898700008987000089870000CF
:10040000FFFFFFFFFFFFFFFFFFFFFFFFFEFFFFFFFD
:1004100062B64FF000004FF000014FF000024FF0C5
:1004200000034FF000044FF000054FF000064FF0BE
:1004300000074FF000084FF000094FF0000A4FF09E
:10044000000B4FF0000C06F0BBF9FEE700B583B0DF
:100450000020DFF8AC1908700020DFF8A81981F837
:10046000100E00F00EFBDFF8A0090079412804DA35
:100470000120DFF89819087003E00020DFF88C19DC
:10048000087000F05FFD0020DFF884190870DFF8C5
:1004900084090078002844D10120DFF8741908701D
:1004A0006921DFF87409006800F58050683000F0B9
:1004B0004DF9DFF8500990F8100E401DDFF848198B
:1004C000C978884223DADFF83C0990F8100E401D05
:1004D000DFF834190979884219DADFF8280990F829
:1004E000100E401DDFF82019497988420FDADFF835
:1004F00018090079C11CDFF820090068DFF8082915
:100500001279282303FB0200783000F01FF9DFF88E
:10051000F408DFF8F01891F8101E50F8210000F0F0
:1005200018FCDFF8F8080078012840F0F0804FF65A
:10053000FF7001904FF478400090DFF8C808DFF8B2
:10054000C41891F8101E50F82130DFF8D428642127
:10055000FA2002F0A9F94FF6FF7001904FF47840AD
:100560000090DFF8A008DFF89C1891F8101E08181A
:1005700090F8C033DFF8AC287821FA2002F094F923
:100580004FF6FF7001904FF478400090DFF8740848
:10059000DFF8701891F8101E081890F8303C5EA231
:1005A0008C21FA2002F080F94FF6FF7001904FF491
:1005B00078400090DFF84C08DFF8481891F8101EDA
:1005C00010EB8100D0F8B03454A2A021FA2002F040
:1005D0006BF94FF6FF7001904FF478400090DFF810
:1005E0002408DFF8201891F8101E081890F8203D14
:1005F0004BA2B421FA2002F057F94FF6FF70019098
:100600004FF478400090DFF8FC07DFF8F81791F816
:10061000101E10EB8100D0F8703842A2C821FA20D9
:1006200002F042F9DFF8EC07007800280CD002282D
:1006300020D014D3042833D027D3062846D03AD369
:10064000082859D04DD362E04FF6FF7000904FF468
:10065000784335A2DC21FA2002F052F857E04FF639
:10066000FF7000904FF4784330A2DC21FA2002F0B2
:1006700047F84CE04FF6FF7000904FF478432CA2FF
:10068000DC21FA2002F03CF841E04FF6FF700090C8
:100690004FF4784327A2DC21FA2002F031F836E04B
:1006A0004FF6FF7000904FF4784323A2DC21FA202C
:1006B00002F026F82BE04FF6FF7000904FF47843DD
:1006C0001EA2DC21FA2002F01BF820E04FF6FF709A
:1006D00000904FF478431AA2DC21FA2002F010F8BF
:1006E00015E04FF6FF7000904FF4784315A2DC211F
:1006F000FA2002F005F80AE04FF6FF7000904FF480
:10070000784311A2DC21FA2001F0FAFFFFE7002074
:10071000DFF81417087007BD4C0000004C5F56004E
:1007200052000000525F56004E0000004C70000066
:10073000527000004C690000526900004C6F0000CC
:10074000526F00004C570000525700002DE9F14F46
:1007500088B00C005FF0A0080A2006904FF49B7050
:100760000590002700265FF0000B5FF0000A5FF0A5
:10077000640900208DF808000025DFF8B006007835
:10078000002807D1DFF8A4060078401CDFF89C168B
:10079000087011E0DFF86C0650F82400DFF86816E6
:1007A00049784018022190FBF1F08046DFF85406AA
:1007B000201890F8C003814600200500282D12DA89
:1007C000002008280DDA0899695CD0F10702114170
:1007D00011F00101DFF8582610EBC5039954401CB5
:1007E000EFE76D1CEAE74646DFF844063018C078AC
:1007F00001280BD1DFF8380630188078012805D1A0
:10080000DFF82C0630184078012804D0059886427D
:1008100001DA761CE8E70598864209DA0496012099
:10082000DFF8E015611881F8200D0120824607E00D
:10083000002082460020DFF8CC15611881F8200DD9
:100840004746DFF8EC05381810F8030C01280DD1E5
:10085000DFF8DC05381810F8020C012806D1DFF8A3
:10086000D005381810F8010C012804D00698B842B9
:1008700001DA7F1EE5E70698B84209DA03970120FE
:10088000DFF88015611881F8300C0120834607E0FD
:10089000002083460020DFF86C15611881F8300CC9
:1008A000474501D0464513D1002082460020DFF89D
:1008B0005415611881F8200D002083460020DFF8D0
:1008C0004415611881F8300C01208DF8080002E011
:1008D00000208DF808009DF80800012819D1D22CBD
:1008E00017DADFF8200510EB8400C0F80C8019F14E
:1008F0000800DFF81015611881F8C303E11CDFF868
:1009000018050068282202FB04007830FFF71EFF5C
:100910004CE05AEA0B00002848D0BBF1010F0BD085
:10092000BAF1010F08D10498B0EB09008046049891
:10093000B0EB4900039039E0BBF1010F0BD1BAF1E4
:10094000010F08D0039819EB00008046039810EBC4
:10095000490004902AE0BBF1010F27D1BAF1010F41
:1009600024D104980399401A02F0F0F900225FF0B4
:10097000804302F001FA02F023FB8146B9F1640FD3
:1009800002DA6420814604E0B9F18D0F01DB8C208E
:10099000814604980399081802F0D8F900225FF004
:1009A000804302F0E9F902F00BFB8046B8F1230F17
:1009B00002DA2320804605E0B8F58F7F02DB40F2A3
:1009C0001D108046404602F0C1F9CDE90001B4F1A6
:1009D00069000021484302F0B9F90022DFF85434DD
:1009E00002F014FB0022DFF8503402F0C5F90022B7
:1009F000DFF8483402F0DCFBDDE9002302F0D8FB2D
:100A000002F0DEFADFF8FC1341F82400DFF8F4030B
:100A100090F8100EA04203DADFF8E80380F8104ED9
:100A20000398B0F5A07F03DB40F23F10039004E091
:100A30000398002801D5002003900398DFF8C41321
:100A400011EB8401C1F8B0040498B0F5A07F03DB7A
:100A500040F23F10049004E00498002801D50020E3
:100A600004900498DFF89C1311EB8401C1F870081E
:100A7000DFF89003201880F8C093002009B0BDE88B
:100A8000F08F2DE9F043DFF880030078DFF878136A
:100A90004978DFF8742392780023002400255FF062
:100AA000EF0E764680B25FF0080E90FBFEFEDFF898
:100AB0006883D8F80080F6B25FF0280909FB068841
:100AC0001EF808E080B25FF0080890FBF8F909FB17
:100AD0001809D9F107085EFA08FE5FEACE7E3FD515
:100AE00080B25FF0080E90FBFEFEDFF82C83D8F892
:100AF0000080F6B25FF0280909FB06881EEB080E9D
:100B00001EF828EC80B25FF0080890FBF8F909FBAA
:100B10001809D9F107085EFA08FE5FEACE7E1FD5F4
:100B200080B25FF0080E90FBFEFEDFF8EC82D8F892
:100B30000080F6B25FF0280909FB06881EEB080E5C
:100B40001EF850EC80B25FF0080890FBF8F909FB42
:100B50001809D9F107085EFA08FE5FEACE7E04D4D0
:100B6000F6B2022E01DB761E9CE7F6B2EF2E02D023
:100B70005FF0010E7346DFF890E28EF803605FF0DD
:100B8000EF0E774689B25FF0080E91FBFEFEDFF8AC
:100B90008882D8F80080FFB25FF0280909FB078837
:100BA0001EF808E089B25FF0080891FBF8F909FB2C
:100BB0001819D9F107085EFA08FE5FEACE7E3FD524
:100BC00089B25FF0080E91FBFEFEDFF84C82D8F888
:100BD0000080FFB25FF0280909FB07881EEB080EB2
:100BE0001EF828EC89B25FF0080891FBF8F909FBC0
:100BF0001819D9F107085EFA08FE5FEACE7E1FD504
:100C000089B25FF0080E91FBFEFEDFF80C82D8F887
:100C10000080FFB25FF0280909FB07881EEB080E71
:100C20001EF850EC89B25FF0080891FBF8F909FB57
:100C30001819D9F107085EFA08FE5FEACE7E04D4DF
:100C4000FFB2022F01DB7F1E9CE7FFB2EF2F02D025
:100C50005FF0010E7546DFF8B0E18EF804705FF0CA
:100C6000EF0EF44692B25FF0080E92FBFEFEDFF844
:100C7000A881D8F800805FFA8CFC5FF0280909FB96
:100C80000C881EF808E092B25FF0080892FBF8F9B1
:100C900009FB1829D9F107085EFA08FE5FEACE7E43
:100CA00041D592B25FF0080E92FBFEFEDFF868813C
:100CB000D8F800805FFA8CFC5FF0280909FB0C88EB
:100CC0001EEB080E1EF828EC92B25FF0080892FBAB
:100CD000F8F909FB1829D9F107085EFA08FE5FEA5E
:100CE000CE7E20D592B25FF0080E92FBFEFEDFF8BA
:100CF0002881D8F800805FFA8CFC5FF0280909FB96
:100D00000C881EEB080E1EF850EC92B25FF008083B
:100D100092FBF8F909FB1829D9F107085EFA08FED9
:100D20005FEACE7E07D45FFA8CFCBCF1020F02DBD7
:100D3000BCF1010C96E75FFA8CFCBCF1EF0F02D01E
:100D40005FF0010E7446DFF8C0E08EF805C0BDE824
:100D5000F08370B504002A480078012801D10020F2
:100D600022E0DFF8DC100E00200002F095FA3100DE
:100D700002F0ACFA02F0C6FA050001202049087022
:100D800024480078012803D022480078022805D1A1
:100D9000D5F1A000DFF8AC10086004E0D4F1A000A9
:100DA000DFF8A0100860002070BD38B500250020D5
:100DB0000400E4B2052C13DA282117480068E4B2D5
:100DC000052202FB04F2282303FB020000F58050F9
:100DD000683002F0E0FA062800DA6D1C641CE8E7CF
:100DE000EDB2022D09DB0848C078782803DB0648FD
:100DF0004079782801DA012000E0002032BD0000AF
:100E00005C6DFF1F9412FF1F6404FF1F5D6DFF1FC9
:100E1000656DFF1F6C04FF1F2C6DFF1F3910FF1F36
:100E20003087000038870000686DFF1F5E6DFF1F70
:100E30005411FF1F0000F03F000034C000001040BC
:100E40005004FF1F9421FF1F30B585B0002005001E
:100E5000EDB2142D6BDAB4200400EDB20A2000FBD1
:100E600005F04130082190FBF1F0DFF8D41009685B
:100E7000E4B2282202FB0411405CEDB20A2101FB1E
:100E800005F14131082291FBF2F303FB1213D3F178
:100E900007010841C00740D5EDB20A2000FB05F06C
:100EA0004130082190FBF1F0DFF894100968E4B2BA
:100EB000282202FB0411401810F8280CEDB20A2178
:100EC00001FB05F14131082291FBF2F303FB121300
:100ED000D3F107010841C0071FD5EDB20A2000FB7E
:100EE00005F04130082190FBF1F015490968E4B2A2
:100EF000282202FB0411401810F8500CEDB20A2110
:100F000001FB05F14131082291FBF2F303FB1213BF
:100F1000D3F107010841C00704D4E4B20A2C01DB75
:100F2000641E9AE700A8EDB22C546D1C90E71421C2
:100F300000A802F009FA0A214843413005B030BD4B
:100F40002C6DFF1F80B516480078002801D00120C5
:100F50000AE00020DFF8481D087000F006F800F0F5
:100F600021F801F035F8002002BD10B50024DFF8AB
:100F7000300D0078032809D0DFF8240D007804280C
:100F800004D0DFF81C0D0078052801D1012005E010
:100F900000F098FE00F012FA0400002010BD0000DE
:100FA0006C04FF1F2DE9F04383B0DFF8F40C0078E8
:100FB000032806D0DFF8E80C0078042801D00120CF
:100FC000F3E100A901A800F0D9FC0600DFF8D00C7D
:100FD0000078032840F0F680300001F0B7FE80462C
:100FE00089460098693800FB06F001F0AFFE002248
:100FF000DFF8B03C02F00AF804000D0000980199F7
:10100000401A01F0A3FE02000B002000290001F0AD
:10101000B3FE02000B004046494602F0D7F9002219
:10102000DFF8843C02F0C4F800225FF0804301F056
:10103000A3FE0022DFF8743C02F0BAF801F0C0FF12
:101040000700DFF8740340781E30B8424ADAB7F57B
:101050008F7F02DB40F21D1007003800FFF779FE9A
:10106000DFF84C0C00780A2803DB0020DFF8401C76
:101070000870DFF82C0C4068DFF8381CDFF8302CE3
:10108000127831F81210401ADFF8141C4860DFF8AB
:10109000240CDFF81C1C097820F81170DFF8000C14
:1010A0004068DFF8101CDFF8082C127831F81210B5
:1010B00010FA81F0DFF8E81B4860DFF8F40B0078E5
:1010C000401CDFF8EC1B0870DFF8EC0B00780128FF
:1010D00040F06A8147F6FF726921380080B201F062
:1010E0000AFE61E1B4480079B349C9780A398842F7
:1010F00006DBB1484079B04909790A39884246DAB5
:101100006921AB48006800F580506830FFF71EFB8E
:10111000A84890F8100E401DA749C97888421CDAEB
:10112000A44890F8100E401DA3490979884214DAAA
:10113000A04890F8100E401D9F49497988420CDA6A
:101140009D480079C11C9A4800689B4A127928235F
:1011500003FB02007830FFF7F9FA9648954991F8B9
:10116000101E50F82100AB2808DB9248914991F8F5
:10117000101E50F82100FFF7ECFD15E1DFF8200B01
:1011800040680A2190FBF1F0FFF7E3FD0CE1DFF886
:10119000100B40680A2190FBF1F0FFF7DAFDDFF851
:1011A000180B0078012840F0FF804FF61F026921DC
:1011B000DFF8EC0A40680A2390FBF3F080B201F0FC
:1011C0009AFDF1E0DFF8D80A0078042840F0EC80BE
:1011D000300001F0BBFD80468946A6F23F10009921
:1011E0006939484301F0B2FD0022DFF8B83A01F056
:1011F0000DFF04000D0000980199401A01F0A6FDB2
:1012000002000B002000290001F0B6FD02000B00D7
:101210004046494602F0DAF800225FF0804301F0D0
:10122000ABFD0022DFF8943A01F0C2FF01F0C8FEE6
:101230000700614840781E38874247DA232F01DAD9
:10124000232007003800FFF784FDDFF8640A0078E8
:101250000A2803DB0020DFF8581A0870DFF8400A7C
:101260004068DFF8501ADFF8482A127831F8121077
:10127000401ADFF82C1A4860DFF8380ADFF8301A15
:10128000097820F81170DFF8180A4068DFF8241A8E
:10129000DFF81C2A127831F8121010FA81F0DFF80A
:1012A000001A4860DFF8080A0078401CDFF8001ACE
:1012B0000870DFF8040A0078012875D147F6FF723C
:1012C0006921380080B201F016FD6DE03A480079DE
:1012D000394949790A39884206DB3748C0783649A6
:1012E00009790A39884246DA69213148006800F5EF
:1012F00080506830FFF72AFA2E4890F8100E401DF3
:101300002D49C97888421CDA2A4890F8100E401DF1
:1013100029490979884214DA264890F8100E401DB0
:101320002549497988420CDA23480079C11C2048B4
:101330000068214A1279282303FB02007830FFF766
:1013400005FA1C481B4991F8101E50F821009628F8
:1013500008DA1848174991F8101E50F82100FFF7D5
:10136000F8FC21E0DFF8380940680A2190FBF1F031
:10137000FFF7EFFC18E0DFF8280940680A2190FB2E
:10138000F1F0FFF7E6FCDFF83009007801280BD117
:101390004FF61F026921DFF8080940680A2390FB15
:1013A000F3F080B201F0A7FC0020BDE8FE8300004E
:1013B0002C6DFF1F9412FF1F6404FF1F2DE9F04FD7
:1013C000ADF5B56D0A2004904FF49B700390002199
:1013D00000220023002400208DF80B0000208DF84F
:1013E0000A0000208DF8070000208DF8060000207C
:1013F0008DF8050000208DF8040000250026002748
:101400005FF0000C5FF0000E8DF809E05FF0000E59
:101410008DF808E05FF0000ECDF818E05FF0000EE8
:10142000CDF814E05FF0000E5FF000080020864663
:101430005FFA8EFEBEF13C0F80F2A080DFF88008DC
:101440000068DFF85C9899F808905FFA8EFEB9EBB7
:101450004E095FF0280A0AFB0909CDF81C9000200C
:1014600080465FFA88F8B8F1280F22DA0020C0B26F
:1014700008281BDADFF800A55FFA88F85FEAC809D8
:1014800059FA80F9CDF800A0DDF81CA05FFA88F8C1
:1014900018F80AB0D0F1070A5BFA0AFA1AF0010A42
:1014A000DDF800B009F80BA0401CE0E718F10108D6
:1014B000D7E7DFF8EC070078022829D123200200C3
:1014C000DFF8B4041018C07801280BD1DFF8A804A5
:1014D00010188078012805D1DFF89C041018407896
:1014E000012804D00398824201DA521CE8E70398ED
:1014F000824205DAF2A85FFA8EFE40F82E203AE02A
:1015000003980DF572795FFA8EFE49F82E0032E0ED
:10151000DFF88C07007801282DD140F21D10010062
:10152000DFF85404081810F8030C01280DD1DFF877
:101530004804081810F8020C012806D1DFF8380416
:10154000081810F8010C012804D00498884201DA28
:10155000491EE5E70498884206DA0DF597605FFAC0
:101560008EFE40F82E1006E004980DF597695FFA9C
:101570008EFE49F82E001EF1010E59E7DFF8200714
:10158000007802287BD1002086465FFA8EFEBEF1ED
:101590003B0F26DAF2A85FFA8EFE10EB8E00406851
:1015A0000DF572795FFA8EFE59F82E90B0EB0900B6
:1015B0000DF5F8795FFA8EFE49F82E007CA85FFAE7
:1015C0008EFE50F82E0010F1640F07DA5FF001096B
:1015D0008DF808905FFA8EFECDF814E01EF1010E32
:1015E000D3E7002086465FFA8EFEBEF13B0F80F205
:1015F000C4809DF80600002808D17CA85FFA8EFE02
:1016000050F82E00012801DA761C35E09DF806001E
:10161000002824D15FFA8EFEBEF1320F1FDA7CA8BB
:101620005FFA8EFE50F82E00012818DB7CA85FFAC6
:101630008EFE10EB8E004068012810DB7CA85FFA5C
:101640008EFE10EB8E008068012808DB5FF0010938
:101650008DF806901CF1010C8DF804E00CE09DF86B
:101660000600012808D17CA85FFA8EFE50F82E00F3
:10167000012801DB1CF1010C1EF1010EB3E7DFF8BC
:1016800020060078012878D1002086465FFA8EFE79
:10169000BEF13B0F26DA0DF597605FFA8EFE10EB78
:1016A0008E0040680DF597695FFA8EFE59F82E900E
:1016B000B0EB09000DF537795FFA8EFE49F82E0080
:1016C000B7A85FFA8EFE50F82E00652807DB5FF0A2
:1016D00001098DF809905FFA8EFECDF818E01EF131
:1016E000010ED3E7002086465FFA8EFEBEF13B0F67
:1016F00043DA9DF80700002808D1B7A85FFA8EFEEC
:1017000050F82E00002801D46D1C33E09DF807002E
:10171000002823D15FFA8EFEBEF1320F1EDAB7A881
:101720005FFA8EFE50F82E00002817D5B7A85FFA92
:101730008EFE10EB8E00406800280FD5B7A85FFA28
:101740008EFE10EB8E008068002807D55FF001093F
:101750008DF807907F1C8DF805E00BE09DF80700E1
:10176000012807D1B7A85FFA8EFE50F82E00002896
:1017700000D57F1C1EF1010EB6E7DFF824050078C6
:10178000022842D1002086469DF804005FFA8EFEB2
:1017900086452CD27CA85FFA8EFE10EB8E00406846
:1017A0000DF5F8795FFA8EFE59F82E90B0EB09002E
:1017B0000DF120095FFA8EFE49F82E0008A85FFAA5
:1017C0008EFE50F82E00012805DB08A85FFA8EFE79
:1017D00050F82E0005E008A85FFA8EFE50F82E00A3
:1017E0004042032800DA641C1EF1010ECCE79DF88C
:1017F000040040005FF0030990FBF9F0A0424BDACF
:101800005FF001098DF80A9046E0DFF89404007853
:10181000012841D1002086469DF805005FFA8EFE22
:1018200086452CD2B7A85FFA8EFE10EB8E0040687A
:101830000DF537795FFA8EFE59F82E90B0EB09005E
:101840000DF584795FFA8EFE49F82E0042A85FFA02
:101850008EFE50F82E00012805DB42A85FFA8EFEAE
:1018600050F82E0005E042A85FFA8EFE50F82E00D8
:101870004042032800DA5B1C1EF1010ECCE79DF804
:10188000050040005FF0030990FBF9F0984203DA8D
:101890005FF001098DF80B90DFF80404007802284E
:1018A0002FD19DF80A00002860D09DF8060000287E
:1018B0005CD09DF80400062858DB9DF80400400029
:1018C0005FF0030990FBF9F0B0424FDA9DF8040095
:1018D0002D284BDA9DF80800002847D005989DF880
:1018E0000490B0EB090040005FF0030990FBF9F0B1
:1018F00060453BDA0420DFF8A89389F80000012056
:1019000035E0DFF89C03007801282FD19DF80B000B
:1019100000282BD09DF80700002827D09DF805004F
:10192000062823DB9DF8050040005FF0030990FBCB
:10193000F9F0A8421ADA9DF805002D2816DA9DF86C
:101940000900002812D006989DF80590B0EB090018
:1019500040005FF0030990FBF9F0B84206DA03207B
:10196000DFF83C9389F80000012000E000200DF52D
:10197000B56DBDE8F08F00005411FF1FF0B5B6B093
:1019800002000023A020C64E3678032E40F0B2801D
:1019900000263500EDB2192D60DAEF263400EDB2E5
:1019A000AE00082796FBF7F6DFF8BC763F68E4B296
:1019B0005FF0280C0CFB0477F65DEDB2AF005FF032
:1019C000080C97FBFCFE0EFB1C7EDEF107073E4178
:1019D000F60739D5EDB2AE00082796FBF7F6DFF82B
:1019E00088763F68E4B25FF0280C0CFB0477F619A8
:1019F00016F8286CEDB2AF005FF0080C97FBFCFE08
:101A00000EFB1C7EDEF107073E41F6071CD5EDB24A
:101A1000AE00082796FBF7F6DFF84C763F68E4B295
:101A20005FF0280C0CFB0477F61916F8506CEDB239
:101A3000AF005FF0080C97FBFCFE0EFB1C7EDEF196
:101A400007073E41F60704D4E4B20A2C01DB641E0A
:101A5000A5E700AEEDB2AC556D1C9BE70026350046
:101A6000EDB2182D0DDA00AEEDB2AE19767800AFFA
:101A7000EDB2EF5DF61B1EAFEDB247F825606D1CB1
:101A8000EEE700263500EDB2172D2FDA1EAEEDB2CF
:101A900016EB850676681EAFEDB257F82570F61B7B
:101AA00007AFEDB247F8256007AEEDB256F82560F6
:101AB000012E04DB07AEEDB256F8256004E007AE58
:101AC000EDB256F825607642032E00DA5B1C07AEB5
:101AD000EDB256F8256016F10F0F05DAEDB2AE1E25
:101AE0009E4201DA022B01DA6D1CCCE7EDB2AE00AA
:101AF0003000CAE06A4E3678042E40F0C6800026D8
:101B00003500EDB2192D72DAEF26340040F23F169F
:101B1000EDB2B6EB8506082796FBF7F6DFF84875B9
:101B20003F68E4B25FF0280C0CFB0477F65D40F2EE
:101B30003F17EDB2B7EB85075FF0080C97FBFCFE93
:101B40000EFB1C7EDEF107073E41F60745D540F24D
:101B50003F16EDB2B6EB8506082796FBF7F6DFF8E1
:101B600008753F68E4B25FF0280C0CFB0477F619A7
:101B700016F8286C40F23F17EDB2B7EB85075FF01F
:101B8000080C97FBFCFE0EFB1C7EDEF107073E41B6
:101B9000F60722D540F23F16EDB2B6EB85060827D0
:101BA00096FBF7F6DFF8C0743F68E4B25FF0280CEC
:101BB0000CFB0477F61916F8506C40F23F17EDB2A3
:101BC000B7EB85075FF0080C97FBFCFE0EFB1C7E55
:101BD000DEF107073E41F60704D4E4B20A2C01DB2C
:101BE000641E93E700AEEDB2AC556D1C89E700268C
:101BF0003500EDB2182D0DDA00AEEDB2AE197678E3
:101C000000AFEDB2EF5DF61B1EAFEDB247F82560F9
:101C10006D1CEEE700263500EDB2172D2FDA1EAE53
:101C2000EDB216EB850676681EAFEDB257F825705B
:101C3000F61B07AFEDB247F8256007AEEDB256F8D8
:101C40002560012E04DB07AEEDB256F8256004E0F6
:101C500007AEEDB256F825607642032E00DA5B1C23
:101C600007AEEDB256F8256016F10F0F05DAEDB2AA
:101C7000AE1E9E4201DA022B01DA6D1CCCE740F267
:101C80003F16EDB2B6EB850630009DF80060166099
:101C900000AEEDB2AE5D0E60C0B236B0F0BD000079
:101CA000B404FF1F0000F03F00F073400000244028
:101CB0005F6DFF1FA820FF1F3910FF1F000024C009
:101CC0002C6DFF1FF0B4B6B00023002400200200EA
:101CD000D2B20A2A80F2D780EF200100D2B20320CC
:101CE00000FB02F0082590FBF5F0DFF87C532D682F
:101CF000C9B2282606FB0155405DD2B2032505FB7B
:101D000002F5082695FBF6F707FB1657D7F10705EE
:101D10002841C0073BD5D2B2032000FB02F00825C2
:101D200090FBF5F0D04D2D68C9B2282606FB015571
:101D3000401910F8280CD2B2032505FB02F508263D
:101D400095FBF6F707FB1657D7F107052841C007A3
:101D50001DD5D2B2032000FB02F0082590FBF5F060
:101D6000C14D2D68C9B2282606FB0155401910F84F
:101D7000500CD2B2032505FB02F5082695FBF6F7B9
:101D800007FB1657D7F107052841C00704D4C9B28D
:101D9000822901DB491EA1E7C9B22CA8D2B240F8C2
:101DA0002210EF20010040F23F10D2B2032505FBC4
:101DB0001200082590FBF5F0AB4D2D68C9B228261E
:101DC00006FB0155405D40F23F15D2B2032606FBEB
:101DD0001255082695FBF6F707FB1657D7F10705AE
:101DE0002841C00743D540F23F10D2B2032505FB7E
:101DF0001200082590FBF5F09B4D2D68C9B22826EE
:101E000006FB0155401910F8280C40F23F15D2B2DC
:101E1000032606FB1255082695FBF6F707FB165717
:101E2000D7F107052841C00721D540F23F10D2B2B3
:101E3000032505FB1200082590FBF5F08A4D2D685F
:101E4000C9B2282606FB0155401910F8500C40F283
:101E50003F15D2B2032606FB1255082695FBF6F76E
:101E600007FB1657D7F107052841C00704D4C9B2AC
:101E7000822901DB491E96E7C9B222A8D2B240F8F6
:101E80002210521C24E700200200D2B2092A1DDAD7
:101E90002CA8D2B210EB820040682CADD2B255F81B
:101EA0002250401B19ADD2B245F8220022A8D2B26E
:101EB00010EB8200406822ADD2B255F82250401B90
:101EC00010ADD2B245F82200521CDEE7002002001D
:101ED000D2B2082A67DA19A8D2B210EB82004068A1
:101EE00019ADD2B255F82250401B08ADD2B245F818
:101EF000220010A8D2B210EB8200406810ADD2B21E
:101F000055F82250401B00ADD2B245F8220008A877
:101F1000D2B250F82200012804DB08A8D2B250F84F
:101F2000220004E008A8D2B250F822004042032860
:101F300012DA19A8D2B250F82200012804DB19A83D
:101F4000D2B250F8220004E019A8D2B250F8220010
:101F50004042012800DB5B1C00A8D2B250F82200EE
:101F6000012804DB00A8D2B250F8220004E000A847
:101F7000D2B250F822004042032812DA10A8D2B29E
:101F800050F82200012804DB10A8D2B250F8220039
:101F900004E010A8D2B250F822004042012800DB31
:101FA000641C521C94E7052B03DB052C01DB01208C
:101FB0000BE0052B03DB01202C4D287004E0052CE1
:101FC00002DB0220294D2870002036B0F0BC70479B
:101FD00010B526480078042803D024480078032848
:101FE00001D101203EE0FEF7E0FE012839D1FEF7E5
:101FF0002BFF04001F48C0F8544155211A480068BF
:1020000000F64850FEF7A2FB1A4890F8100E401D4B
:102010001749C97888421CDA164890F8100E401DFE
:1020200013490979884214DA124890F8100E401DBD
:102030000F49497988420CDA0D480079C11C0A48D9
:1020400000680B4A1279282303FB02007830FEF760
:102050007DFB0848074991F8101E50F82100FEF753
:1020600078FE002010BD00002C6DFF1FB404FF1F80
:102070006404FF1F9412FF1F80B5012301220C216D
:10208000042001F063FA012301220B21042001F056
:102090005DFA012301220A21042001F057FA0123ED
:1020A00001220921042001F051FA01BD10B50400FC
:1020B000FFF7E2FFDFF8EC07006830F40060DFF8BC
:1020C000E4170860142001F0C7FADFF8D8070068A9
:1020D00050F40060DFF8CC170860142001F0BCFA5F
:1020E000CB2000F001F9392000F0DDF92C2000F0C0
:1020F000DAF9002000F0D7F9342000F0D4F90220FA
:1021000000F0D1F9CF2000F0EFF8002000F0CBF97B
:10211000C12000F0C8F9302000F0C5F9E82000F037
:10212000E3F8852000F0BFF9002000F0BCF978202A
:1021300000F0B9F9EA2000F0D7F8002000F0B3F978
:10214000002000F0B0F9ED2000F0CEF8642000F09F
:10215000AAF9032000F0A7F9122000F0A4F98120C9
:1021600000F0A1F9F72000F0BFF8202000F09BF963
:10217000C02000F0B9F8232000F095F9C12000F04C
:10218000B3F8102000F08FF9C52000F0ADF83E2024
:1021900000F089F9282000F086F9C72000F0A4F8A3
:1021A000862000F080F9362000F09EF8E4B2002C82
:1021B00003D0E82000F077F902E0282000F073F95E
:1021C0003A2000F091F8552000F06DF9B12000F0B0
:1021D0008BF8002000F067F9182000F064F9B620B1
:1021E00000F082F8082000F05EF9822000F05BF930
:1021F000272000F058F9F22000F076F8002000F0D7
:1022000052F9262000F070F8012000F04CF9E0208F
:1022100000F06AF80F2000F046F9312000F043F991
:102220002B2000F040F90C2000F03DF90E2000F0CA
:102230003AF9082000F037F94E2000F034F9F12087
:1022400000F031F9372000F02EF9072000F02BF9CB
:10225000102000F028F9032000F025F90E2000F0EE
:1022600022F9092000F01FF9002000F01CF9E120FC
:1022700000F03AF8002000F016F90E2000F013F9F3
:10228000142000F010F9032000F00DF9112000F0E7
:102290000AF9072000F007F9312000F004F9C12005
:1022A00000F001F9482000F0FEF8082000F0FBF8EB
:1022B0000F2000F0F8F80C2000F0F5F8312000F0C5
:1022C000F2F8362000F0EFF80F2000F0ECF81120C3
:1022D00000F00AF8142001F0BFF9292000F004F8FA
:1022E0002C2000F001F810BDDFF8B815096831F4B2
:1022F0008051DFF8B0251160C0B2C109C9B2DFF862
:10230000A425126861F38A22DFF898150A60DFF8C5
:102310009415096831F40071DFF888251160DFF841
:102320008415096851F40071DFF878251160C0B296
:102330008109C9B2DFF86C25126861F38A22DFF8DF
:1023400064150A60DFF85C15096831F40071DFF884
:1023500054251160DFF84C15096851F40071DFF85D
:1023600044251160C0B24109C9B2DFF838251268AE
:1023700061F38A22DFF82C150A60DFF82815096856
:1023800031F40071DFF81C251160DFF818150968B9
:1023900051F40071DFF80C251160C0B20109C9B217
:1023A000DFF80025126861F38A22DFF8F8140A606A
:1023B000DFF8F014096831F40071DFF8E8241160E7
:1023C000DFF8E014096851F40071DFF8D8241160D7
:1023D000C0B2C108C9B2DFF8CC24126861F38A2206
:1023E000DFF8C0140A60DFF8BC14096831F400712A
:1023F000DFF8B0241160DFF8AC14096851F4007103
:10240000DFF8A0241160C0B28108C9B2DFF89424BB
:10241000126861F38A22DFF88C140A60DFF88414F2
:10242000096831F40071DFF87C241160DFF874145E
:10243000096851F40071DFF86C241160C0B24108E2
:10244000C9B2DFF86024126861F38A22DFF85414FD
:102450000A60DFF85014096831F40071DFF8442491
:102460001160DFF84014096851F40071DFF834247A
:102470001160C0B2DFF82C14096860F38A21DFF81C
:1024800024241160DFF81C14096831F40071DFF8AE
:1024900014241160DFF80C14096851F40071DFF89E
:1024A000042411607047DFF8FC13096851F480516F
:1024B000DFF8F0231160C0B2C109C9B2DFF8E4232C
:1024C000126861F38A22DFF8DC130A60DFF8D413A4
:1024D000096831F40071DFF8CC231160DFF8C41310
:1024E000096851F40071DFF8BC231160C0B28109A2
:1024F000C9B2DFF8B023126861F38A22DFF8A413AF
:102500000A60DFF8A013096831F40071DFF8942342
:102510001160DFF89013096851F40071DFF884232B
:102520001160C0B24109C9B2DFF87823126861F3C3
:102530008A22DFF870130A60DFF86813096831F443
:102540000071DFF860231160DFF85813096851F457
:102550000071DFF850231160C0B20109C9B2DFF881
:102560004423126861F38A22DFF838130A60DFF827
:102570003413096831F40071DFF828231160DFF8A3
:102580002413096851F40071DFF818231160C0B2F8
:10259000C108C9B2DFF80C23126861F38A22DFF8A0
:1025A00004130A60DFF8FC12096831F40071DFF8E7
:1025B000F4221160DFF8EC12096851F40071DFF8C1
:1025C000E4221160C0B28108C9B2DFF8D8221268D3
:1025D00061F38A22DFF8CC120A60DFF8C8120968BA
:1025E00031F40071DFF8BC221160DFF8B81209681D
:1025F00051F40071DFF8AC221160C0B24108C9B2D9
:10260000DFF8A022126861F38A22DFF898120A60CC
:10261000DFF89012096831F40071DFF88822116048
:10262000DFF88012096851F40071DFF87822116038
:10263000C0B2DFF87012096860F38A21DFF8642203
:102640001160DFF86012096831F40071DFF854227C
:102650001160DFF85012096851F40071DFF844226C
:102660001160704710B50400200AC0B2FFF71BFFCD
:102670002000C0B2FFF717FF10BDF8B504000D0031
:1026800016001F002A20FFF72FFE200AC0B2FFF716
:102690000AFF2000C0B2FFF706FF280AC0B2FFF70A
:1026A00002FF2800C0B2FFF7FEFE2B20FFF71CFE42
:1026B000300AC0B2FFF7F7FE3000C0B2FFF7F3FEFA
:1026C000380AC0B2FFF7EFFE3800C0B2FFF7EBFEEA
:1026D0002C20FFF709FEF1BD2DE9F04182B0040086
:1026E0000D0016001F00DDF82080CDF800803B00B3
:1026F0003200D2B22900200000F032F8BDE8F381A8
:102700002DE9F84304000D0016001F00DDF82080BD
:102710005FF000093078002820D0307880280EDA69
:10272000CDF800803B00327829005FFA89F914EB7C
:10273000C900FFF7D1FF761C19F10109EAE7CDF8CE
:1027400000803B00320029005FFA89F914EBC900D0
:1027500000F03CF8B61C19F10209DBE7BDE8F18393
:102760002DE9F84F04000D0016001F00DDF8288049
:1027700015F10F032A00E11D2000FFF77EFF002066
:102780008146B9F1100F1FD2DFF82404F6B219EB1D
:10279000061111F800B000208246BAF1080F10D2DD
:1027A0005FFA8BFB5FEA0B6003D53800FFF75AFF37
:1027B00002E04046FFF756FF5FEA4B0B1AF1010AB1
:1027C000EBE719F10109DCE7BDE8F18F2DE9F14FE5
:1027D0000C0015001E000A9F14F10F032200009840
:1027E00010F10F010098FFF748FF00208246BAF170
:1027F000400F3BD2DFF8BC03232101FB0A00007825
:10280000297888422FD1DFF8AC03232101FB0A008D
:1028100040786978884226D100208046B8F1200FA0
:1028200021D2DFF89003232101FB0A0018EB0000FE
:1028300090F803B000208146B9F1080F10D21FFABA
:102840008BFB5FEA0B6003D53000FFF70BFF02E064
:102850003800FFF707FF5FEA4B0B19F10109EBE7BF
:1028600018F10108DAE71AF1010AC0E7BDE8F18FB3
:1028700070B50400EF23002240F23F110020FFF763
:10288000FCFE00200500F02D0BD200200600B6F55E
:10289000A07F04D22000FFF7E5FE761CF7E76D1C51
:1028A000F1E770BD00F10F402DE9F44F8AB004004C
:1028B0000D009A46149E159F5FF000085FF0000916
:1028C000002081460A985FFA89F919F8000000286B
:1028D0000CD00A985FFA89F919F8000001A95FFA8B
:1028E00089F909F8010019F10109EBE7202001A994
:1028F0005FFA89F909F8010019F10109BAF1000F2D
:102900000BD52D2001A95FFA89F909F8010019F109
:1029100001095FF0FF3000FB0AFABAF10A0F0EDA84
:102920001AF1300001A95FFA89F909F801000020C5
:1029300001A95FFA89F919EB01014870E0E0BAF1E9
:102940000A0F1FDBBAF1640F1CDA0A209AFBF0F0C1
:10295000303001A95FFA89F909F801000A209AFBD1
:10296000F0F100FB11A0303001A95FFA89F919EBF1
:1029700001014870002001A95FFA89F919EB0101F2
:102980008870BDE0BAF57A7F2BDA64209AFBF0F00C
:10299000303001A95FFA89F909F801000A209AFB91
:1029A000F0F00A2190FBF1F201FB1200303001A996
:1029B0005FFA89F919EB010148700A209AFBF0F1DE
:1029C00000FB11A0303001A95FFA89F919EB010170
:1029D0008870002001A95FFA89F919EB0101C8701C
:1029E0008EE042F2107082453BDA4FF47A709AFB27
:1029F000F0F0303001A95FFA89F909F8010064208C
:102A00009AFBF0F00A2190FBF1F201FB120030304A
:102A100001A95FFA89F919EB010148700A209AFBB4
:102A2000F0F00A2190FBF1F201FB1200303001A915
:102A30005FFA89F919EB010188700A209AFBF0F11D
:102A400000FB11A0303001A95FFA89F919EB0101EF
:102A5000C870002001A95FFA89F919EB010108711A
:102A60004EE0DFF8AC0182454ADA42F210709AFB80
:102A7000F0F0303001A95FFA89F909F801004FF44C
:102A80007A709AFBF0F00A2190FBF1F201FB120040
:102A9000303001A95FFA89F919EB0101487064200F
:102AA0009AFBF0F00A2190FBF1F201FB12003030AA
:102AB00001A95FFA89F919EB010188700A209AFBD4
:102AC000F0F00A2190FBF1F201FB1200303001A975
:102AD0005FFA89F919EB0101C8700A209AFBF0F13D
:102AE00000FB11A0303001A95FFA89F919EB01014F
:102AF0000871002001A95FFA89F919EB01014871F9
:102B00005FF0000B5FFA8BFBBBF1070F0CDA00974D
:102B10003B00202229005FFA8BFB14EBCB00FFF770
:102B2000DBFD1BF1010BEDE70020814601A85FFAF8
:102B300089F919F80000002836D001A85FFA89F950
:102B400019F80000802812DA0097330001A85FFA14
:102B500089F919F8002029005FFA88F814EBC800F9
:102B6000FFF7BAFD19F1010918F1010811E000970A
:102B7000330001A85FFA89F919F8002029005FFAEB
:102B800088F814EBC800FFF721FE19F1020918F1CB
:102B9000020800973B00202229005FFA88F814EB16
:102BA000C800FFF799FDC1E70BB0BDE8F08F00004A
:102BB000C404FF1FC40CFF1FF8B50400EF2300225C
:102BC00040F23F110020FFF758FD00200500F02DD6
:102BD0001DDA00200600282E17DA00200700082F33
:102BE00011DA282000FB0540305C80213941084281
:102BF00003D00020FFF736FD03E04FF6FF70FFF72C
:102C000031FD7F1CEBE7761CE5E76D1CDFE7F1BDCE
:102C1000A08601002DE9FF4F83B05FF000095FF04F
:102C2000000ABDF81400BDF80C10401A8346BDF828
:102C30001800BDF81010401A0500BDF80C00070080
:102C4000BDF810008046BBF1010F02DB01200190AE
:102C50000AE0BBF1000F02D10020019004E05FF018
:102C6000FF300190DBF1000B012D02DB0120009011
:102C700008E0002D02D10020009003E05FF0FF305B
:102C800000906D425D4501DA5E4600E02E000020B6
:102C90000400701CA4B2A04218DB414689B238007F
:102CA00080B200F016F81BEB090915EB0A0A4E4535
:102CB00003DAB9EB06090198C719564504DABAEBED
:102CC000060A009810EB0808641CE2E707B0BDE8AC
:102CD000F08F38B504000D00ADB22B00ADB22A0064
:102CE000A4B22100A4B22000FFF7C7FC4FF4784043
:102CF000FFF7B8FC31BDF8B504000D001600ADB209
:102D00006B1CADB26A1EA4B2611CA4B2601EFFF7B8
:102D1000B4FC00200700FFB2092F05DAB6B230007C
:102D2000FFF7A0FC7F1CF6E7F1BD50F8041B61B172
:102D300050F8042BD30744BFA9F101039A180023CC
:102D4000091F42F8043BFAD1EFE77047010040F158
:102D50000780F446404200F003F851F0004160471C
:102D600009D0B0FA80F18840C91CC1F58461090519
:102D700001EBD02140057047F0B540F2FF7581EAC4
:102D8000030C0CF0004C15EA11541DBF15EA135743
:102D9000AC42AF42E5E0BC41C1F31301C3F31303FE
:102DA000801A994143F4801304D2641E40004941C3
:102DB00080185941C90241EA5051B1FBF3F603FBB7
:102DC0001611A2FB0675D7EBC020A94102D2761ED0
:102DD00080185941C90241EA5051B1FBF3FE03FB8F
:102DE0001E11A2FB0E75D7EBC020A94103D2AEF194
:102DF000010E80185941890241EA9051760546EA50
:102E00008E2EB1FBF3F603FB1611A2FB0675D7EB72
:102E10008020A94102D2761E80185941C90241EA98
:102E200050514EEA060EB1FBF3F603FB1611A2FB5E
:102E30000675D7EBC020A94102D2761E80185941F1
:102E4000C90241EA5051B1FBF3F703FB1711A2FB92
:102E50000735D3EBC020A94167F100070CBF004242
:102E600047F0010766F3D5274FEA1E31B80814F57D
:102E7000806412DDBD0775F1004250EB0E5051EB3E
:102E8000045111F5801F5CBF41EA0C01F0BD4CF00C
:102E90007F6141F0E0410020F0BDBD076D0840EAD0
:102EA0000E5041F48011D4F10104B4F120060ADA85
:102EB000C4F120060200E04001FA06F3E1401843A5
:102EC000B24015430EE0342C13DCC6F1200445EA71
:102ED00040056D0820FA06F2154321FA06F0A140DC
:102EE0000D43002175F1004250F1000051EB0C013F
:102EF000F0BD00205FEA0C01F0BDCFB992185B4134
:102F0000B3FA83F704BFB2FA82F6BF190B3FB7F1E9
:102F100020062FBF02FA06F3BB40C7F1200622FAB3
:102F200006F638BF3343BA401CB1E419641E33E7D8
:102F30007F4231F00041B1FA81F404BFB0FA80F66B
:102F4000A4190B3CB4F120062FBF00FA06F1A140F2
:102F5000C4F1200620FA06F638BF3143A0403C1BDE
:102F60001AE7AC421ABF05EA1357AF4212E050EA23
:102F700041061CBF52EA4306BFE750EA410730460C
:102F800061461CBF41EA0551F0BD52EA430C08BF3F
:102F9000C143F0BD00204FF4001616EB410F98BF5F
:102FA00016EB430F08BF16EB410F24BFC14305E0EA
:102FB00016EB430F0CBF61464CEA0551F0BD000013
:102FC000F446400D40EAC120490006D200F00EF858
:102FD000004248BF6FF00040604700F007F84FF034
:102FE000004188428CBF08464042604740F00040A4
:102FF000490DA1F58061491C05D4D1F11F0154BFD1
:10300000C840C01770474FF000007047B0B581EA64
:10301000030C0CF0004C40F2FF7515EA11541DBF73
:1030200015EA1357AC42AF4239E0E41923EA45539D
:1030300043F48013C90241F0004141EA505EC702E7
:103040001100A7FB020200284FF00000EEFB012058
:103050004FF00001E3FB072118BF42F001024018C6
:1030600000214941E3FB0E01A4F580640F0302D265
:1030700052004041494154F101046CDD470872F1AE
:10308000004250F1000051EB0451A1F580115CBFEA
:1030900041EA0C01B0BD4CEA05510020B0BD05EA83
:1030A0001357AC4214BFAF4241E050EA410E1CBF7F
:1030B00052EA430E02E061460020B0BD24423C4487
:1030C0001BD15FEA070EF6D0090302BF01460020BC
:1030D000AEF1140EB1FA81F7AEEB070401FA07FE68
:1030E0000C37C7F1200100FA07F7C8404EEA000E7E
:1030F00023EA455343F48013A2E733F00043B3FAC5
:1031000083F704BFB2FA82FE77440B3FE41BB7F1AA
:10311000200E2FBF02FA0EF3BB40C7F1200E22FA99
:103120000EFE38BF43EA0E03BA40641C82E750EA41
:10313000410E14BF52EA430E6FF000014FF4001726
:1031400017EB430F8ABF194617EB410FB5E74CEA5F
:1031500005510020B0BDD4F10104B4F120070FDA0D
:10316000C4F12007520828BF42F0010210FA07F507
:1031700001FA07F7E1BF2A43E0403843E1400FE09E
:10318000352C98DCC7F1200452EA400220FA07F2FD
:1031900018BF42F0010231FA07F0A1400A430021B2
:1031A00072F1004250F1000051EB0C01B0BD000083
:1031B00070B44FF0004591EA030C44BF6B4000F03F
:1031C0000FB900BF841A71EB030603D2001BB14193
:1031D000121973414FF4001C1CEB410F34BF7CEB00
:1031E000430443E00C0DA4EB1356352E50DC45EAA6
:1031F000C323DB0A45EAC121C912B6F120050DDD62
:1032000063FA05F6EB4086EA0305124218BF45F063
:103210000105C01851F100010CD213E062FA06F565
:10322000F2405540F3415A40B340F3405A408018B1
:10323000594107D349085FEA30005FEA350528BFE6
:1032400045F0010501F58011420875F1004250F189
:10325000000041EB045170BC4FF4001C1CEB410F0B
:1032600038BF70470020090D090570471CEB410F5E
:1032700010D252EA43060BD0BCEB410F05D80C0D1F
:10328000AB43661E342EB5DD02E0AB4380185941D6
:1032900070BC704770BC7047002840F10980F4464C
:1032A000404200F005F850F000406047002800BFA1
:1032B0000AD0B0FA80F18840D1F19D01C90502061B
:1032C00072F1004241EB10207047000070B504001D
:1032D0000D006868A8606C60E86828612968686803
:1032E00000F0CCF906005FF07E50296800F032FA59
:1032F000296900F0C3F9310000F0A0FAE860E8683D
:1033000070BD00004100090E7F3915D4D1F11F01B5
:1033100014D4400007D2C00140F00040C84048BF6C
:103320006FF000407047C00140F00040C8404CBF03
:103330004FF00040404270470020704700424FF07D
:10334000004058BFC043704730B40200FF24002043
:1033500000252B009BB289B28B420BD29BB29D5CA5
:10336000E4B2A54204D29BB29D5C2C001D00280053
:103370005B1CEFE7C0B230BC704710B40200012004
:1033800000242300DBB2C9B28B4202D250435B1C43
:10339000F8E710BC704730B40200002000252B0075
:1033A000DBB2C9B28B420ED200252C00E4B2082C4D
:1033B00007DADBB29D5C254115F001052818641C75
:1033C000F4E75B1CECE730BC7047000070B44FF0D2
:1033D000004591EA030F44BF6B40FFF7F3BE00BF07
:1033E000841A71EB030604D26E40001BB14112191E
:1033F00073414FF4001C1CEB410F34BF7CEB4306C0
:1034000084E00C0DA4EB1356362E7DDC012E43DC3C
:1034100045EAC32343EA525312BFD20292025B0829
:10342000240545EAC12141EA5051D2EBC02099411F
:1034300025D407D1B0FA80F610FA06F164D0002046
:10344000203608E0B1FA81F6B140C6F1200220FA38
:1034500002F21143B0404FEAF474B4EB465434F036
:1034600001064FEA74040AD8D6F50016760D04F06A
:103470000044F04061FA06F25040F1404840C00A72
:1034800040EA415021F0004128BF5FEA500550F169
:10349000000044EBD12137E045EAC323DB0A45EACB
:1034A000C121C90AB6F120050EDD42EA0242120C22
:1034B000C5F1200603FA06F6EB4042EA06056D4226
:1034C000984161F100010DE062FA06F5F2405540C5
:1034D00063FA06FC82EA0C02F3405A406D429041C6
:1034E00061EB030111F4801F05D1641E620502D057
:1034F0006D004041494121F48011430875F10043BA
:1035000050F1000041EB045170BC70471CEB410FBF
:1035100015D223F0004352EA43060BD04FEA4C0C7D
:10352000BCEB410F04D80C0D661E342EB7DDEBE763
:10353000801A994150EA410608BF0021E4E708BF1C
:103540001CEB430F28BF6FF00001DDE7F8B5040066
:103550000D0016001F00EDB2202D02D2FFB2022F87
:1035600003D32421384800F0ABF93848E4B250F8CE
:103570002400EDB2F6B256F4807140F82510F00741
:1035800005D5F6B2032E02D0F6B2132E0DD1304877
:10359000E4B250F8240040690121A94088432C4935
:1035A000E4B251F8241048612AE02948E4B250F806
:1035B000240040690121A94008432549E4B251F89B
:1035C00024104861FFB2012F0DD12148E4B250F818
:1035D000240000680121A94008431D49E4B251F8C4
:1035E000241008600CE01A48E4B250F82400006887
:1035F0000121A94088431649E4B251F8241008601B
:10360000F1BD30B4C0B2420910F01F03114C246860
:103610004FF4007595402C430E4D2C6031F4E06161
:103620000A4CD2B254F82240DBB254F8234014F4CE
:10363000E0642143054CD2B254F82240DBB244F896
:10364000231030BC70470000D88100003C04FF1FED
:103650002804FF1F3880044000231900814209D24A
:10366000054B1B681A00002A02D000BF521EFAE761
:10367000491CF3E770470000386DFF1FFF2212EA74
:10368000D05C1DBF12EAD153944593422BE09C4479
:10369000D30780EA01021A4043EA002043EA0121ED
:1036A000A1FB0030410038BF40007CF17F010BDB03
:1036B000FE294ADA5B0842EAC15153EA006373F11A
:1036C000004C51EB10207047D1F1080CDCF12001C7
:1036D0002FDB5B0810FA01F10B4373F1004120FA74
:1036E0000CF05041704794451CBF02EAD1539342FD
:1036F00080EA010202F000421DD0400019D04900CA
:1037000017D05BB9634514D00902B1FA81F399402F
:10371000BCEB030CC00140F00040C1E70002B0FA6E
:1037200080FC10FA0CF0B3EB0C0CC90141F0004125
:10373000B6E71000704740000AD0490008D010F1E9
:10374000807F94BF11F1807F02E042F0FF4070471C
:10375000D043704790EA010F44BF81F0004100F070
:1037600075B800BF431A4FF000423EBF5340C01A25
:10377000C91800BFD3095FEAD05C13EB400F34BF18
:10378000B3EB410F40E07CEBD1530CD342EA012173
:1037900022D8D1EB402009D3400A28BF5FEA50016C
:1037A00040EBCC507047401A15D04002B0FA80F27E
:1037B000521C9040400A4FEA3C23B3EB026384BFA3
:1037C00000EB730007E040F400001A16DB07C2F1BB
:1037D0000102D04018437047182BFCDC31FA03F289
:1037E00002FA03F3591A38BF42F00102D2EB40202B
:1037F0003CBF4000ACF1010C5FEACC5CC20572F149
:1038000000414CEB5020704713EB400F0FD24B00A0
:1038100009D0ACEBD153022B03DB4902172BDDDDC2
:1038200070479143401A4300D5D10020704713EBF5
:10383000410FD0D36FF000007047000090EA010FF5
:1038400044BF81F00041FFF78DBF00BF421A3CBF6B
:10385000801A89184FF0004CC0F3C752FF2A24D0B9
:10386000C1F3C75313B3D21AD2F1190327DD4CEABF
:1038700001214CFA03F321EA0303D140C20D4CEAC3
:103880000020401834BF20EA0C004CEA5000D2055A
:1038900053EA006373EB0C0C52EB1020420012F160
:1038A000807F38BF7047C00DC0057047490212BF06
:1038B0009A4200EB5120F8E7D2F11703D9D57047AF
:1038C00038B504000D002A002100024800F0A1FADA
:1038D000F9E700BF0080000070B504000D0016007D
:1038E0003068012802D0022805D00AE02000C0B2CA
:1038F0007168884705E0B0680470B068401CB0602B
:10390000FFE72868401C286070BD2DE9F0470400DF
:103910005FF0000A5046A1465FF0000A89F800A057
:1039200019F10109002A1FD0D1F800A05546002D39
:1039300005D15FF0300A89F800A0401C38E0002D66
:1039400036D095FBF3FA564603FB165A5746002F1E
:1039500002D5FF43313700E03037350089F8007079
:1039600019F10109401CEAE7D1F800A0D446BCF1E6
:10397000000F05D15FF0300A89F800A0401C17E065
:10398000BCF1000F14D0BCFBF3FAD64603FB1ECAF1
:10399000D046B8F10A0F02D218F1300801E018F150
:1039A0003708F44689F8008019F10109401CE7E75F
:1039B000BDE8F0872DE9F04104000D0016001F005E
:1039C000A046A84507DA3A0031003020FFF784FF0F
:1039D00018F10108F5E7BDE8F0812DE9F041040098
:1039E0000D0016001F00A046A84507DA3A00310076
:1039F0002020FFF771FF18F10108F5E7BDE8F0811D
:103A00002DE9F24F92B004001500002000901298AA
:103A100083469BF8000001900198002800F0F58192
:103A20000198252813D001980A2805D0220000A962
:103A30000198FFF751FF09E0220000A90D20FFF7D0
:103A40004BFF220000A90A20FFF746FFDAE1002021
:103A50008146002004900498002822D11BF1010B1C
:103A60009BF8000020280ED0232812D02B2807D046
:103A70002D2802D0302809D00EE059F00109EAE7DC
:103A800059F00209E7E759F00409E4E759F0080999
:103A9000E1E759F01009DEE7BBF1010B01200490CA
:103AA000D9E700208246002004900498002814D111
:103AB0001BF1010B9BF80000019001983038092898
:103AC00006D80A20019900FB0A10B0F1300AECE791
:103AD000BBF1010B01200490E7E71BF1010B9BF800
:103AE00000002E2811D100200490049800280ED147
:103AF0001BF1010B9BF800003038092800D8F4E7CF
:103B0000BBF1010B01200490EFE7BBF1010B1BF1AE
:103B1000010B9BF800004C2806D0682802D06C28C6
:103B200001D002E003E002E001E0BBF1010B1BF178
:103B3000010B9BF8000001900198582875D062286D
:103B400000F0D580632800F01D81642813D0692817
:103B500011D06E2800F04A816F2800F0BD807028D7
:103B600000F0D080732800F01781752800F0D58010
:103B700078285AD041E128682D1D06900A23012299
:103B800006A909A8FFF7C1FE070009A83818060012
:103B90000698002803D52D2003907F1C0FE05FEAD4
:103BA000897003D52B2003907F1C08E05FEA4970E1
:103BB00003D5202003907F1C01E00020039000200B
:103BC00005905FEA097011D50398002804D02200FF
:103BD00000A90398FFF780FE01200590230000AAAA
:103BE00051463800FFF7E6FE574612E05FEAC9701B
:103BF0000FD4230000AA51463800FFF7EEFE0398C9
:103C0000002804D0220000A90398FFF765FE0120D8
:103C100005900598002807D10398002804D02200B9
:103C200000A90398FFF758FE98E028682D1D029020
:103C30001023002202A909A8FFF767FE070009A8C0
:103C400038180600002005905FEA097016D55FEA73
:103C5000C9600BD5220000A93020FFF73DFE2200ED
:103C600000A97820FFF738FE01200590230000AA64
:103C700051463800FFF79EFE57461BE05FEAC970C9
:103C800018D45FEAC96000D5BF1C230000AA5146C2
:103C90003800FFF7A2FE5FEAC9600BD5220000A939
:103CA0003020FFF719FE220000A97820FFF714FE4C
:103CB000012005905FEAC9600DD5059800280AD15A
:103CC000220000A93020FFF707FE220000A978207B
:103CD000FFF702FEBF1C41E028682D1D029008235B
:103CE000002202A909A8FFF710FE07001FE02868BC
:103CF0002D1D02900223002202A909A8FFF705FE4C
:103D0000070014E028682D1D02901023002202A94C
:103D100009A8FFF7FAFD070009E028682D1D0290A9
:103D20000A23002202A909A8FFF7EFFD070009A84E
:103D3000381806005FEA097007D5230000AA51462B
:103D40003800FFF737FE574608E05FEAC97005D430
:103D5000230000AA51463800FFF73FFE30780028C4
:103D600006D0220000A93078FFF7B6FD761EF5E7F1
:103D70005FEAC97005D5230000AA51463800FFF755
:103D80002CFE3FE028682D1DC0B20790220000A93C
:103D90000798FFF7A1FD35E028682D1D8046B8F192
:103DA000000F22D0404600F049F807005FEAC970D2
:103DB00005D4230000AA51463800FFF70EFE98F8FC
:103DC0000000002808D0220000A998F80000FFF7A2
:103DD00083FD18F10108F2E75FEAC97005D52300F9
:103DE00000AA51463800FFF7F8FD0BE028682D1DAA
:103DF000089000980899086004E0220000A9019842
:103E0000FFF76AFD1BF1010B03E6009813B0BDE854
:103E1000F08F0EB47EB5040001200090064801909A
:103E200007A805002A00210000A8FFF7E9FD060009
:103E300030007EBC5DF810FBE586000001000A0042
:103E40000023002A01D1002007E01000421C007866
:103E5000002801D05B1CF8E71800704700B0034051
:103E600000B00B40000014000080034000900340AD
:103E700000800B4000F00F4040F00F4080F00F40FA
:103E8000C0F00F4000F10F400090044000A004403B
:103E900000B0044000C0044000D00440CDCC4C3FF2
:103EA0000000000000000000000000000000000012
:103EB0004E9EEE0000000000000000000000000028
:103EC00000000000000000000000000000000000F2
:103ED00000000000000000000000000000000000E2
:103EE00000005696000000000000000000000000E6
:103EF0007F0000002003000000000000A406000076
:103F00000000000000000000B400000001000000FC
:103F100000000000000000000000000000000000A1
:103F20000000000000000000000000000000000091
:103F30000000000000000000000000000000000081
:103F40000000000000000000000000000000000071
:10412000000000101010101010001010000000000F
:104130000000002424240000000000000000000013
:1041400000000024247E2424247E24240000000077
:10415000000000107C90907C12127C100000000087
:104160000000000062640810204C8C000000000079
:1041700000000000182420508A844A30000000000B
:1041800000000010102000000000000000000000EF
:10419000000008102020202020202010080000000F
:1041A0000000201008080808080808102000000077
:1041B00000000000001054383854100000000000C7
:1041C000000000000010107C101000000000000033
:1041D000000000000000000000001010200000009F
:1041E000000000000000007C000000000000000053
:1041F00000000000000000000000001000000000AF
:104200000000000000020408102040000000000030
:104210000000003844444C5464444438000000001A
:1042200000000010301010101010103800000000B6
:1042300000000038440404081020407C0000000006
:104240000000007C0408103804040478000000001A
:1042500000000008182848487C08080800000000F2
:104260000000007C40404078040404780000000016
:104270000000003C404040784444443800000000C6
:104280000000007C04040810202020200000000012
:1042900000000038444444384444443800000000DE
:1042A000000000384444443C04040438000000008A
:1042B00000000000000000100000100000000000DE
:1042C000000000000000000010001010200000009E
:1042D0000000000000040810201008040000000086
:1042E000000000000000007C007C000000000000D6
:1042F000000000000020100804081020000000004A
:1043000000003844440408101000101000000000A1
:10431000000000000038445C545C403C0000000099
:10432000000018244242427E424242420000000005
:1043300000007C4242427C424242427C000000003B
:1043400000003C42404040404040423C00000000F1
:1043500000007C42424242424242427C0000000055
:1043600000007E40404078404040407E0000000019
:1043700000007E4040407840404040400000000047
:1043800000003C4240405E424242423C000000008D
:104390000000424242427E4242424242000000004D
:1043A000000038101010101010101038000000001D
:1043B00000001C0808080808080848300000000031
:1043C00000004244485060605048444200000000F1
:1043D00000004040404040404040407E000000001F
:1043E00000008282C6C6AAAA9292828200000000C1
:1043F000000042626252524A4A46464200000000B1
:1044000000003C42424242424242423C0000000024
:1044100000007C424242427C40404040000000009C
:1044200000003C424242424242424A3C0E000000EE
:1044300000007C424242427C50484442000000005E
:1044400000003C4240403C020202423C00000000AE
:1044500000007C1010101010101010100000000050
:1044600000004242424242424242423C00000000BE
:104470000000444444442828281010100000000084
:1044800000008282828254545428282800000000B0
:104490000000424224181818242442420000000060
:1044A000000044444444282810101010000000006C
:1044B00000007E02020408102040407E0000000040
:1044C000000038202020202020202038000000007C
:1044D000000000000000402010080402000000005E
:1044E00000001C04040404040404041C0000000074
:1044F0000000000010284400000000000000000040
:10450000000000000000000000000000FF000000AC
:104510000000001010080000000000000000000073
:10452000000000000078043C4444443A00000000CD
:1045300000004040405C62424242625C0000000079
:1045400000000000003C42404040423C00000000AF
:1045500000000202023A46424242463A000000008F
:1045600000000000003C42427E40423C000000004F
:1045700000000E1010103C10101010100000000071
:1045800000000000003E424242423E02023C000067
:1045900000004040405C6242424242420000000053
:1045A00000000008000808080808080800000000CB
:1045B000000000040004040404040404443800005F
:1045C000000040404042444850684442000000001F
:1045D000000010101010101010101010000000003B
:1045E0000000000000EC9292929292920000000073
:1045F00000000000007C42424242424200000000B3
:1046000000000000003C42424242423C00000000E8
:1046100000000000005C62424242625C40400000D8
:1046200000000000003A46424242463A02020000C0
:1046300000000000005C624040404040000000007C
:1046400000000000003C42403C02423C00000000F0
:1046500000000020207820202020221C00000000E4
:1046600000000000004242424242423E0000000080
:1046700000000000004242424242241800000000B4
:1046800000000000008282829292AA440000000092
:1046900000000000004242241824424200000000B2
:1046A000000000000042424242423E02023C000042
:1046B00000000000007E02041820407E0000000080
:1046C00000000810101020402010101008000000FA
:1046D00000101010101010101010101010101000FA
:1046E0000000201010100804081010102000000016
:1046F00000000000000022548800000000000000BC
:1047000000000000000000000000000000000000A9
:10471000C8AB000100010002800440082010102FE7
:10472000E8C106010001001FF00100010001007F47
:10473000FC0000B6AF00004000407C40004001FC9F
:104740000044FE4420442044208448844484FD04E2
:10475000450402280410B5E7000100010001003FF4
:10476000F8210821083FF82108210821083FF821F5
:10477000080102010200FE0000D7D30000003FF054
:10478000002000400080010001000104FFFE010044
:10479000010001000100010005000200BFC6000683
:1047A00008788808480848FE0818881C482A4828BD
:1047B0000E48788B8808080808080808080808BC0C
:1047C000BC00102010201020FDFE1020142019FC29
:1047D0003108D0881090106010601090110E5604AF
:1047E0002000D3D000010001007FFE020004000F72
:1047F000F0181028104FF0881008100FF00810085B
:104800009008700820CFDE000000FBF8920893F8B3
:10481000A208A20893F88A808A48AA50922082208F
:104820008210828E83048200B9AB0000000440062F
:10483000400440082008101018220E43040200040F
:1048400020081011F83F1810100000CBBE00000027
:104850003FFC000400047FE4000400043FC4204443
:1048600020443FC420442004001400080000D7A8BE
:1048700000010001003FF802000200FFFE040008F2
:10488000200FF00020004002800100008000400066
:1048900000D2B50004400440044004444446244C83
:1048A000244814501C501460044004400444FFFE8B
:1048B00000000000BFAA0000007FFE0420042004C6
:1048C000200420FFFE0420042004200820082010DB
:1048D00020202040200000B7A20002002240223009
:1048E00022107FFE2400040007E00C200A200A208A
:1048F000114020804160861C1808B0E500101C1192
:10490000E011001100FD0011FC3984354855485272
:1049100030921012301448108E11040000B9A40017
:1049200000003FFC01000100010001000100010046
:1049300001000100010001000100FFFE0000000075
:10494000BFD800100010201010FDFE1104105014EC
:104950008C19043000D1FC1020102010201020539E
:10496000FE2000C9E800400021F0311021100110A4
:104970000110E20E25F821082108209020902860DF
:104980003090230E0C04B1B80008000FF00820147A
:10499000202240418002400C30301EDFF411101FF5
:1049A000F0111011101FF01010BCBC0010201020CE
:1049B0001020FDFE1020142019FC3108D088109022
:1049C000106010601090110E56042000CAF500010E
:1049D00000012001100100FFFE01000380054005D9
:1049E0002009101118210EC104010001000000D699
:1049F000A7000100010001007FFE010001001FF877
:104A00000810042004200240018002400C30700E87
:104A10000004B3D6001040104013FCFC40104017B7
:104A2000FE1410181037FED010111010D010901076
:104A30001050502020C2DB004040204030A0209089
:104A400001080206E5042110213821C021002500BB
:104A50002904310420FC0000CCB300000011FC103C
:104A60000010001000FC0013FE1040106010801CAD
:104A7000883104C27E07C602040000000000C8415D
:104A80000000C841FF010101C80000003200000021
:104A90005000000050000000010000006E00000007
:104AA00092FFFFFF280000000000803FFFFFFFFF94
:104AB000FFFF00000B1F00010103000001010100C6
:104AC0000DC1110009030CD01240173F18501903F3
:104AD0001A783200A00A63E0ACFF650C660067003C
:104AE00029502C782A007E0C7F16802A814E826104
:104AF000836F847B8586868E879788A489AF8AC5D5
:104B00008BD78CE88D204A00491347084B144C176B
:104B1000460522992303A6049B009C46AB069E11E2
:104B20009F0200003100000000A0064000B00640D7
:104B300000C0064000D0064000A00E4000B00E406D
:104B4000E0B5DFF810070068DFF80C170860DFF841
:104B500008070068DFF8FC160860DFF80007007837
:104B600004284AD1DFF8F8060078022818D101207D
:104B7000DFF8EC160870022002904FF416500190F6
:104B8000002000903623DFF8DC26DFF8DC1600205A
:104B900000F0D8FBDFF8CC06DFF8D01608601CE088
:104BA000DFF8BC060078012817D10220DFF8B01624
:104BB0000870022002904FF41650019000200090DF
:104BC0003623DFF8AC26DFF8A016002000F0BAFB91
:104BD000DFF89C06DFF894160860DFF89806006896
:104BE00050F00100DFF88C1608605A2000F099FDA3
:104BF0000320DFF8681608700BE00420DFF85C166D
:104C000008705FF0FF30DFF84C1608605A2000F0A3
:104C10003EFD07BDDFF848060078012805D1DFF822
:104C20004406DFF85416086009E0DFF8340600781F
:104C3000022804D1DFF83806DFF83C160860DFF8F8
:104C40003406006840084000DFF828160860DFF8E6
:104C50002C06006850F00100DFF8201608600120E3
:104C6000DFF8F81508700120DFF814160870704797
:104C70007047704770477047704770472DE9F041A3
:104C800084B000240025002700A800210022002372
:104C90000EC00C3872B600A9052000F0A1FE9DF8E8
:104CA000000080465FFA88F84046312800F00C8109
:104CB000322800F01481332800F01C81342800F0E1
:104CC0002481612800F0D780622800F0AA8064283F
:104CD00079D0692849D06D2804D0702817D073285E
:104CE00012D01DE100200400DFF898050068C0F331
:104CF000C00090F00100DFF88C15096860F3C30173
:104D0000DFF88005016025E10120040022E1002098
:104D10000600F6B2EDB2AE420DD2A81B411EC9B2DA
:104D20000A20FEF72AFBDFF86015F6B2715C00FB83
:104D30000177761CEDE7E4B2002C0CD13800FEF7C9
:104D4000ABFADFF8481508603800FEF7A5FADFF87F
:104D50004015086008E0E4B2012C05D13800FEF7E8
:104D60009BFADFF830150860F4E000200600F6B288
:104D7000EDB2AE420DD2A81B411EC9B20A20FEF709
:104D8000FCFADFF80415F6B2715C00FB0177761CC3
:104D9000EDE7E4B2002C0CD13800FEF77DFADFF825
:104DA000EC1448603800FEF777FADFF8E414486046
:104DB00008E0E4B2012C05D13800FEF76DFADFF807
:104DC000D4144860C6E000200600F6B2EDB2AE4250
:104DD0000DD2A81B411EC9B20A20FEF7CEFADFF899
:104DE000A814F6B2715C00FB0177761CEDE7E4B223
:104DF000002C0CD13800FEF74FFADFF890148860D1
:104E00003800FEF749FADFF88814886008E0E4B259
:104E1000012C05D13800FEF73FFADFF878148860DE
:104E200098E0DFF87404007800280BD10120DFF847
:104E30006C140870DFF860040078401CDFF8581428
:104E4000087017E00020DFF8581408600020DFF831
:104E5000541408600020DFF8501408800020DFF8A8
:104E60004C1408600020DFF8481408600020DFF8C8
:104E7000441408706EE0DFF828040068FEF742FA78
:104E8000DFF834140860DFF81C040068FEF73AFA13
:104E9000DFF8281408600020DFF804140860002000
:104EA000DFF8001408600020DFF8FC130880002001
:104EB000DFF8F81308600020DFF8F4130860002022
:104EC000DFF8F013087045E0DFF8D4030068DFF87E
:104ED000F013FEF7B3FCDFF8C81308603AE0DFF820
:104EE000C0030068DFF8DC13FEF7A8FCDFF8B0139E
:104EF00008602FE0DFF8AC030068DFF8C413FEF7AA
:104F00009DFCDFF8A013086024E0DFF89803006838
:104F1000DFF8B013FEF792FCDFF88813086019E0A1
:104F20005FFA88F8B8F1300F14DB5FFA88F8B8F14F
:104F30003A0F0FDA00200600F6B2EDB2AE4209D207
:104F400000A8F6B2305C3038DFF83C13F6B270548B
:104F5000761CF1E7E4B2002C04D1DFF86C03FEF715
:104F600058FF06E0E4B2012C03D1DFF86003FEF73E
:104F700050FFDFF85C03FEF74CFF00200600F6B29E
:104F8000EDB2AE420BD2DFF80003F6B2305C10F1A6
:104F90003001C9B2052000F03DFD761CEFE789A085
:104FA000FEF737FFB7480068C0F3401090F00100EB
:104FB000B449096860F34511B248016062B6BDE8C2
:104FC000FF8180B5DFF80C030068401CC149086010
:104FD000C1480078401CC0490870C0480078401C97
:104FE000BE490870BE480078012808D1AB48007857
:104FF000012804D1BB480068401CBA490860BA487F
:105000000078012804D1B9480068401CB7490860FD
:10501000A2480078012812D1B548006840F2EA3170
:1050200088420CD2B2480068401CB1490860B048C0
:105030000068B0F57A7F02D10020AE490870A6481A
:105040000078052802DB0020A3490870A3480078F7
:10505000142802DB0020A1490870A74890F84000FE
:10506000012824D1A448B0F84200002818D100201B
:10507000A14908700020A049C86200209E4981F81B
:10508000300000209C49486300209B4981F83E0085
:105090000020994981F83F000020974981F840009D
:1050A0009548B0F84200401E9349A1F8420092484A
:1050B00090F83900012810D18F48408F002807D17F
:1050C00001208D4981F83E0000208B4981F839008C
:1050D0008948408F401E88494887884800F078FDFD
:1050E00087480078102804DA85480078401E8449F3
:1050F00008708348007800282ED182480068C0F3E9
:10510000400000280CD101207549087001207E491B
:1051100008705C48006830F020005A4908601BE0C5
:105120007A480068C0F3404000280CD101206E4945
:1051300008700220744908705248006830F0080076
:105140005049086008E071480068C0F3C03000288A
:1051500002D103206C4908705F48007802280BD107
:105160006B4800F095FD00F0CDFD01220C210020E0
:1051700000F04FFF6749086058480078022801D1C5
:1051800000F0FEFD53480068B0F57A7F12D1624806
:105190000068624908805F480068614908805F488C
:1051A00000885F49098811FA80F0022190FBF1F034
:1051B0005C4908805C48006850F001005A4908606A
:1051C00001BD00000D0A00005848006850F00100C1
:1051D0005649086070475648006850F0010054492D
:1051E0000860704770470020112108005149096884
:1051F000C140C90709D50F21414A11704D490968BD
:105200000122824011434B4A11600F210800494995
:105210000968C140C90709D50F21394A11704549AC
:105220000968012282401143424A11607047002000
:105230000121080040490968C140C90709D50F216B
:105240002F4A11703C4909680122824011433A4AB1
:1052500011607047A0C00440BC20FF1F7210FF1FE8
:105260007110FF1F8447FF1F91F00F401090004006
:10527000DC21FF1F0C8000402C6DFF1F24800040AC
:105280004C10FF1FC0F00F40C020FF1FEC20FF1F7D
:105290002421FF1F5C21FF1F606DFF1F3B10FF1FBC
:1052A0003010FF1F3410FF1F5A6DFF1F9C21FF1F7E
:1052B000A021FF1F3A10FF1F4410FF1F4810FF1FBF
:1052C0000000C8420000C8C2E4850000F485000068
:1052D000408700009821FF1F626DFF1F616DFF1F57
:1052E000666DFF1FC820FF1F676DFF1FCC20FF1FCB
:1052F000D020FF1FC004FF1F6C04FF1F1804FF1FF6
:105300003810FF1F50F00F40646DFF1F10F00F406A
:10531000E020FF1FD820FF1FD420FF1F6010FF1FB9
:105320006210FF1F6410FF1F0C7103403C710340AB
:105330002C710340A0900440A0A004407047704727
:10534000704770472DE9F44F82B006000F00984671
:105350000C9CDDF834900E9DE4B2002C07D1DFF8F0
:10536000F002874203D3DFF8EC02B84222D2E4B263
:10537000012C0BD1DFF8D802874207D3DFF8D8021F
:10538000B84203D317F00300032813D1E4B2022C70
:105390000BD1DFF8BC02874207D3DFF8C002B84266
:1053A00003D317F00300002804D03121DFF8B00246
:1053B000FEF786FAE4B2002C02D15FF0010B0DE09B
:1053C000E4B2012C02D15FF0020B07E0E4B2022C40
:1053D00002D15FF0040B01E05FF0100BDFF88402F4
:1053E000006850F00200DFF87C120860DFF87802F5
:1053F000006850F00200DFF870120860DFF86C02FD
:10540000F6B271010F500298F6B2710101F18041BC
:1054100011F5104108610020F6B2710101F18041DF
:1054200011F5104188805FFA8BFBF6B2700100F134
:10543000804010F51040A0F814B0E4B2200210F43F
:10544000E060E4B214F007010843F6B2710101F123
:10545000804111F51041C88048464004400CF6B226
:10546000710101F1804111F51041C8824846C00523
:10547000C00DF6B2710101F1804111F51041C883F0
:10548000DFF8EC01006830F08000DFF8E41108601C
:105490005FFA8BFBF6B2700100F1804010F510400E
:1054A000C0F808B00020F6B2710101F1804111F599
:1054B0001041C860A80602D4D9F1000000E0002025
:1054C000F6B2710101F1804111F5104188610A20A5
:1054D000F6B2710101F1804111F5104188835FFA44
:1054E00088F85FEA5810313050F08000DFF88411FE
:1054F000F6B27054DFF8800100684FF400715FFA73
:1055000088F85FEA581291400843DFF86C11086090
:10551000DFF868015FFA88F85FEA681150F8210047
:10552000DFF858115FFA88F85FEA681251F8221024
:105530004969012218F01F039A4091434161504884
:105540005FFA88F85FEA681150F821005FFA88F87E
:1055500018F01F01EDB215F00302EDB2AB09DBB29A
:1055600053EA024252F4807240F821205FFA88F830
:10557000B8F1000F01D0012000E000203F495FFAA0
:1055800088F85FEA681251F822103C4A5FFA88F8FE
:105590005FEA681352F823205269012313FA00F0DE
:1055A00032EA00004861344800684FF40071BA09DB
:1055B00012F00702914008432F490860E4B2002C22
:1055C00003D0022C07D003D308E00020387109E093
:1055D0000020B88006E00020786003E076212048B3
:1055E000FEF76EF93800103810F03F008DF800001B
:1055F0009DF800005FFA8BFB5FEACB0151FA80F067
:105600008DF801009DF8000082469DF801005FFAC8
:105610008AFA82450ED21A48B90911F0070150F8EA
:1056200021005FFA8AFA4FF4817140F82A101AF1CA
:10563000010AEAE7134800680121B1400843114913
:105640000860F6B2300000F022F8BDE8F78F0000E5
:1056500010F00F4013F10F4012F10F4010F10F4006
:1056600078810000408004403C800440009000406D
:105670000080004000100240388004402804FF1FD2
:105680003C04FF1F0C8000403D490860704738B55E
:1056900004005C2C02DB3B48FEF7BBFB202094FBA4
:1056A000F0F00500002D03D0022D27D013D337E0F2
:1056B0000120202194FBF1F202FB1142904032497B
:1056C00008600120202194FBF1F202FB114290407E
:1056D0002E49086024E00120202194FBF1F202FB16
:1056E000114290402A4908600120202194FBF1F2E8
:1056F00002FB114290402749086011E0012020215F
:1057000094FBF1F202FB1142904023490860012012
:10571000202194FBF1F202FB114290401F490860E6
:1057200031BD38B504005C2C02DB1D48FEF771FB6F
:10573000202094FBF0F00500002D03D0022D15D0A1
:105740000AD31CE00120202194FBF1F202FB11425C
:1057500090401449086012E00120202194FBF1F2EE
:1057600002FB114290401049086008E0012020210E
:1057700094FBF1F202FB114290400C49086031BDEC
:1057800008ED00E01081000080E200E000E100E0B0
:1057900084E200E004E100E088E200E008E100E0EB
:1057A000D480000080E100E084E100E088E100E0D6
:1057B000F0B4C0B2002808D002282CD018D3042896
:1057C0004FD03BD305285FD071E04FF44076DFF82F
:1057D0005C733E604FF44076DFF854733E60DFF850
:1057E0005463366856F48066DFF848733E605EE0C6
:1057F0004FF44076DFF840733E604FF44076DFF8B8
:105800003C733E60DFF82C63366856F40066DFF8C0
:1058100024733E604BE04FF44076DFF824733E6023
:105820004FF44076DFF81C733E60DFF8086336689B
:1058300056F48056DFF8FC723E6038E04FF4407654
:10584000DFF804733E604FF44076DFF800733E608B
:10585000DFF8E062366856F40056DFF8D8723E6032
:1058600025E04FF44076DFF8E8723E604FF4407672
:10587000DFF8E0723E60DFF8E062366856F480667A
:10588000DFF8D4723E6012E04FF44076DFF8CC725D
:105890003E604FF44076DFF8C8723E60DFF8B862D1
:1058A000366856F40066DFF8B0723E60FFE7DFF856
:1058B000B462C0B256F82060F67816F0F306DFF84E
:1058C000A472C0B257F82070FE700026DFF8947200
:1058D000C0B257F82070BE70C0B2002801D10126B6
:1058E00000E00026C0B2012801D1012700E0002716
:1058F000F6B2FFB23E43002E07D0DFF86C62366886
:105900004FF47A777E43350006E0DFF86062366850
:105910004FF47A777E4335000E01B5FBF6F6320080
:10592000DFF84062C0B256F82060367816F0E00624
:10593000340092B2160A16F01F062643DFF82472CE
:10594000C0B257F820703E70DFF81862C0B256F847
:10595000206072706E010F01B6FBF7F692B2B6EBE3
:1059600042163300DFF8FC61C0B256F82060B67A08
:1059700016F0E006340013F01F062643DFF8E4714A
:10598000C0B257F82070BE72DFF8D861C0B256F8C6
:105990002060F67856F00C06DFF8C871C0B257F8F0
:1059A0002070FE70F0BC7047020000235B1C7FF08B
:1059B0007F40834210D2DFF8AC01D2B250F822000F
:1059C00000798006F2D5DFF89C01D2B250F82200AF
:1059D000C0790870012002E00020087000207047A4
:1059E00070B504000D00002671192000C0B2FFF749
:1059F000DBFF761CC0B2002805D02878612802D0D1
:105A000028786228F0D1022E01D2002000E0012087
:105A1000C0B270BDDFF84C21C0B252F8202012791C
:105A20001206F7D5DFF83C21C0B252F82020D17120
:105A300070472DE9F047040000255FF000080020C2
:105A40004F49088000204E49488000204C498880FA
:105A500000204B49C8804848408849490881474848
:105A60000068FDF74FFC4649488100204449888181
:105A700000204349C8813E484088414908823D484A
:105A80000068FDF73FFC3E49488200203C4988827F
:105A900000203B49C88253212000C0B2FFF7BAFF63
:105AA00054212000C0B2FFF7B5FF5FF00009B9F143
:105AB000030F2CDA5FF0000ABAF1040F24DA304841
:105AC00010EBC90030F81A0007002D4810EBC90090
:105AD00030F81A0080B2000A06003900C9B220006E
:105AE000C0B2FFF797FF3100C9B22000C0B2FFF784
:105AF00091FF55FA87F555FA86F597EA080896EA70
:105B000008081AF1010AD7E719F10109CFE72900BE
:105B1000C9B22000C0B2FFF77DFF4146C9B22000E4
:105B2000C0B2FFF777FFBDE8F087000040A0044057
:105B300044A00440348004400CB0044010B0044041
:105B40000CC0044008C0044014D0044010D00440ED
:105B500064D0044060D004402880044020C0044049
:105B600024C00440DC10FF1F306DFF1F386DFF1F85
:105B7000DC20FF1F3010FF1FE020FF1F3410FF1F2D
:105B80003C6DFF1F80B50023012206210320FDF795
:105B9000DDFC00F001F801BD80B51648006850F04A
:105BA0004000144908600A20FDF756FD11480068BE
:105BB00030F040000F49086001BD0E49096851F0FE
:105BC00040010C4A116001210170817841707047D9
:105BD000017801290DD14178002907D105490968CB
:105BE00031F04001034A1160002101704178491EE3
:105BF00041707047C0F00F404FF4C06037490860F3
:105C00004FF4C060364908603648006850F00070B4
:105C10003449086000203449086042F2107033496A
:105C2000086000203249086000202F490860314890
:105C3000006850F004002F4908602E48006850F0BA
:105C400001002C4908602C48006850F001002A49E6
:105C500008602A48006850F0C000284908602848B9
:105C60000068274908602648006850F04000244931
:105C70000860234800682248006830F0800020490E
:105C800008601F48006850F008001D490860704710
:105C90001949096811F004010170017800290FD138
:105CA00042F21071104A1268891A42F22832914267
:105CB0000FD20D49096842F21072891A418008E03A
:105CC0000949096842F22832914202D2064909681C
:105CD00041800021044A1160704700002090044078
:105CE000249004403C80044004900340089003400A
:105CF0004C900340549003408090034084900340B4
:105D00000090034080B52948B0F90200FDF7C4FABD
:105D10002749C86227480088FDF7C8FA2649086065
:105D20002548006822498862214800F0FEF9204891
:105D3000406AFDF7E7FA214908601D48406A20499A
:105D400000F08CFA03D81E481949486208E0184848
:105D5000406A1C4900F094FA02D21B481449486278
:105D60001A481349496AFDF7F5FCFDF7CBFA1349C8
:105D70000860124802680321002000F020FC01BDE9
:105D800080B513480068FDF787FA1249C8621148C8
:105D900000F012FA0F48416A0F48FDF74FFDFDF77A
:105DA000B1FA80B200F0CCFC01BD0000E020FF1F82
:105DB0002421FF1F5A6DFF1F3410FF1FE820FF1F13
:105DC00000DC7F47010048420000484200FF7F4757
:105DD0009421FF1FA421FF1F0000B94438B504001F
:105DE0000D00E4B2002C05D1EDB2082D02DBEDB2BE
:105DF000132D0DDBE4B2012C05D1EDB2042D02DB35
:105E0000EDB2122D04DB2221DFF8CC02FDF758FDA4
:105E1000E4B2002C03D0012C00F08280F8E0DFF81F
:105E2000BC02006850F00060DFF8B0120860DFF8D4
:105E3000B002006830F09000DFF8A4120860002083
:105E4000DFF89C120860EDB22800083801280CD950
:105E5000801E01281BD9801E01282AD9801E0128F6
:105E600039D9C01E012848D958E0DFF87802006807
:105E700050F48060DFF86C1208600020EDB2A900D9
:105E800001F1804111F5942141F8200C47E0DFF841
:105E90005402006850F40070DFF8481208600020D7
:105EA000EDB2A90001F1804111F5922141F80C0CED
:105EB00035E0DFF83002006850F48060DFF824122B
