:10000000F8FF00201104000045A700000F67000062
:1000100045A7000045A7000045A7000045A7000030
:1000200045A7000045A7000045A7000045A7000020
:1000300045A7000045A700000D67000011670000FC
:10004000B166000045A7000045A7000045A70000D5
:1000500045A7000045A7000045A7000045A70000F0
:1000600045A7000045A7000045A7000045A70000E0
:1000700045A7000045A7000045A7000045A70000D0
:1000800045A7000045A7000045A7000045A70000C0
:1000900045A7000045A7000045A7000045A70000B0
:1000A00045A7000045A7000045A7000045A70000A0
:1000B00045A7000045A7000045A7000045A7000090
:1000C00045A7000045A7000045A7000045A7000080
:1000D00045A7000045A7000045A7000045A7000070
:1000E00045A7000045A7000045A7000045A7000060
:1000F00045A7000045A7000045A7000013670000C2
:1001000045A700001567000045A70000176700001D
:1001100045A7000045A7000045A70000196700009B
:1001200045A7000045A7000045A7000045A700001F
:1001300045A7000045A70000F36D0000F56D000025
:10014000F76D000045A7000045A7000045A7000087
:10015000656A000045A70000876C0000796C00000C
:1001600045A7000045A7000045A7000045A70000DF
:1001700045A7000045A7000045A7000045A70000CF
:1001800045A7000045A7000045A7000045A70000BF
:1001900045A7000045A7000045A70000976C000098
:1001A000DF6C0000956C0000DD650000F16D000063
:1001B00045A7000045A7000045A7000045A700008F
:1001C00045A7000045A7000045A7000045A700007F
:1001D00045A7000045A7000045A7000045A700006F
:1001E00045A7000045A7000045A7000045A700005F
:10040000FFFFFFFFFFFFFFFFFFFFFFFFFEFFFFFFFD
:1004100062B64FF000004FF000014FF000024FF0C5
:1004200000034FF000044FF000054FF000064FF0BE
:1004300000074FF000084FF000094FF0000A4FF09E
:10044000000B4FF0000C08F019F9FEE700B583B07F
:100450000020DFF8781A08700020DFF8741A81F89D
:10046000100E00F010FBDFF86C0A0079412804DA66
:100470000120DFF8641A087003E00020DFF8581A42
:10048000087000F0CFFC02F0A5FA0020DFF84C1A4B
:100490000870DFF84C0A0078002844D10120DFF80A
:1004A0003C1A08706921DFF83C0A006800F58050AA
:1004B000683000F04DF9DFF8180A90F8100E401D72
:1004C000DFF8101AC978884223DADFF8040A90F8B6
:1004D000100E401DDFF8FC190979884219DADFF89F
:1004E000F00990F8100E401DDFF8E81949798842AC
:1004F0000FDADFF8E0090079C11CDFF8E8090068CD
:10050000DFF8D0291279282303FB0200783000F0AD
:100510001FF9DFF8BC09DFF8B81991F8101E50F880
:10052000210000F018FCDFF8C0090078012840F035
:10053000F0804FF6FF7001904FF478400090DFF8A4
:100540009009DFF88C1991F8101E50F82130DFF86F
:10055000402D6421FA2003F0EFFE4FF6FF7001906A
:100560004FF478400090DFF86809DFF8641991F8DB
:10057000101E081890F8C033DFF8182D7821FA20E3
:1005800003F0DAFE4FF6FF7001904FF478400090D0
:10059000DFF83C09DFF8381991F8101E081890F8B8
:1005A000303C5EA28C21FA2003F0C6FE4FF6FF70AD
:1005B00001904FF478400090DFF81409DFF810192B
:1005C00091F8101E10EB8100D0F8B03454A2A02195
:1005D000FA2003F0B1FE4FF6FF7001904FF478401F
:1005E0000090DFF8EC08DFF8E81891F8101E081802
:1005F00090F8203D4BA2B421FA2003F09DFE4FF667
:10060000FF7001904FF478400090DFF8C408DFF8E5
:10061000C01891F8101E10EB8100D0F8703842A27B
:10062000C821FA2003F088FEDFF8B408007800281B
:100630000CD0022820D014D3042833D027D3062886
:1006400046D03AD3082859D04DD362E04FF6FF7018
:1006500000904FF4784335A2DC21FA2003F098FD96
:1006600057E04FF6FF7000904FF4784330A2DC2142
:10067000FA2003F08DFD4CE04FF6FF7000904FF430
:1006800078432CA2DC21FA2003F082FD41E04FF6F2
:10069000FF7000904FF4784327A2DC21FA2003F08A
:1006A00077FD36E04FF6FF7000904FF4784323A2B9
:1006B000DC21FA2003F06CFD2BE04FF6FF70009078
:1006C0004FF478431EA2DC21FA2003F061FD20E004
:1006D0004FF6FF7000904FF478431AA2DC21FA2005
:1006E00003F056FD15E04FF6FF7000904FF478438D
:1006F00015A2DC21FA2003F04BFD0AE04FF6FF7053
:1007000000904FF4784311A2DC21FA2003F040FD61
:10071000FFE70020DFF8801B087007BD4C000000D9
:100720004C5F560052000000525F56004E00000021
:100730004C700000527000004C69000052690000CB
:100740004C6F0000526F00004C57000052570000E1
:100750002DE9F14F88B00C005FF0A0080A20069048
:100760004FF49B700590002700265FF0000B5FF0B0
:10077000000A5FF0640900208DF808000025DFF80A
:100780001C0B0078002807D1DFF8100B0078401C04
:10079000DFF8081B087011E0DFF8340750F8240078
:1007A000DFF8301749784018022190FBF1F08046BD
:1007B000DFF81C07201890F8C003814600200500D0
:1007C000282D12DA002008280DDA0899695CD0F18A
:1007D0000702114111F00101DFF8C42A10EBC50333
:1007E0009954401CEFE76D1CEAE74646DFF8B00A73
:1007F0003018C07801280BD1DFF8A40A30188078AF
:10080000012805D1DFF8980A30184078012804D073
:100810000598864201DA761CE8E70598864209DAEF
:1008200004960120DFF8A816611881F8200D012038
:10083000824607E0002082460020DFF89416611807
:1008400081F8200D4746DFF8580A381810F8030CD5
:1008500001280DD1DFF8480A381810F8020C0128D9
:1008600006D1DFF83C0A381810F8010C012804D032
:100870000698B84201DA7F1EE5E70698B84209DA21
:1008800003970120DFF84816611881F8300C012029
:10089000834607E0002083460020DFF83416611805
:1008A00081F8300C474501D0464513D100208246DF
:1008B0000020DFF81C16611881F8200D0020834607
:1008C0000020DFF80C16611881F8300C01208DF83B
:1008D000080002E000208DF808009DF808000128BB
:1008E00019D1D22C17DADFF8E80510EB8400C0F834
:1008F0000C8019F10800DFF8D815611881F8C303DE
:10090000E11CDFF8E0050068282202FB04007830D3
:10091000FFF71EFF4CE05AEA0B00002848D0BBF15D
:10092000010F0BD0BAF1010F08D10498B0EB090008
:1009300080460498B0EB4900039039E0BBF1010F09
:100940000BD1BAF1010F08D0039819EB00008046D3
:10095000039810EB490004902AE0BBF1010F27D166
:10096000BAF1010F24D104980399401A03F036FF1D
:1009700000225FF0804303F047FF04F069F88146EE
:10098000B9F1640F02DA6420814604E0B9F18D0FF9
:1009900001DB8C20814604980399081803F01EFFA0
:1009A00000225FF0804303F02FFF04F051F88046EF
:1009B000B8F1230F02DA2320804605E0B8F58F7FD7
:1009C00002DB40F21D108046404603F007FFCDE9F0
:1009D0000001B4F169000021484303F0FFFE00224A
:1009E000DFF89C3C04F05AF80022DFF8983C03F052
:1009F0000BFF0022DFF8903C04F022F9DDE9002330
:100A000004F01EF904F024F8DFF8C41441F82400BF
:100A1000DFF8BC0490F8100EA04203DADFF8B0044F
:100A200080F8104E0398B0F5A07F03DB40F23F1032
:100A3000039004E00398002801D500200390039858
:100A4000DFF88C1411EB8401C1F8B0040498B0F500
:100A5000A07F03DB40F23F10049004E004980028DC
:100A600001D5002004900498DFF8641411EB840190
:100A7000C1F87008DFF85804201880F8C0930020EF
:100A800009B0BDE8F08F2DE9F043DFF848040078A5
:100A9000DFF840144978DFF83C24927800230024E2
:100AA00000255FF0EF0E764680B25FF0080E90FBF7
:100AB000FEFEDFF83084D8F80080F6B25FF0280937
:100AC00009FB06881EF808E080B25FF0080890FB7A
:100AD000F8F909FB1809D9F107085EFA08FE5FEA80
:100AE000CE7E3FD580B25FF0080E90FBFEFEDFF8B1
:100AF000F483D8F80080F6B25FF0280909FB068875
:100B00001EEB080E1EF828EC80B25FF0080890FB80
:100B1000F8F909FB1809D9F107085EFA08FE5FEA3F
:100B2000CE7E1FD580B25FF0080E90FBFEFEDFF890
:100B3000B483D8F80080F6B25FF0280909FB068874
:100B40001EEB080E1EF850EC80B25FF0080890FB18
:100B5000F8F909FB1809D9F107085EFA08FE5FEAFF
:100B6000CE7E04D4F6B2022E01DB761E9CE7F6B2EE
:100B7000EF2E02D05FF0010E7346DFF858E38EF8D7
:100B800003605FF0EF0E774689B25FF0080E91FBCD
:100B9000FEFEDFF85083D8F80080FFB25FF028092E
:100BA00009FB07881EF808E089B25FF0080891FB8E
:100BB000F8F909FB1819D9F107085EFA08FE5FEA8F
:100BC000CE7E3FD589B25FF0080E91FBFEFEDFF8C6
:100BD0001483D8F80080FFB25FF0280909FB07886A
:100BE0001EEB080E1EF828EC89B25FF0080891FB96
:100BF000F8F909FB1819D9F107085EFA08FE5FEA4F
:100C0000CE7E1FD589B25FF0080E91FBFEFEDFF8A5
:100C1000D482D8F80080FFB25FF0280909FB07886A
:100C20001EEB080E1EF850EC89B25FF0080891FB2D
:100C3000F8F909FB1819D9F107085EFA08FE5FEA0E
:100C4000CE7E04D4FFB2022F01DB7F1E9CE7FFB2F1
:100C5000EF2F02D05FF0010E7546DFF878E28EF8D4
:100C600004705FF0EF0EF44692B25FF0080E92FB54
:100C7000FEFEDFF87082D8F800805FFA8CFC5FF02F
:100C8000280909FB0C881EF808E092B25FF00808FA
:100C900092FBF8F909FB1829D9F107085EFA08FE5A
:100CA0005FEACE7E41D592B25FF0080E92FBFEFE67
:100CB000DFF83082D8F800805FFA8CFC5FF02809FA
:100CC00009FB0C881EEB080E1EF828EC92B25FF0B0
:100CD000080892FBF8F909FB1829D9F107085EFA10
:100CE00008FE5FEACE7E20D592B25FF0080E92FB3E
:100CF000FEFEDFF8F081D8F800805FFA8CFC5FF030
:100D0000280909FB0C881EEB080E1EF850EC92B265
:100D10005FF0080892FBF8F909FB1829D9F10708D8
:100D20005EFA08FE5FEACE7E07D45FFA8CFCBCF167
:100D3000020F02DBBCF1010C96E75FFA8CFCBCF100
:100D4000EF0F02D05FF0010E7446DFF888E18EF8F5
:100D500005C0BDE8F08370B504005C480078012848
:100D600001D1002022E0DFF824190E00200003F05A
:100D7000DBFF310003F0F2FF04F00CF80500012066
:100D80005249087056480078012803D0544800782A
:100D9000022805D1D5F1A000DFF8FC1C086004E0B2
:100DA000D4F1A000DFF8F01C0860002070BD38B559
:100DB000002500200400E4B2052C13DA282149485C
:100DC0000068E4B2052202FB04F2282303FB0200C0
:100DD00000F58050683004F026F8062800DA6D1C13
:100DE000641CE8E7EDB2022D09DB3A48C0787828A8
:100DF00003DB38484079782801DA012000E0002040
:100E000032BDDFF8980C006840F6B931884205D24F
:100E1000DFF88C0C0068B0F5166F01D9012000E0F6
:100E20000020704780B500F00AF800F05FF800F08D
:100E30009DFB00F02DFC01F08FFB002002BD10B5E2
:100E4000002427480078002813D100F033FE040066
:100E5000E4B2002C0DD0FFF7D4FF012809D12048BF
:100E60000470DFF8400C006830F02000DFF8341C1C
:100E700008601B480078052811D1FFF7C2FF012840
:100E800022D10720164908700120154981F8400039
:100E90001348B0F844001249A1F8420014E0104889
:100EA0000078062810D1FFF7ACFF01280CD10820EC
:100EB0000B49087001200A4981F840000848B0F841
:100EC00044000749A1F84200002010BDC86DFF1F73
:100ED000A012FF1F6404FF1FC96DFF1FD46DFF1F09
:100EE0006C04FF1FB06DFF1F3B10FF1F2DE9F8437F
:100EF00000208DF80000DFF8B00B0078012806D044
:100F0000DFF8A40B0078022801D00120BEE100A880
:100F100000F0CAF9060016F1010F3FD1DFF8880B87
:100F200090F83000401CDFF8801B81F83000DFF8BB
:100F3000780BC06AFFF70FFFDFF86C0B90F83000FA
:100F40000A28C0F2A281DFF8600B007801280FD1D7
:100F50000320DFF8541B08700120DFF84C1B81F8D8
:100F60003900DFF8440B808FDFF83C1B48878CE1A9
:100F7000DFF8340B0078022840F087810420DFF886
:100F8000281B08700120DFF8201B81F83900DFF8EA
:100F9000180B808FDFF8101B488776E1DFF8080B0D
:100FA0000078012840F0CB80BE4840781E30B04227
:100FB00044DADFF8F40A90F83000401CDFF8E81A51
:100FC00081F830006921DFF8A005006800F5805045
:100FD0006830FFF7BDFBDFF8D40A90F8100E401D13
:100FE000B049C97888421FDADFF8C00A90F8100EBD
:100FF000401DAC490979884216DADFF8B00A90F84A
:10100000100E401DA749497988420DDAA54800799C
:10101000C11CDFF854050068A24A1279282303FB9B
:1010200002007830FFF794FBDFF8800ADFF87C1AC3
:1010300091F8101E50F82100070079E00020DFF839
:10104000681A81F830009DF800005F2836DA300019
:1010500003F0C4FB80468946A6F23F109DF80010BD
:101060006939484303F0BAFB0022DFF8143603F075
:1010700015FD04000D009DF80000DFF82C1A91F812
:101080002B10401A03F0AAFB02000B0020002900DD
:1010900003F0BAFB02000B004046494603F0DEFEB7
:1010A00000225FF0804303F0AFFB0022DFF8003A3C
:1010B00003F0C6FD03F0CCFC070035E0300003F080
:1010C0008DFB80468946A6F23F109DF800106939D5
:1010D000484303F083FB0022DFF8A43503F0DEFC75
:1010E00004000D009DF80000DFF8BC1991F82B10EA
:1010F000401A03F073FB02000B002000290003F0EC
:1011000083FB02000B004046494603F0A7FE002285
:101110005FF0804303F078FB0022DFF8003D03F02E
:101120008FFD03F095FC0700232F01DA2320070031
:10113000DFF87409C7623800FFF70DFE9AE0DFF8A8
:1011400068090078022840F09580564840781E389B
:10115000864244DADFF8500990F83000401CDFF88E
:10116000481981F830006921DFF8FC03006800F5B8
:1011700080506830FFF7ECFADFF8300990F8100E75
:10118000401D4849C97888421FDADFF8200990F8E5
:10119000100E401D43490979884216DADFF80C0920
:1011A00090F8100E401D3F49497988420DDA3D48BC
:1011B0000079C11CDFF8B00300683A4A127928238D
:1011C00003FB02007830FFF7C3FADFF8E008DFF82E
:1011D000DC1891F8101E50F82100070044E00020B0
:1011E000DFF8C41881F83000300003F0F7FA8046C9
:1011F00089469DF80000693800FB06F003F0EEFA1E
:101200000022DFF87C3403F049FC04000D009DF857
:101210000000DFF8941891F82B10401A03F0DEFA62
:1012200002000B002000290003F0EEFA02000B0080
:101230004046494603F012FE0022DFF8DC3C03F092
:10124000FFFC00225FF0804303F0DEFA0022DFF8AB
:10125000CC3C03F0F5FC03F0FBFB0700B7F58F7FF8
:1012600002DB40F21D100700DFF83C08C7623800BF
:10127000FFF771FDDFF8A80C0078012805D11F22C7
:101280006921380080B203F07EFA0020BDE8F283C5
:10129000ECA60000F4A60000D86DFF1FCA6DFF1F6A
:1012A0006011FF1F6404FF1F2DE9F14FBEB00A2437
:1012B0004FF49B750026002700208DF804005FF096
:1012C00000085FF000095FF0000A00F0A9FD00903F
:1012D000DFF8D4070078022805D10098C9280DDB73
:1012E0005FF0FF303CE1DFF8C0070078012805D14E
:1012F0000098782802DA5FF0FF3031E10020814663
:101300005FFA89F9B9F1140F80F2A5809648006858
:101310005FFA89F90321DFF8902792F82A2001FB70
:101320000921282202FB01008346002082465FFA41
:101330008AFABAF1280F1BDA0020C0B2082814DAA2
:10134000DFF8E01B5FFA8AFA5FEACA0252FA80F21B
:101350005FFA8AFA1AF80B30D0F1070C53FA0CF343
:1013600013F001035354401CE7E71AF1010ADEE7CA
:10137000DFF834070078022831D100980700DFF841
:10138000A40B3818C07801280BD1DFF8980B381857
:101390008078012805D1DFF88C0B381840780128B7
:1013A00003D0AF4201DA7F1CE9E7AF4205DA03A8B8
:1013B0005FFA89F920F819704AE0DFF86C0B407881
:1013C0000A30874205DA03A85FFA89F920F8195034
:1013D0003EE003A85FFA89F920F8195038E0DFF8F9
:1013E000C8060078012833D100980600DFF8340BD6
:1013F000301810F8030C01280DD1DFF8280B301835
:1014000010F8020C012806D1DFF8180B301810F87C
:10141000010C012803D0B44201DA761EE6E7B4429B
:1014200005DA0DA85FFA89F920F8196010E0DFF8F5
:10143000F80A40780A38B04205DA0DA85FFA89F94F
:1014400020F8194004E00DA85FFA89F920F8194046
:1014500019F1010954E7DFF850060078022835D168
:10146000002081465FFA89F9B9F1130F6BDA03A8FE
:101470005FFA89F910EB4900408803A95FFA89F9FE
:1014800031F81910401A17A95FFA89F941F82900B3
:1014900017A85FFA89F950F829001F2813DB0120EB
:1014A000804603A85FFA89F930F8190002905FFAC4
:1014B00089F90320DFF8F01591F82A1000FB0910D4
:1014C0003E9908703FE019F10109CBE7DFF8D80534
:1014D0000078012837D1002081465FFA89F9B9F1F7
:1014E000130F30DA0DA85FFA89F910EB4900408834
:1014F0000DA95FFA89F931F81910401A2AA95FFA83
:1015000089F941F829002AA85FFA89F950F82900D9
:1015100010F11E0F14DA01208DF804000DA85FFAF7
:1015200089F930F8190002905FFA89F90320DFF891
:10153000781591F82A1000FB09103E99087002E016
:1015400019F10109C9E75FFA88F8B8F1000F06D16F
:101550009DF80400002802D15FF0FF3000E00298FF
:101560003FB0BDE8F08F0000B06DFF1F80B5DFF821
:1015700038050078032806D0DFF82C050078042809
:1015800001D001207AE0DFF8200590F83810DFF86C
:10159000B40C0068DFF8102592F83820282303FBEC
:1015A0000200FFF7D5F8DFF8040590F8100E401D93
:1015B000DFF87419C978884223DADFF8F00490F86C
:1015C000100E401DDFF860190979884219DADFF83A
:1015D000DC0490F8100E401DDFF84C194979884260
:1015E0000FDADFF844090079C11CDFF8580C0068F5
:1015F000DFF834291279282303FB02007830FFF743
:10160000A7F8DFF8A804DFF8A41491F8101E50F82A
:101610002100FFF7A0FBDFF8900490F83E000128BE
:101620002BD100F017FE012809D1DFF87C0490F8D7
:101630003F00401CDFF8701481F83F0004E00020F8
:10164000DFF8641481F83F00DFF85C0490F83F0095
:10165000022812DBDFF850040078032804D10520AB
:10166000DFF84414087008E0DFF83C040078042830
:1016700003D10620DFF830140870002002BD0000FE
:101680000000F03F000034C0000010405004FF1F75
:101690002DE9F04383B0DFF810040078062806D067
:1016A000DFF804040078052801D00120F1E100A949
:1016B00001A800F03BFC0600DFF8EC0300780628E8
:1016C00040F0F580300003F089F8804689460098A4
:1016D000693800FB06F003F081F80022DFF8683B70
:1016E00003F0DCF904000D0000980199401A03F0A2
:1016F00075F802000B002000290003F085F80200B5
:101700000B004046494603F0A9FB0022DFF80838E9
:1017100003F096FA00225FF0804303F075F803F0BF
:1017200097F90700DFF8000840781E30B84246DA23
:10173000B7F58F7F02DB40F21D1007003800FFF77E
:101740000AFBDFF8080B00780A2803DB0020DFF82B
:10175000FC1A0870D448406BDFF8F41ADFF8EC2A62
:10176000127831F81210401ACF494863DFF8E00AC6
:10177000DFF8D81A097820F81170CB48406BDFF8F1
:10178000D01ADFF8C82A127831F8121010FA81F056
:10179000C5494863DFF8B40A0078401CDFF8AC1A8A
:1017A0000870DFF87C070078012840F0718147F667
:1017B000FF726921380080B202F0E5FF68E1DFF8CE
:1017C00068070079DFF86017C9780A39884208DBB2
:1017D000DFF854074079DFF8501709790A39884251
:1017E0004CDA6921DFF85C0A006800F58050683047
:1017F000FEF7AEFFAD4890F8100E401DDFF8281739
:10180000C978884221DAA94890F8100E401DDFF807
:1018100018170979884218DAA44890F8100E401D6C
:10182000DFF80417497988420FDADFF8FC060079FF
:10183000C11CDFF8100A0068DFF8EC2612792823B3
:1018400003FB02007830FEF783FF9848974991F830
:10185000101E50F82100AB2808DB9448934991F8FA
:10186000101E50F82100FFF776FA11E18E48406B08
:101870000A2190FBF1F0FFF76EFA09E18A48406B0C
:101880000A2190FBF1F0FFF766FADFF89406007882
:10189000012840F0FD804FF61F0269218248406B0D
:1018A0000A2390FBF3F080B202F06DFFF0E07E4877
:1018B0000078052840F0EC80300002F08FFF804671
:1018C0008946A6F23F1000996939484302F086FF25
:1018D0000022DFF8743903F0E1F804000D000098ED
:1018E0000199401A02F07AFF02000B002000290043
:1018F00002F08AFF02000B004046494603F0AEFAB0
:1019000000225FF0804302F07FFF03F0A1F80700A0
:10191000DFF8140640781E38874243DA232F01DAB5
:10192000232007003800FFF716FADFF820090078B7
:101930000A2803DB0020DFF8141908705A48406BAE
:10194000DFF80C19DFF80429127831F81210401A68
:1019500055494863DFF8F808DFF8F018097820F8EF
:1019600011705148406BDFF8E818DFF8E028127872
:1019700031F8121010FA81F04B494863DFF8CC08B7
:101980000078401CDFF8C4180870DFF89405007870
:1019900001287DD147F6FF726921380080B202F03C
:1019A000F2FE75E0DFF880050079DFF87C154979F3
:1019B0000A39884208DBDFF87005C078DFF868155F
:1019C00009790A3988424CDA6921DFF87808006819
:1019D00000F580506830FEF7BBFE344890F8100EDA
:1019E000401DDFF84415C978884221DA2F4890F865
:1019F000100E401DDFF830150979884218DA2B489F
:101A000090F8100E401DDFF82015497988420FDA52
:101A1000DFF814050079C11CDFF828080068DFF83A
:101A200008251279282303FB02007830FEF790FE88
:101A30001E481E4991F8101E50F82100962808DA19
:101A40001A481A4991F8101E50F82100FFF783F93F
:101A50001EE01548406B0A2190FBF1F0FFF77BF97F
:101A600016E01148406B0A2190FBF1F0FFF773F983
:101A7000DFF8AC04007801280AD14FF61F02692173
:101A80000948406B0A2390FBF3F080B202F07BFE22
:101A90000020BDE8FE8300001022FF1F4821FF1F29
:101AA0004C21FF1FC0F00F406C04FF1FA012FF1F4E
:101AB000000049402DE9F04FA3B00A214FF49B727A
:101AC000002300240025002600208DF803000020BC
:101AD0008DF8020000208DF8010000208DF8000034
:101AE00000275FF0000E00200700FFB20A2F80F2EF
:101AF000A180DFF850070068FFB25FF0030CDFF849
:101B0000349B99F82A900CFB079C5FF0280909FB8D
:101B10000C008046002086465FFA8EFEBEF1280F3C
:101B20001CDA0020C0B2082815DADFF8F8C35FFA23
:101B30008EFE5FEACE0959FA80F95FFA8EFE1EF832
:101B400008A0D0F1070B5AFA0BFA1AF0010A09F8AB
:101B50000CA0401CE6E71EF1010EDDE7DFF8C8032C
:101B600040780400DFF8BC032018C07801280BD1AE
:101B7000DFF8B00320188078012805D1DFF8A4032E
:101B800020184078012803D0944201DA641CE9E768
:101B9000944206DADFF89C0AFFB210EB4700C482D9
:101BA00012E0DFF8840340780A30844206DADFF876
:101BB000840AFFB210EB4700C28205E0DFF8740A26
:101BC000FFB210EB4700C282D74840780300D548E7
:101BD000181810F8030C01280BD1D248181810F867
:101BE000020C012805D1CF48181810F8010C012863
:101BF00003D0994201DA5B1EE9E7994206DADFF881
:101C0000340AFFB210EB4700438011E0C648407829
:101C10000A38984206DADFF81C0AFFB210EB4700D8
:101C2000418005E0DFF80C0AFFB210EB470041806D
:101C30007F1C5AE700200700FFB2092F29DADFF8DE
:101C4000F409FFB210EB47008088DFF8E8C9FFB263
:101C50001CEB470CBCF802C0B0EB0C000DF1680C9B
:101C6000FFB24CF82700DFF8CC09FFB210EB4700B9
:101C7000008BDFF8C0C9FFB21CEB470CBCF816C0E4
:101C8000B0EB0C000DF1440CFFB24CF827007F1CA8
:101C9000D2E700200700FFB2082F80F29D801AA82B
:101CA000FFB210EB870040680DF1680CFFB25CF8E2
:101CB00027C0B0EB0C000DF1240CFFB24CF827004C
:101CC00011A8FFB210EB870040680DF1440CFFB281
:101CD0005CF827C0B0EB0C000DF1040CFFB24CF81F
:101CE000270009A8FFB250F82700012804DB09A843
:101CF000FFB250F8270004E009A8FFB250F827000F
:101D00004042032812DA1AA8FFB250F8270001282F
:101D100004DB1AA8FFB250F8270004E01AA8FFB2AB
:101D200050F827004042012800DB6D1C01A8FFB2DB
:101D300050F82700012804DB01A8FFB250F8270063
:101D400004E001A8FFB250F827004042032812DA4D
:101D500011A8FFB250F82700012804DB11A8FFB238
:101D600050F8270004E011A8FFB250F827004042C5
:101D7000012800DB761C09A8FFB250F8270010F1FB
:101D80001E0F10DADFF8AC08FFB210EB47004088F6
:101D9000472808DBFFB2F81EA84204DA012D02DB57
:101DA00001208DF8010001A8FFB250F827001F287C
:101DB00010DBDFF88008FFB210EB4700C08AF9287B
:101DC00008DAFFB2F81EB04204DA012E02DB01206D
:101DD0008DF800007F1C5EE7062D02DB01208DF8E8
:101DE0000300062E02DB01208DF802009DF803009F
:101DF000002805D09DF80000012801D102200AE04A
:101E00009DF80200002805D09DF80100012801D1AD
:101E1000012000E0002023B0BDE8F08F00003E402C
:101E200030B585B000200500EDB2142D6BDAB4207A
:101E30000400EDB20A2000FB05F04130082190FBC0
:101E4000F1F0DFF800140968E4B2282202FB041163
:101E5000405CEDB20A2101FB05F14131082291FB02
:101E6000F2F303FB1213D3F107010841C00740D579
:101E7000EDB20A2000FB05F04130082190FBF1F0A3
:101E8000DFF8C0130968E4B2282202FB04114018ED
:101E900010F8280CEDB20A2101FB05F141310822AE
:101EA00091FBF2F303FB1213D3F107010841C007C2
:101EB0001FD5EDB20A2000FB05F04130082190FB50
:101EC000F1F0E0490968E4B2282202FB041140184D
:101ED00010F8500CEDB20A2101FB05F14131082246
:101EE00091FBF2F303FB1213D3F107010841C00782
:101EF00004D4E4B20A2C01DB641E9AE700A8EDB218
:101F00002C546D1C90E7142100A802F065FF0A21F3
:101F10004843413005B030BD00F07340000024C09C
:101F20003B10FF1F6011FF1F6404FF1FF0B5B6B028
:101F300002000023A020DFF8FC663678062E40F071
:101F4000AF8000263500EDB2192D5DDAEF263400A2
:101F5000EDB2AE00082796FBF7F6BA4F3F68E4B241
:101F60005FF0280C0CFB0477F65DEDB2AF005FF07C
:101F7000080C97FBFCFE0EFB1C7EDEF107073E41C2
:101F8000F60737D5EDB2AE00082796FBF7F6AD4F52
:101F90003F68E4B25FF0280C0CFB0477F61916F8E2
:101FA000286CEDB2AF005FF0080C97FBFCFE0EFB57
:101FB0001C7EDEF107073E41F6071BD5EDB2AE00F1
:101FC000082796FBF7F69F4F3F68E4B25FF0280CB6
:101FD0000CFB0477F61916F8506CEDB2AF005FF009
:101FE000080C97FBFCFE0EFB1C7EDEF107073E4152
:101FF000F60704D4E4B20A2C01DB641EA8E700AEA5
:10200000EDB2AC556D1C9EE700263500EDB2182DE3
:102010000DDA00AEEDB2AE19767800AFEDB2EF5D3D
:10202000F61B1EAFEDB247F825606D1CEEE70026EB
:102030003500EDB2172D2FDA1EAEEDB216EB850688
:1020400076681EAFEDB257F82570F61B07AFEDB2FC
:1020500047F8256007AEEDB256F82560012E04DB87
:1020600007AEEDB256F8256004E007AEEDB256F8C3
:1020700025607642032E00DA5B1C07AEEDB256F8FF
:10208000256016F10F0F05DAEDB2AE1E9E4201DAA1
:10209000022B01DA6D1CCCE7EDB2AE003000C8E0D7
:1020A000DFF890653678052E40F0C38000263500B5
:1020B000EDB2192D6FDAEF26340040F23F16EDB283
:1020C000B6EB8506082796FBF7F65E4F3F68E4B24D
:1020D0005FF0280C0CFB0477F65D40F23F17EDB281
:1020E000B7EB85075FF0080C97FBFCFE0EFB1C7E30
:1020F000DEF107073E41F60743D540F23F16EDB249
:10210000B6EB8506082796FBF7F64E4F3F68E4B21C
:102110005FF0280C0CFB0477F61916F8286C40F2D7
:102120003F17EDB2B7EB85075FF0080C97FBFCFE9D
:102130000EFB1C7EDEF107073E41F60721D540F27B
:102140003F16EDB2B6EB8506082796FBF7F63D4F36
:102150003F68E4B25FF0280C0CFB0477F61916F820
:10216000506C40F23F17EDB2B7EB85075FF0080CFB
:1021700097FBFCFE0EFB1C7EDEF107073E41F607D7
:1021800004D4E4B20A2C01DB641E96E700AEEDB283
:10219000AC556D1C8CE700263500EDB2182D0DDA1C
:1021A00000AEEDB2AE19767800AFEDB2EF5DF61B82
:1021B0001EAFEDB247F825606D1CEEE70026350036
:1021C000EDB2172D2FDA1EAEEDB216EB850676684E
:1021D0001EAFEDB257F82570F61B07AFEDB247F80A
:1021E000256007AEEDB256F82560012E04DB07AE80
:1021F000EDB256F8256004E007AEEDB256F8256062
:102200007642032E00DA5B1C07AEEDB256F825606D
:1022100016F10F0F05DAEDB2AE1E9E4201DA022B67
:1022200001DA6D1CCCE740F23F16EDB2B6EB850645
:1022300030009DF80060166000AEEDB2AE5D0E603D
:1022400036B0F0BDB06DFF1F0000F03FCB6DFF1F3B
:10225000B420FF1FF0B4C1B000210020DFF8D44348
:102260002478042C40F0B28000242300DBB21E2B23
:1022700060DAEF242200DBB29C001E34082594FBB8
:10228000F5F4DFF8BC5B2D68D2B2282606FB0255B8
:10229000645DDBB29D001E35082695FBF6F707FB53
:1022A0001657D7F107052C41E40739D5DBB29C005E
:1022B0001E34082594FBF5F4DFF8845B2D68D2B258
:1022C000282606FB0255641914F8284CDBB29D0041
:1022D0001E35082695FBF6F707FB1657D7F10705BD
:1022E0002C41E4071CD5DBB29C001E34082594FB6E
:1022F000F5F4DFF84C5B2D68D2B2282606FB0255B8
:10230000641914F8504CDBB29D001E35082695FB6D
:10231000F6F707FB1657D7F107052C41E40704D45D
:10232000D2B20A2A01DB521EA5E700ACDBB21A5575
:102330005B1C9BE700242300DBB21D2B0DDA00ACF5
:10234000DBB21C19647800ADDBB25D5D641B24ADAB
:10235000DBB245F823405B1CEEE700242300DBB230
:102360001C2B80F2F58024ACDBB214EB8304646890
:1023700024ADDBB255F82350641B08ADDBB245F841
:10238000234008ACDBB254F82340012C04DB08AC3A
:10239000DBB254F8234004E008ACDBB254F823402D
:1023A0006442032C00DA491C08ACDBB254F8234029
:1023B00014F10F0F08DADBB29C1E8C4204DA0229FA
:1023C00002DB01242000C3E05B1CC8E7994C2478A1
:1023D000032C40F0BD8000242300DBB21E2B6CDAFE
:1023E000EF24220040F22114DBB2B4EB8304082571
:1023F00094FBF5F4DFF8485A2D68D2B2282606FB84
:102400000255645D40F22115DBB2B5EB8305082669
:1024100095FBF6F707FB1657D7F107052C41E407A4
:1024200041D540F22114DBB2B4EB8304082594FBC0
:10243000F5F4DFF80C5A2D68D2B2282606FB0255B7
:10244000641914F8284C40F22115DBB2B5EB830572
:10245000082695FBF6F707FB1657D7F107052C4121
:10246000E40720D540F22114DBB2B4EB8304082545
:1024700094FBF5F4DFF8C8592D68D2B2282606FB84
:102480000255641914F8504C40F22115DBB2B5EB3B
:102490008305082695FBF6F707FB1657D7F10705C6
:1024A0002C41E40704D4D2B20A2A01DB521E99E778
:1024B00000ACDBB21A555B1C8FE700242300DBB2B3
:1024C0001D2B0DDA00ACDBB21C19647800ADDBB259
:1024D0005D5D641B24ADDBB245F823405B1CEEE779
:1024E00000242300DBB21C2B32DA24ACDBB214EB69
:1024F0008304646824ADDBB255F82350641B08AD37
:10250000DBB245F8234008ACDBB254F82340012C81
:1025100004DB08ACDBB254F8234004E008ACDBB2C7
:1025200054F823406442032C00DA491C08ACDBB2A7
:1025300054F8234014F10F0F08DADBB29C1E8C42D2
:1025400004DA022902DB0124200001E05B1CC9E758
:10255000C0B241B0F0BC704710B582B035480078C9
:10256000072805D033480078082801D001205FE013
:1025700000A800F061F8040014F1010F41D16921B5
:10258000DFF8BC08006800F580506830FEF7E0F81E
:10259000DFF8B00890F8100E401DDFF8AC18C978CD
:1025A000884223DADFF89C0890F8100E401DDFF80F
:1025B00098180979884219DADFF8880890F8100E1F
:1025C000401DDFF88418497988420FDADFF878086F
:1025D0000079C11CDFF868080068DFF86C28127900
:1025E000282303FB02007830FEF7B2F8DFF8540826
:1025F000DFF8501891F8101E50F82100FEF7ABFBE1
:1026000015E09DF80010DFF8380800689DF80020FC
:10261000282303FB0200FEF79BF8DFF82808DFF809
:10262000241891F8101E50F82100FEF794FB0020AA
:1026300016BD00006C04FF1F2DE9F14FE2B00A2423
:102640004FF49B75002600275FF000085FF000093B
:1026500000208DF8010000208DF800005FF0000AD6
:102660005FF0000BFFF7DCFB0190DFF8C40300789C
:10267000022805D10198C9280DDB5FF0FF30A6E1E3
:10268000DFF8AC030078012805D10198782802DA38
:102690005FF0FF309BE1002082465FFA8AFABAF1D0
:1026A000140F80F2A780DFF8980700685FFA8AFAB3
:1026B0000321DFF87C2392F82A2001FB0A2128223B
:1026C00002FB01000390002083465FFA8BFBBBF105
:1026D000280F1CDA0020C0B2082815DADFF8281D00
:1026E0005FFA8BFB5FEACB0252FA80F2039B5FFA40
:1026F0008BFB1BF80330D0F1070C53FA0CF313F0EB
:1027000001035354401CE6E71BF1010BDDE7C84809
:102710000078082831D101980700DFF8EC0C381850
:10272000C07801280BD1DFF8E00C38188078012838
:1027300005D1DFF8D40C38184078012803D0AF4217
:1027400001DA7F1CE9E7AF4205DA04A85FFA8AFAEA
:1027500020F81A704BE0DFF8F00640780A30874224
:1027600005DA04A85FFA8AFA20F81A503FE004A8B4
:102770005FFA8AFA20F81A5039E0AD480078072845
:1027800035D1DFF8C40640780600DFF87C0C30183D
:1027900010F8030C01280DD1DFF86C0C301810F87C
:1027A000020C012806D1DFF8600C301810F8010C7B
:1027B000012803D0B44201DA761EE6E7B44205DA16
:1027C0000EA85FFA8AFA20F81A6010E0DFF878069F
:1027D00040780A38B04205DA0EA85FFA8AFA20F883
:1027E0001A4004E00EA85FFA8AFA20F81A401AF19B
:1027F000010A52E7002082465FFA8AFABAF1130F03
:102800002DDA8B480078082811D104A85FFA8AFADB
:1028100010EB4A00408804A95FFA8AFA31F81A10CE
:10282000401A3CA95FFA8AFA41F82A0014E080486D
:102830000078072810D10EA85FFA8AFA10EB4A0038
:1028400040880EA95FFA8AFA31F81A10401A4FA987
:102850005FFA8AFA41F82A001AF1010ACCE700204F
:1028600082465FFA8AFABAF1120F80F2A4807048A9
:10287000007808284CD13CA85FFA8AFA10EB8A004D
:1028800040683CA95FFA8AFA51F82A10401A18A940
:102890005FFA8AFA41F82A0018A85FFA8AFA50F813
:1028A0002A00012805DB18A85FFA8AFA50F82A00E6
:1028B00005E018A85FFA8AFA50F82A004042032877
:1028C00001DA19F1010918A85FFA8AFA50F82A000A
:1028D00010F11E0F6CDA5FFA8AFABAF1030048456C
:1028E00066DAB9F1020F63DB01208DF8000004A85D
:1028F0005FFA8AFA30F81A0002905FFA8AFA032027
:102900004B4991F82A1000FB0A106299087052E0B6
:102910004748007807284BD14FA85FFA8AFA10EB96
:102920008A0040684FA95FFA8AFA51F82A10401AC3
:102930002AA95FFA8AFA41F82A002AA85FFA8AFAD5
:1029400050F82A00012805DB2AA85FFA8AFA50F815
:102950002A0005E02AA85FFA8AFA50F82A004042C5
:10296000032801DA18F101082AA85FFA8AFA50F858
:102970002A001F281CDB5FFA8AFABAF103004045DF
:1029800016DAB8F1020F13DB01208DF801000EA852
:102990005FFA8AFA30F81A0002905FFA8AFA032086
:1029A000234991F82A1000FB0A106299087002E08E
:1029B0001AF1010A55E79DF80000002806D19DF89C
:1029C0000100002802D15FF0FF3000E0029863B000
:1029D000BDE8F08F80B516480078002801D00120AE
:1029E0000AE00020DFF8481D087000F006F800F04B
:1029F00021F801F035F8002002BD10B50024DFF801
:102A0000300D0078032809D0DFF8240D0078042861
:102A100004D0DFF81C0D0078052801D1012005E065
:102A200000F098FE00F012FA0400002010BD000033
:102A30006C04FF1F2DE9F04383B0DFF8F40C00783D
:102A4000032806D0DFF8E80C0078042801D0012024
:102A5000F3E100A901A800F0D9FC0600DFF8D00CD2
:102A60000078032840F0F680300001F0B7FE804681
:102A700089460098693800FB06F001F0AFFE00229D
:102A8000DFF8B03C02F00AF804000D00009801994C
:102A9000401A01F0A3FE02000B002000290001F003
:102AA000B3FE02000B004046494602F0D7F900226F
:102AB000DFF8843C02F0C4F800225FF0804301F0AC
:102AC000A3FE0022DFF8743C02F0BAF801F0C0FF68
:102AD0000700DFF8740340781E30B8424ADAB7F5D1
:102AE0008F7F02DB40F21D1007003800FEF733F93C
:102AF000DFF84C0C00780A2803DB0020DFF8401CCC
:102B00000870DFF82C0C4068DFF8381CDFF8302C38
:102B1000127831F81210401ADFF8141C4860DFF800
:102B2000240CDFF81C1C097820F81170DFF8000C69
:102B30004068DFF8101CDFF8082C127831F812100A
:102B400010FA81F0DFF8E81B4860DFF8F40B00783A
:102B5000401CDFF8EC1B0870DFF8EC0B0078012854
:102B600040F06A8147F6FF726921380080B201F0B7
:102B70000AFE61E1B4480079B349C9780A3988424C
:102B800006DBB1484079B04909790A39884246DA0A
:102B90006921AB48006800F580506830FDF7D8FD2A
:102BA000A84890F8100E401DA749C97888421CDA41
:102BB000A44890F8100E401DA3490979884214DA00
:102BC000A04890F8100E401D9F49497988420CDAC0
:102BD0009D480079C11C9A4800689B4A12792823B5
:102BE00003FB02007830FDF7B3FD9648954991F854
:102BF000101E50F82100AB2808DB9248914991F84B
:102C0000101E50F82100FEF7A6F815E1DFF8200BA2
:102C100040680A2190FBF1F0FEF79DF80CE1DFF827
:102C2000100B40680A2190FBF1F0FEF794F8DFF8F2
:102C3000180B0078012840F0FF804FF61F02692131
:102C4000DFF8EC0A40680A2390FBF3F080B201F051
:102C50009AFDF1E0DFF8D80A0078042840F0EC8013
:102C6000300001F0BBFD80468946A6F23F10009976
:102C70006939484301F0B2FD0022DFF8B83A01F0AB
:102C80000DFF04000D0000980199401A01F0A6FD07
:102C900002000B002000290001F0B6FD02000B002D
:102CA0004046494602F0DAF800225FF0804301F026
:102CB000ABFD0022DFF8943A01F0C2FF01F0C8FE3C
:102CC0000700614840781E38874247DA232F01DA2F
:102CD000232007003800FEF73EF8DFF8640A00788A
:102CE0000A2803DB0020DFF8581A0870DFF8400AD2
:102CF0004068DFF8501ADFF8482A127831F81210CD
:102D0000401ADFF82C1A4860DFF8380ADFF8301A6A
:102D1000097820F81170DFF8180A4068DFF8241AE3
:102D2000DFF81C2A127831F8121010FA81F0DFF85F
:102D3000001A4860DFF8080A0078401CDFF8001A23
:102D40000870DFF8040A0078012875D147F6FF7291
:102D50006921380080B201F016FD6DE03A48007933
:102D6000394949790A39884206DB3748C0783649FB
:102D700009790A39884246DA69213148006800F544
:102D800080506830FDF7E4FC2E4890F8100E401D8E
:102D90002D49C97888421CDA2A4890F8100E401D47
:102DA00029490979884214DA264890F8100E401D06
:102DB0002549497988420CDA23480079C11C20480A
:102DC0000068214A1279282303FB02007830FDF7BE
:102DD000BFFC1C481B4991F8101E50F82100962892
:102DE00008DA1848174991F8101E50F82100FDF72D
:102DF000B2FF21E0DFF8380940680A2190FBF1F0CA
:102E0000FDF7A9FF18E0DFF8280940680A2190FBC8
:102E1000F1F0FDF7A0FFDFF83009007801280BD1B1
:102E20004FF61F026921DFF8080940680A2390FB6A
:102E3000F3F080B201F0A7FC0020BDE8FE830000A3
:102E4000B06DFF1FA012FF1F6404FF1F2DE9F04F9C
:102E5000ADF5B56D0A2004904FF49B7003900021EE
:102E600000220023002400208DF80B0000208DF8A4
:102E70000A0000208DF8070000208DF806000020D1
:102E80008DF8050000208DF804000025002600279D
:102E90005FF0000C5FF0000E8DF809E05FF0000EAF
:102EA0008DF808E05FF0000ECDF818E05FF0000E3E
:102EB000CDF814E05FF0000E5FF0000800208646B9
:102EC0005FFA8EFEBEF13C0F80F2A080DFF8800832
:102ED0000068DFF85C9899F808905FFA8EFEB9EB0D
:102EE0004E095FF0280A0AFB0909CDF81C90002062
:102EF00080465FFA88F8B8F1280F22DA0020C0B2C5
:102F000008281BDADFF800A55FFA88F85FEAC8092D
:102F100059FA80F9CDF800A0DDF81CA05FFA88F816
:102F200018F80AB0D0F1070A5BFA0AFA1AF0010A97
:102F3000DDF800B009F80BA0401CE0E718F101082B
:102F4000D7E7DFF8EC070078022829D12320020018
:102F5000DFF8B4041018C07801280BD1DFF8A804FA
:102F600010188078012805D1DFF89C0410184078EB
:102F7000012804D00398824201DA521CE8E7039842
:102F8000824205DAF2A85FFA8EFE40F82E203AE07F
:102F900003980DF572795FFA8EFE49F82E0032E043
:102FA000DFF88C07007801282DD140F21D100100B8
:102FB000DFF85404081810F8030C01280DD1DFF8CD
:102FC0004804081810F8020C012806D1DFF838046C
:102FD000081810F8010C012804D00498884201DA7E
:102FE000491EE5E70498884206DA0DF597605FFA16
:102FF0008EFE40F82E1006E004980DF597695FFAF2
:103000008EFE49F82E001EF1010E59E7DFF8200769
:10301000007802287BD1002086465FFA8EFEBEF142
:103020003B0F26DAF2A85FFA8EFE10EB8E004068A6
:103030000DF572795FFA8EFE59F82E90B0EB09000B
:103040000DF5F8795FFA8EFE49F82E007CA85FFA3C
:103050008EFE50F82E0010F1640F07DA5FF00109C0
:103060008DF808905FFA8EFECDF814E01EF1010E87
:10307000D3E7002086465FFA8EFEBEF13B0F80F25A
:10308000C4809DF80600002808D17CA85FFA8EFE57
:1030900050F82E00012801DA761C35E09DF8060074
:1030A000002824D15FFA8EFEBEF1320F1FDA7CA811
:1030B0005FFA8EFE50F82E00012818DB7CA85FFA1C
:1030C0008EFE10EB8E004068012810DB7CA85FFAB2
:1030D0008EFE10EB8E008068012808DB5FF001098E
:1030E0008DF806901CF1010C8DF804E00CE09DF8C1
:1030F0000600012808D17CA85FFA8EFE50F82E0049
:10310000012801DB1CF1010C1EF1010EB3E7DFF811
:1031100020060078012878D1002086465FFA8EFECE
:10312000BEF13B0F26DA0DF597605FFA8EFE10EBCD
:103130008E0040680DF597695FFA8EFE59F82E9063
:10314000B0EB09000DF537795FFA8EFE49F82E00D5
:10315000B7A85FFA8EFE50F82E00652807DB5FF0F7
:1031600001098DF809905FFA8EFECDF818E01EF186
:10317000010ED3E7002086465FFA8EFEBEF13B0FBC
:1031800043DA9DF80700002808D1B7A85FFA8EFE41
:1031900050F82E00002801D46D1C33E09DF8070084
:1031A000002823D15FFA8EFEBEF1320F1EDAB7A8D7
:1031B0005FFA8EFE50F82E00002817D5B7A85FFAE8
:1031C0008EFE10EB8E00406800280FD5B7A85FFA7E
:1031D0008EFE10EB8E008068002807D55FF0010995
:1031E0008DF807907F1C8DF805E00BE09DF8070037
:1031F000012807D1B7A85FFA8EFE50F82E000028EC
:1032000000D57F1C1EF1010EB6E7DFF8240500781B
:10321000022842D1002086469DF804005FFA8EFE07
:1032200086452CD27CA85FFA8EFE10EB8E0040689B
:103230000DF5F8795FFA8EFE59F82E90B0EB090083
:103240000DF120095FFA8EFE49F82E0008A85FFAFA
:103250008EFE50F82E00012805DB08A85FFA8EFECE
:1032600050F82E0005E008A85FFA8EFE50F82E00F8
:103270004042032800DA641C1EF1010ECCE79DF8E1
:10328000040040005FF0030990FBF9F0A0424BDA24
:103290005FF001098DF80A9046E0DFF894040078A9
:1032A000012841D1002086469DF805005FFA8EFE78
:1032B00086452CD2B7A85FFA8EFE10EB8E004068D0
:1032C0000DF537795FFA8EFE59F82E90B0EB0900B4
:1032D0000DF584795FFA8EFE49F82E0042A85FFA58
:1032E0008EFE50F82E00012805DB42A85FFA8EFE04
:1032F00050F82E0005E042A85FFA8EFE50F82E002E
:103300004042032800DA5B1C1EF1010ECCE79DF859
:10331000050040005FF0030990FBF9F0984203DAE2
:103320005FF001098DF80B90DFF8040400780228A3
:103330002FD19DF80A00002860D09DF806000028D3
:103340005CD09DF80400062858DB9DF8040040007E
:103350005FF0030990FBF9F0B0424FDA9DF80400EA
:103360002D284BDA9DF80800002847D005989DF8D5
:103370000490B0EB090040005FF0030990FBF9F006
:1033800060453BDA0420DFF8A89389F800000120AB
:1033900035E0DFF89C03007801282FD19DF80B0061
:1033A00000282BD09DF80700002827D09DF80500A5
:1033B000062823DB9DF8050040005FF0030990FB21
:1033C000F9F0A8421ADA9DF805002D2816DA9DF8C2
:1033D0000900002812D006989DF80590B0EB09006E
:1033E00040005FF0030990FBF9F0B84206DA0320D1
:1033F000DFF83C9389F80000012000E000200DF583
:10340000B56DBDE8F08F00006011FF1FF0B5B6B0DC
:1034100002000023A020C64E3678032E40F0B28072
:1034200000263500EDB2192D60DAEF263400EDB23A
:10343000AE00082796FBF7F6DFF8BC763F68E4B2EB
:103440005FF0280C0CFB0477F65DEDB2AF005FF087
:10345000080C97FBFCFE0EFB1C7EDEF107073E41CD
:10346000F60739D5EDB2AE00082796FBF7F6DFF880
:1034700088763F68E4B25FF0280C0CFB0477F619FD
:1034800016F8286CEDB2AF005FF0080C97FBFCFE5D
:103490000EFB1C7EDEF107073E41F6071CD5EDB2A0
:1034A000AE00082796FBF7F6DFF84C763F68E4B2EB
:1034B0005FF0280C0CFB0477F61916F8506CEDB28F
:1034C000AF005FF0080C97FBFCFE0EFB1C7EDEF1EC
:1034D00007073E41F60704D4E4B20A2C01DB641E60
:1034E000A5E700AEEDB2AC556D1C9BE7002635009C
:1034F000EDB2182D0DDA00AEEDB2AE19767800AF50
:10350000EDB2EF5DF61B1EAFEDB247F825606D1C06
:10351000EEE700263500EDB2172D2FDA1EAEEDB224
:1035200016EB850676681EAFEDB257F82570F61BD0
:1035300007AFEDB247F8256007AEEDB256F825604B
:10354000012E04DB07AEEDB256F8256004E007AEAD
:10355000EDB256F825607642032E00DA5B1C07AE0A
:10356000EDB256F8256016F10F0F05DAEDB2AE1E7A
:103570009E4201DA022B01DA6D1CCCE7EDB2AE00FF
:103580003000CAE06A4E3678042E40F0C68000262D
:103590003500EDB2192D72DAEF26340040F23F16F5
:1035A000EDB2B6EB8506082796FBF7F6DFF848750F
:1035B0003F68E4B25FF0280C0CFB0477F65D40F244
:1035C0003F17EDB2B7EB85075FF0080C97FBFCFEE9
:1035D0000EFB1C7EDEF107073E41F60745D540F2A3
:1035E0003F16EDB2B6EB8506082796FBF7F6DFF837
:1035F00008753F68E4B25FF0280C0CFB0477F619FD
:1036000016F8286C40F23F17EDB2B7EB85075FF074
:10361000080C97FBFCFE0EFB1C7EDEF107073E410B
:10362000F60722D540F23F16EDB2B6EB8506082725
:1036300096FBF7F6DFF8C0743F68E4B25FF0280C41
:103640000CFB0477F61916F8506C40F23F17EDB2F8
:10365000B7EB85075FF0080C97FBFCFE0EFB1C7EAA
:10366000DEF107073E41F60704D4E4B20A2C01DB81
:10367000641E93E700AEEDB2AC556D1C89E70026E1
:103680003500EDB2182D0DDA00AEEDB2AE19767838
:1036900000AFEDB2EF5DF61B1EAFEDB247F825604F
:1036A0006D1CEEE700263500EDB2172D2FDA1EAEA9
:1036B000EDB216EB850676681EAFEDB257F82570B1
:1036C000F61B07AFEDB247F8256007AEEDB256F82E
:1036D0002560012E04DB07AEEDB256F8256004E04C
:1036E00007AEEDB256F825607642032E00DA5B1C79
:1036F00007AEEDB256F8256016F10F0F05DAEDB200
:10370000AE1E9E4201DA022B01DA6D1CCCE740F2BC
:103710003F16EDB2B6EB850630009DF800601660EE
:1037200000AEEDB2AE5D0E60C0B236B0F0BD0000CE
:10373000B404FF1F0000F03F00F07340000024407D
:10374000CC6DFF1FC820FF1F3B10FF1F000024C0CF
:10375000B06DFF1FF0B4B6B00023002400200200BB
:10376000D2B20A2A80F2D780EF200100D2B2032021
:1037700000FB02F0082590FBF5F0DFF87C532D6884
:10378000C9B2282606FB0155405DD2B2032505FBD0
:1037900002F5082695FBF6F707FB1657D7F1070544
:1037A0002841C0073BD5D2B2032000FB02F0082518
:1037B00090FBF5F0D04D2D68C9B2282606FB0155C7
:1037C000401910F8280CD2B2032505FB02F5082693
:1037D00095FBF6F707FB1657D7F107052841C007F9
:1037E0001DD5D2B2032000FB02F0082590FBF5F0B6
:1037F000C14D2D68C9B2282606FB0155401910F8A5
:10380000500CD2B2032505FB02F5082695FBF6F70E
:1038100007FB1657D7F107052841C00704D4C9B2E2
:10382000822901DB491EA1E7C9B22CA8D2B240F817
:103830002210EF20010040F23F10D2B2032505FB19
:103840001200082590FBF5F0AB4D2D68C9B2282673
:1038500006FB0155405D40F23F15D2B2032606FB40
:103860001255082695FBF6F707FB1657D7F1070503
:103870002841C00743D540F23F10D2B2032505FBD3
:103880001200082590FBF5F09B4D2D68C9B2282643
:1038900006FB0155401910F8280C40F23F15D2B232
:1038A000032606FB1255082695FBF6F707FB16576D
:1038B000D7F107052841C00721D540F23F10D2B209
:1038C000032505FB1200082590FBF5F08A4D2D68B5
:1038D000C9B2282606FB0155401910F8500C40F2D9
:1038E0003F15D2B2032606FB1255082695FBF6F7C4
:1038F00007FB1657D7F107052841C00704D4C9B202
:10390000822901DB491E96E7C9B222A8D2B240F84B
:103910002210521C24E700200200D2B2092A1DDA2C
:103920002CA8D2B210EB820040682CADD2B255F870
:103930002250401B19ADD2B245F8220022A8D2B2C3
:1039400010EB8200406822ADD2B255F82250401BE5
:1039500010ADD2B245F82200521CDEE70020020072
:10396000D2B2082A67DA19A8D2B210EB82004068F6
:1039700019ADD2B255F82250401B08ADD2B245F86D
:10398000220010A8D2B210EB8200406810ADD2B273
:1039900055F82250401B00ADD2B245F8220008A8CD
:1039A000D2B250F82200012804DB08A8D2B250F8A5
:1039B000220004E008A8D2B250F8220040420328B6
:1039C00012DA19A8D2B250F82200012804DB19A893
:1039D000D2B250F8220004E019A8D2B250F8220066
:1039E0004042012800DB5B1C00A8D2B250F8220044
:1039F000012804DB00A8D2B250F8220004E000A89D
:103A0000D2B250F822004042032812DA10A8D2B2F3
:103A100050F82200012804DB10A8D2B250F822008E
:103A200004E010A8D2B250F822004042012800DB86
:103A3000641C521C94E7052B03DB052C01DB0120E1
:103A40000BE0052B03DB01202C4D287004E0052C36
:103A500002DB0220294D2870002036B0F0BC7047F0
:103A600010B526480078042803D02448007803289D
:103A700001D101203EE0FDF79AF9012839D1FEF786
:103A8000CFF904001F48C0F8544155211A48006876
:103A900000F64850FCF75CFE1A4890F8100E401DE6
:103AA0001749C97888421CDA164890F8100E401D54
:103AB00013490979884214DA124890F8100E401D13
:103AC0000F49497988420CDA0D480079C11C0A482F
:103AD00000680B4A1279282303FB02007830FCF7B8
:103AE00037FE0848074991F8101E50F82100FDF7ED
:103AF00032F9002010BD0000B06DFF1FB404FF1F9D
:103B00006404FF1FA012FF1F80B5012301220C21B6
:103B1000042001F063FA012301220B21042001F0AB
:103B20005DFA012301220A21042001F057FA012342
:103B300001220921042001F051FA01BD10B5040051
:103B4000FFF7E2FFDFF8EC07006830F40060DFF811
:103B5000E4170860142001F0C7FADFF8D8070068FE
:103B600050F40060DFF8CC170860142001F0BCFAB4
:103B7000CB2000F001F9392000F0DDF92C2000F015
:103B8000DAF9002000F0D7F9342000F0D4F902204F
:103B900000F0D1F9CF2000F0EFF8002000F0CBF9D1
:103BA000C12000F0C8F9302000F0C5F9E82000F08D
:103BB000E3F8852000F0BFF9002000F0BCF9782080
:103BC00000F0B9F9EA2000F0D7F8002000F0B3F9CE
:103BD000002000F0B0F9ED2000F0CEF8642000F0F5
:103BE000AAF9032000F0A7F9122000F0A4F981201F
:103BF00000F0A1F9F72000F0BFF8202000F09BF9B9
:103C0000C02000F0B9F8232000F095F9C12000F0A1
:103C1000B3F8102000F08FF9C52000F0ADF83E2079
:103C200000F089F9282000F086F9C72000F0A4F8F8
:103C3000862000F080F9362000F09EF8E4B2002CD7
:103C400003D0E82000F077F902E0282000F073F9B3
:103C50003A2000F091F8552000F06DF9B12000F005
:103C60008BF8002000F067F9182000F064F9B62006
:103C700000F082F8082000F05EF9822000F05BF985
:103C8000272000F058F9F22000F076F8002000F02C
:103C900052F9262000F070F8012000F04CF9E020E5
:103CA00000F06AF80F2000F046F9312000F043F9E7
:103CB0002B2000F040F90C2000F03DF90E2000F020
:103CC0003AF9082000F037F94E2000F034F9F120DD
:103CD00000F031F9372000F02EF9072000F02BF921
:103CE000102000F028F9032000F025F90E2000F044
:103CF00022F9092000F01FF9002000F01CF9E12052
:103D000000F03AF8002000F016F90E2000F013F948
:103D1000142000F010F9032000F00DF9112000F03C
:103D20000AF9072000F007F9312000F004F9C1205A
:103D300000F001F9482000F0FEF8082000F0FBF840
:103D40000F2000F0F8F80C2000F0F5F8312000F01A
:103D5000F2F8362000F0EFF80F2000F0ECF8112018
:103D600000F00AF8142001F0BFF9292000F004F84F
:103D70002C2000F001F810BDDFF8B815096831F407
:103D80008051DFF8B0251160C0B2C109C9B2DFF8B7
:103D9000A425126861F38A22DFF898150A60DFF81B
:103DA0009415096831F40071DFF888251160DFF897
:103DB0008415096851F40071DFF878251160C0B2EC
:103DC0008109C9B2DFF86C25126861F38A22DFF835
:103DD00064150A60DFF85C15096831F40071DFF8DA
:103DE00054251160DFF84C15096851F40071DFF8B3
:103DF00044251160C0B24109C9B2DFF83825126804
:103E000061F38A22DFF82C150A60DFF828150968AB
:103E100031F40071DFF81C251160DFF8181509680E
:103E200051F40071DFF80C251160C0B20109C9B26C
:103E3000DFF80025126861F38A22DFF8F8140A60BF
:103E4000DFF8F014096831F40071DFF8E82411603C
:103E5000DFF8E014096851F40071DFF8D82411602C
:103E6000C0B2C108C9B2DFF8CC24126861F38A225B
:103E7000DFF8C0140A60DFF8BC14096831F400717F
:103E8000DFF8B0241160DFF8AC14096851F4007158
:103E9000DFF8A0241160C0B28108C9B2DFF8942411
:103EA000126861F38A22DFF88C140A60DFF8841448
:103EB000096831F40071DFF87C241160DFF87414B4
:103EC000096851F40071DFF86C241160C0B2410838
:103ED000C9B2DFF86024126861F38A22DFF8541453
:103EE0000A60DFF85014096831F40071DFF84424E7
:103EF0001160DFF84014096851F40071DFF83424D0
:103F00001160C0B2DFF82C14096860F38A21DFF871
:103F100024241160DFF81C14096831F40071DFF803
:103F200014241160DFF80C14096851F40071DFF8F3
:103F3000042411607047DFF8FC13096851F48051C4
:103F4000DFF8F0231160C0B2C109C9B2DFF8E42381
:103F5000126861F38A22DFF8DC130A60DFF8D413F9
:103F6000096831F40071DFF8CC231160DFF8C41365
:103F7000096851F40071DFF8BC231160C0B28109F7
:103F8000C9B2DFF8B023126861F38A22DFF8A41304
:103F90000A60DFF8A013096831F40071DFF8942398
:103FA0001160DFF89013096851F40071DFF8842381
:103FB0001160C0B24109C9B2DFF87823126861F319
:103FC0008A22DFF870130A60DFF86813096831F499
:103FD0000071DFF860231160DFF85813096851F4AD
:103FE0000071DFF850231160C0B20109C9B2DFF8D7
:103FF0004423126861F38A22DFF838130A60DFF87D
:104000003413096831F40071DFF828231160DFF8F8
:104010002413096851F40071DFF818231160C0B24D
:10402000C108C9B2DFF80C23126861F38A22DFF8F5
:1040300004130A60DFF8FC12096831F40071DFF83C
:10404000F4221160DFF8EC12096851F40071DFF816
:10405000E4221160C0B28108C9B2DFF8D822126828
:1040600061F38A22DFF8CC120A60DFF8C81209680F
:1040700031F40071DFF8BC221160DFF8B812096872
:1040800051F40071DFF8AC221160C0B24108C9B22E
:10409000DFF8A022126861F38A22DFF898120A6022
:1040A000DFF89012096831F40071DFF8882211609E
:1040B000DFF88012096851F40071DFF8782211608E
:1040C000C0B2DFF87012096860F38A21DFF8642259
:1040D0001160DFF86012096831F40071DFF85422D2
:1040E0001160DFF85012096851F40071DFF84422C2
:1040F0001160704710B50400200AC0B2FFF71BFF23
:104100002000C0B2FFF717FF10BDF8B504000D0086
:1041100016001F002A20FFF72FFE200AC0B2FFF76B
:104120000AFF2000C0B2FFF706FF280AC0B2FFF75F
:1041300002FF2800C0B2FFF7FEFE2B20FFF71CFE97
:10414000300AC0B2FFF7F7FE3000C0B2FFF7F3FE4F
:10415000380AC0B2FFF7EFFE3800C0B2FFF7EBFE3F
:104160002C20FFF709FEF1BD2DE9F04182B00400DB
:104170000D0016001F00DDF82080CDF800803B0008
:104180003200D2B22900200000F032F8BDE8F381FD
:104190002DE9F84304000D0016001F00DDF8208013
:1041A0005FF000093078002820D0307880280EDABF
:1041B000CDF800803B00327829005FFA89F914EBD2
:1041C000C900FFF7D1FF761C19F10109EAE7CDF824
:1041D00000803B00320029005FFA89F914EBC90026
:1041E00000F03CF8B61C19F10209DBE7BDE8F183E9
:1041F0002DE9F84F04000D0016001F00DDF828809F
:1042000015F10F032A00E11D2000FFF77EFF0020BB
:104210008146B9F1100F1FD2DFF82404F6B219EB72
:10422000061111F800B000208246BAF1080F10D232
:104230005FFA8BFB5FEA0B6003D53800FFF75AFF8C
:1042400002E04046FFF756FF5FEA4B0B1AF1010A06
:10425000EBE719F10109DCE7BDE8F18F2DE9F14F3A
:104260000C0015001E000A9F14F10F032200009895
:1042700010F10F010098FFF748FF00208246BAF1C5
:10428000400F3BD2DFF8BC03232101FB0A0000787A
:10429000297888422FD1DFF8AC03232101FB0A00E3
:1042A00040786978884226D100208046B8F1200FF6
:1042B00021D2DFF89003232101FB0A0018EB000054
:1042C00090F803B000208146B9F1080F10D21FFA10
:1042D0008BFB5FEA0B6003D53000FFF70BFF02E0BA
:1042E0003800FFF707FF5FEA4B0B19F10109EBE715
:1042F00018F10108DAE71AF1010AC0E7BDE8F18F09
:1043000070B50400EF23002240F23F110020FFF7B8
:10431000FCFE00200500F02D0BD200200600B6F5B3
:10432000A07F04D22000FFF7E5FE761CF7E76D1CA6
:10433000F1E770BD00F10F402DE9F44F8AB00400A1
:104340000D009A46149E159F5FF000085FF000096B
:10435000002081460A985FFA89F919F800000028C0
:104360000CD00A985FFA89F919F8000001A95FFAE0
:1043700089F909F8010019F10109EBE7202001A9E9
:104380005FFA89F909F8010019F10109BAF1000F82
:104390000BD52D2001A95FFA89F909F8010019F15F
:1043A00001095FF0FF3000FB0AFABAF10A0F0EDADA
:1043B0001AF1300001A95FFA89F909F8010000201B
:1043C00001A95FFA89F919EB01014870E0E0BAF13F
:1043D0000A0F1FDBBAF1640F1CDA0A209AFBF0F017
:1043E000303001A95FFA89F909F801000A209AFB27
:1043F000F0F100FB11A0303001A95FFA89F919EB47
:1044000001014870002001A95FFA89F919EB010147
:104410008870BDE0BAF57A7F2BDA64209AFBF0F061
:10442000303001A95FFA89F909F801000A209AFBE6
:10443000F0F00A2190FBF1F201FB1200303001A9EB
:104440005FFA89F919EB010148700A209AFBF0F133
:1044500000FB11A0303001A95FFA89F919EB0101C5
:104460008870002001A95FFA89F919EB0101C87071
:104470008EE042F2107082453BDA4FF47A709AFB7C
:10448000F0F0303001A95FFA89F909F801006420E1
:104490009AFBF0F00A2190FBF1F201FB12003030A0
:1044A00001A95FFA89F919EB010148700A209AFB0A
:1044B000F0F00A2190FBF1F201FB1200303001A96B
:1044C0005FFA89F919EB010188700A209AFBF0F173
:1044D00000FB11A0303001A95FFA89F919EB010145
:1044E000C870002001A95FFA89F919EB0101087170
:1044F0004EE0DFF8AC0182454ADA42F210709AFBD6
:10450000F0F0303001A95FFA89F909F801004FF4A1
:104510007A709AFBF0F00A2190FBF1F201FB120095
:10452000303001A95FFA89F919EB01014870642064
:104530009AFBF0F00A2190FBF1F201FB12003030FF
:1045400001A95FFA89F919EB010188700A209AFB29
:10455000F0F00A2190FBF1F201FB1200303001A9CA
:104560005FFA89F919EB0101C8700A209AFBF0F192
:1045700000FB11A0303001A95FFA89F919EB0101A4
:104580000871002001A95FFA89F919EB010148714E
:104590005FF0000B5FFA8BFBBBF1070F0CDA0097A3
:1045A0003B00202229005FFA8BFB14EBCB00FFF7C6
:1045B000DBFD1BF1010BEDE70020814601A85FFA4E
:1045C00089F919F80000002836D001A85FFA89F9A6
:1045D00019F80000802812DA0097330001A85FFA6A
:1045E00089F919F8002029005FFA88F814EBC8004F
:1045F000FFF7BAFD19F1010918F1010811E0009760
:10460000330001A85FFA89F919F8002029005FFA40
:1046100088F814EBC800FFF721FE19F1020918F120
:10462000020800973B00202229005FFA88F814EB6B
:10463000C800FFF799FDC1E70BB0BDE8F08F00009F
:10464000C404FF1FC40CFF1FF8B50400EF230022B1
:1046500040F23F110020FFF758FD00200500F02D2B
:104660001DDA00200600282E17DA00200700082F88
:1046700011DA282000FB0540305C802139410842D6
:1046800003D00020FFF736FD03E04FF6FF70FFF781
:1046900031FD7F1CEBE7761CE5E76D1CDFE7F1BD24
:1046A000A08601002DE9FF4F83B05FF000095FF0A5
:1046B000000ABDF81400BDF80C10401A8346BDF87E
:1046C0001800BDF81010401A0500BDF80C000700D6
:1046D000BDF810008046BBF1010F02DB0120019004
:1046E0000AE0BBF1000F02D10020019004E05FF06E
:1046F000FF300190DBF1000B012D02DB0120009067
:1047000008E0002D02D10020009003E05FF0FF30B0
:1047100000906D425D4501DA5E4600E02E0000200B
:104720000400701CA4B2A04218DB414689B23800D4
:1047300080B200F016F81BEB090915EB0A0A4E458A
:1047400003DAB9EB06090198C719564504DABAEB42
:10475000060A009810EB0808641CE2E707B0BDE801
:10476000F08F38B504000D00ADB22B00ADB22A00B9
:10477000A4B22100A4B22000FFF7C7FC4FF4784098
:10478000FFF7B8FC31BDF8B504000D001600ADB25E
:104790006B1CADB26A1EA4B2611CA4B2601EFFF70E
:1047A000B4FC00200700FFB2092F05DAB6B23000D2
:1047B000FFF7A0FC7F1CF6E7F1BD50F8041B61B1C8
:1047C00050F8042BD30744BFA9F101039A18002322
:1047D000091F42F8043BFAD1EFE77047010040F1AE
:1047E0000780F446404200F003F851F00041604772
:1047F00009D0B0FA80F18840C91CC1F5846109056F
:1048000001EBD02140057047F0B540F2FF7581EA19
:10481000030C0CF0004C15EA11541DBF15EA135798
:10482000AC42AF42E5E0BC41C1F31301C3F3130353
:10483000801A994143F4801304D2641E4000494118
:1048400080185941C90241EA5051B1FBF3F603FB0C
:104850001611A2FB0675D7EBC020A94102D2761E25
:1048600080185941C90241EA5051B1FBF3FE03FBE4
:104870001E11A2FB0E75D7EBC020A94103D2AEF1E9
:10488000010E80185941890241EA9051760546EAA5
:104890008E2EB1FBF3F603FB1611A2FB0675D7EBC8
:1048A0008020A94102D2761E80185941C90241EAEE
:1048B00050514EEA060EB1FBF3F603FB1611A2FBB4
:1048C0000675D7EBC020A94102D2761E8018594147
:1048D000C90241EA5051B1FBF3F703FB1711A2FBE8
:1048E0000735D3EBC020A94167F100070CBF004298
:1048F00047F0010766F3D5274FEA1E31B80814F5D3
:10490000806412DDBD0775F1004250EB0E5051EB93
:10491000045111F5801F5CBF41EA0C01F0BD4CF061
:104920007F6141F0E0410020F0BDBD076D0840EA25
:104930000E5041F48011D4F10104B4F120060ADADA
:10494000C4F120060200E04001FA06F3E1401843FA
:10495000B24015430EE0342C13DCC6F1200445EAC6
:1049600040056D0820FA06F2154321FA06F0A14031
:104970000D43002175F1004250F1000051EB0C0194
:10498000F0BD00205FEA0C01F0BDCFB992185B4189
:10499000B3FA83F704BFB2FA82F6BF190B3FB7F13F
:1049A00020062FBF02FA06F3BB40C7F1200622FA09
:1049B00006F638BF3343BA401CB1E419641E33E72E
:1049C0007F4231F00041B1FA81F404BFB0FA80F6C1
:1049D000A4190B3CB4F120062FBF00FA06F1A14048
:1049E000C4F1200620FA06F638BF3143A0403C1B34
:1049F0001AE7AC421ABF05EA1357AF4212E050EA79
:104A000041061CBF52EA4306BFE750EA4107304661
:104A100061461CBF41EA0551F0BD52EA430C08BF94
:104A2000C143F0BD00204FF4001616EB410F98BFB4
:104A300016EB430F08BF16EB410F24BFC14305E03F
:104A400016EB430F0CBF61464CEA0551F0BD000068
:104A5000F446400D40EAC120490006D200F00EF8AD
:104A6000004248BF6FF00040604700F007F84FF089
:104A7000004188428CBF08464042604740F00040F9
:104A8000490DA1F58061491C05D4D1F11F0154BF26
:104A9000C840C01770474FF000007047B0B581EABA
:104AA000030C0CF0004C40F2FF7515EA11541DBFC9
:104AB00015EA1357AC42AF4239E0E41923EA4553F3
:104AC00043F48013C90241F0004141EA505EC7023D
:104AD0001100A7FB020200284FF00000EEFB0120AE
:104AE0004FF00001E3FB072118BF42F0010240181C
:104AF00000214941E3FB0E01A4F580640F0302D2BB
:104B000052004041494154F101046CDD470872F103
:104B1000004250F1000051EB0451A1F580115CBF3F
:104B200041EA0C01B0BD4CEA05510020B0BD05EAD8
:104B30001357AC4214BFAF4241E050EA410E1CBFD4
:104B400052EA430E02E061460020B0BD24423C44DC
:104B50001BD15FEA070EF6D0090302BF0146002011
:104B6000AEF1140EB1FA81F7AEEB070401FA07FEBD
:104B70000C37C7F1200100FA07F7C8404EEA000ED3
:104B800023EA455343F48013A2E733F00043B3FA1A
:104B900083F704BFB2FA82FE77440B3FE41BB7F100
:104BA000200E2FBF02FA0EF3BB40C7F1200E22FAEF
:104BB0000EFE38BF43EA0E03BA40641C82E750EA97
:104BC000410E14BF52EA430E6FF000014FF400177C
:104BD00017EB430F8ABF194617EB410FB5E74CEAB5
:104BE00005510020B0BDD4F10104B4F120070FDA63
:104BF000C4F12007520828BF42F0010210FA07F55D
:104C000001FA07F7E1BF2A43E0403843E1400FE0F3
:104C1000352C98DCC7F1200452EA400220FA07F252
:104C200018BF42F0010231FA07F0A1400A43002107
:104C300072F1004250F1000051EB0C01B0BD0000D8
:104C400070B44FF0004591EA030C44BF6B4000F094
:104C50000FB900BF841A71EB030603D2001BB141E8
:104C6000121973414FF4001C1CEB410F34BF7CEB55
:104C7000430443E00C0DA4EB1356352E50DC45EAFB
:104C8000C323DB0A45EAC121C912B6F120050DDDB7
:104C900063FA05F6EB4086EA0305124218BF45F0B9
:104CA0000105C01851F100010CD213E062FA06F5BB
:104CB000F2405540F3415A40B340F3405A40801807
:104CC000594107D349085FEA30005FEA350528BF3C
:104CD00045F0010501F58011420875F1004250F1DF
:104CE000000041EB045170BC4FF4001C1CEB410F61
:104CF00038BF70470020090D090570471CEB410FB4
:104D000010D252EA43060BD0BCEB410F05D80C0D74
:104D1000AB43661E342EB5DD02E0AB43801859412B
:104D200070BC704770BC7047002840F10980F446A1
:104D3000404200F005F850F000406047002800BFF6
:104D40000AD0B0FA80F18840D1F19D01C905020670
:104D500072F1004241EB10207047000070B5040072
:104D60000D006868A8606C60E86828612968686858
:104D700000F0CCF906005FF07E50296800F032FAAE
:104D8000296900F0C3F9310000F0A0FAE860E86892
:104D900070BD00004100090E7F3915D4D1F11F010B
:104DA00014D4400007D2C00140F00040C84048BFC2
:104DB0006FF000407047C00140F00040C8404CBF59
:104DC0004FF00040404270470020704700424FF0D3
:104DD000004058BFC043704730B40200FF24002099
:104DE00000252B009BB289B28B420BD29BB29D5CFB
:104DF000E4B2A54204D29BB29D5C2C001D002800A9
:104E00005B1CEFE7C0B230BC704710B40200012059
:104E100000242300DBB2C9B28B4202D250435B1C98
:104E2000F8E710BC704730B40200002000252B00CA
:104E3000DBB2C9B28B420ED200252C00E4B2082CA2
:104E400007DADBB29D5C254115F001052818641CCA
:104E5000F4E75B1CECE730BC7047000070B44FF027
:104E6000004591EA030F44BF6B40FFF7F3BE00BF5C
:104E7000841A71EB030604D26E40001BB141121973
:104E800073414FF4001C1CEB410F34BF7CEB430615
:104E900084E00C0DA4EB1356362E7DDC012E43DC92
:104EA00045EAC32343EA525312BFD20292025B087F
:104EB000240545EAC12141EA5051D2EBC020994175
:104EC00025D407D1B0FA80F610FA06F164D000209C
:104ED000203608E0B1FA81F6B140C6F1200220FA8E
:104EE00002F21143B0404FEAF474B4EB465434F08C
:104EF00001064FEA74040AD8D6F50016760D04F0C0
:104F00000044F04061FA06F25040F1404840C00AC7
:104F100040EA415021F0004128BF5FEA500550F1BE
:104F2000000044EBD12137E045EAC323DB0A45EA20
:104F3000C121C90AB6F120050EDD42EA0242120C77
:104F4000C5F1200603FA06F6EB4042EA06056D427B
:104F5000984161F100010DE062FA06F5F24055401A
:104F600063FA06FC82EA0C02F3405A406D4290411B
:104F700061EB030111F4801F05D1641E620502D0AC
:104F80006D004041494121F48011430875F100430F
:104F900050F1000041EB045170BC70471CEB410F15
:104FA00015D223F0004352EA43060BD04FEA4C0CD3
:104FB000BCEB410F04D80C0D661E342EB7DDEBE7B9
:104FC000801A994150EA410608BF0021E4E708BF72
:104FD0001CEB430F28BF6FF00001DDE7F8B50400BC
:104FE0000D0016001F00EDB2202D02D2FFB2022FDD
:104FF00003D32421384800F0ABF93848E4B250F824
:105000002400EDB2F6B256F4807140F82510F00796
:1050100005D5F6B2032E02D0F6B2132E0DD13048CC
:10502000E4B250F8240040690121A94088432C498A
:10503000E4B251F8241048612AE02948E4B250F85B
:10504000240040690121A94008432549E4B251F8F0
:1050500024104861FFB2012F0DD12148E4B250F86D
:10506000240000680121A94008431D49E4B251F819
:10507000241008600CE01A48E4B250F824000068DC
:105080000121A94088431649E4B251F82410086070
:10509000F1BD30B4C0B2420910F01F03114C2468B6
:1050A0004FF4007595402C430E4D2C6031F4E061B7
:1050B0000A4CD2B254F82240DBB254F8234014F424
:1050C000E0642143054CD2B254F82240DBB244F8EC
:1050D000231030BC7047000094A100003C04FF1F67
:1050E0002804FF1F3880044000231900814209D2A0
:1050F000054B1B681A00002A02D000BF521EFAE7B7
:10510000491CF3E770470000BC6DFF1FFF2212EA45
:10511000D05C1DBF12EAD153944593422BE09C44CE
:10512000D30780EA01021A4043EA002043EA012142
:10513000A1FB0030410038BF40007CF17F010BDB58
:10514000FE294ADA5B0842EAC15153EA006373F16F
:10515000004C51EB10207047D1F1080CDCF120011C
:105160002FDB5B0810FA01F10B4373F1004120FAC9
:105170000CF05041704794451CBF02EAD153934252
:1051800080EA010202F000421DD0400019D049001F
:1051900017D05BB9634514D00902B1FA81F3994085
:1051A000BCEB030CC00140F00040C1E70002B0FAC4
:1051B00080FC10FA0CF0B3EB0C0CC90141F000417B
:1051C000B6E71000704740000AD0490008D010F13F
:1051D000807F94BF11F1807F02E042F0FF40704772
:1051E000D043704790EA010F44BF81F0004100F0C6
:1051F00075B800BF431A4FF000423EBF5340C01A7B
:10520000C91800BFD3095FEAD05C13EB400F34BF6D
:10521000B3EB410F40E07CEBD1530CD342EA0121C8
:1052200022D8D1EB402009D3400A28BF5FEA5001C1
:1052300040EBCC507047401A15D04002B0FA80F2D3
:10524000521C9040400A4FEA3C23B3EB026384BFF8
:1052500000EB730007E040F400001A16DB07C2F110
:105260000102D04018437047182BFCDC31FA03F2DE
:1052700002FA03F3591A38BF42F00102D2EB402080
:105280003CBF4000ACF1010C5FEACC5CC20572F19E
:1052900000414CEB5020704713EB400F0FD24B00F6
:1052A00009D0ACEBD153022B03DB4902172BDDDD18
:1052B00070479143401A4300D5D10020704713EB4B
:1052C000410FD0D36FF000007047000090EA010F4B
:1052D00044BF81F00041FFF78DBF00BF421A3CBFC1
:1052E000801A89184FF0004CC0F3C752FF2A24D00F
:1052F000C1F3C75313B3D21AD2F1190327DD4CEA15
:1053000001214CFA03F321EA0303D140C20D4CEA18
:105310000020401834BF20EA0C004CEA5000D205AF
:1053200053EA006373EB0C0C52EB1020420012F1B5
:10533000807F38BF7047C00DC0057047490212BF5B
:105340009A4200EB5120F8E7D2F11703D9D5704704
:1053500038B504000D002A002100024800F0A1FA2F
:10536000F9E700BFBC9F000070B504000D001600F7
:105370003068012802D0022805D00AE02000C0B21F
:105380007168884705E0B0680470B068401CB06080
:10539000FFE72868401C286070BD2DE9F047040035
:1053A0005FF0000A5046A1465FF0000A89F800A0AD
:1053B00019F10109002A1FD0D1F800A05546002D8F
:1053C00005D15FF0300A89F800A0401C38E0002DBC
:1053D00036D095FBF3FA564603FB165A5746002F74
:1053E00002D5FF43313700E03037350089F80070CF
:1053F00019F10109401CEAE7D1F800A0D446BCF13C
:10540000000F05D15FF0300A89F800A0401C17E0BA
:10541000BCF1000F14D0BCFBF3FAD64603FB1ECA46
:10542000D046B8F10A0F02D218F1300801E018F1A5
:105430003708F44689F8008019F10109401CE7E7B4
:10544000BDE8F0872DE9F04104000D0016001F00B3
:10545000A046A84507DA3A0031003020FFF784FF64
:1054600018F10108F5E7BDE8F0812DE9F0410400ED
:105470000D0016001F00A046A84507DA3A003100CB
:105480002020FFF771FF18F10108F5E7BDE8F08172
:105490002DE9F24F92B00400150000200090129800
:1054A00083469BF8000001900198002800F0F581E8
:1054B0000198252813D001980A2805D0220000A9B8
:1054C0000198FFF751FF09E0220000A90D20FFF726
:1054D0004BFF220000A90A20FFF746FFDAE1002077
:1054E0008146002004900498002822D11BF1010B72
:1054F0009BF8000020280ED0232812D02B2807D09C
:105500002D2802D0302809D00EE059F00109EAE731
:1055100059F00209E7E759F00409E4E759F00809EE
:10552000E1E759F01009DEE7BBF1010B012004901F
:10553000D9E700208246002004900498002814D166
:105540001BF1010B9BF800000190019830380928ED
:1055500006D80A20019900FB0A10B0F1300AECE7E6
:10556000BBF1010B01200490E7E71BF1010B9BF855
:1055700000002E2811D100200490049800280ED19C
:105580001BF1010B9BF800003038092800D8F4E724
:10559000BBF1010B01200490EFE7BBF1010B1BF104
:1055A000010B9BF800004C2806D0682802D06C281C
:1055B00001D002E003E002E001E0BBF1010B1BF1CE
:1055C000010B9BF8000001900198582875D06228C3
:1055D00000F0D580632800F01D81642813D069286D
:1055E00011D06E2800F04A816F2800F0BD8070282D
:1055F00000F0D080732800F01781752800F0D58066
:1056000078285AD041E128682D1D06900A230122EE
:1056100006A909A8FFF7C1FE070009A83818060067
:105620000698002803D52D2003907F1C0FE05FEA29
:10563000897003D52B2003907F1C08E05FEA497036
:1056400003D5202003907F1C01E000200390002060
:1056500005905FEA097011D50398002804D0220054
:1056600000A90398FFF780FE01200590230000AAFF
:1056700051463800FFF7E6FE574612E05FEAC97070
:105680000FD4230000AA51463800FFF7EEFE03981E
:10569000002804D0220000A90398FFF765FE01202E
:1056A00005900598002807D10398002804D022000F
:1056B00000A90398FFF758FE98E028682D1D029076
:1056C0001023002202A909A8FFF767FE070009A816
:1056D00038180600002005905FEA097016D55FEAC9
:1056E000C9600BD5220000A93020FFF73DFE220043
:1056F00000A97820FFF738FE01200590230000AABA
:1057000051463800FFF79EFE57461BE05FEAC9701E
:1057100018D45FEAC96000D5BF1C230000AA514617
:105720003800FFF7A2FE5FEAC9600BD5220000A98E
:105730003020FFF719FE220000A97820FFF714FEA1
:10574000012005905FEAC9600DD5059800280AD1AF
:10575000220000A93020FFF707FE220000A97820D0
:10576000FFF702FEBF1C41E028682D1D02900823B0
:10577000002202A909A8FFF710FE07001FE0286811
:105780002D1D02900223002202A909A8FFF705FEA1
:10579000070014E028682D1D02901023002202A9A2
:1057A00009A8FFF7FAFD070009E028682D1D0290FF
:1057B0000A23002202A909A8FFF7EFFD070009A8A4
:1057C000381806005FEA097007D5230000AA514681
:1057D0003800FFF737FE574608E05FEAC97005D486
:1057E000230000AA51463800FFF73FFE307800281A
:1057F00006D0220000A93078FFF7B6FD761EF5E747
:105800005FEAC97005D5230000AA51463800FFF7AA
:105810002CFE3FE028682D1DC0B20790220000A991
:105820000798FFF7A1FD35E028682D1D8046B8F1E7
:10583000000F22D0404600F049F807005FEAC97027
:1058400005D4230000AA51463800FFF70EFE98F851
:105850000000002808D0220000A998F80000FFF7F7
:1058600083FD18F10108F2E75FEAC97005D523004E
:1058700000AA51463800FFF7F8FD0BE028682D1DFF
:10588000089000980899086004E0220000A9019897
:10589000FFF76AFD1BF1010B03E6009813B0BDE8AA
:1058A000F08F0EB47EB504000120009006480190F0
:1058B00007A805002A00210000A8FFF7E9FD06005F
:1058C00030007EBC5DF810FBA1A6000001000A00BC
:1058D0000023002A01D1002007E01000421C0078BC
:1058E000002801D05B1CF8E71800704700B00340A7
:1058F00000B00B4000001400008003400090034003
:1059000000800B4000F00F4040F00F4080F00F404F
:10591000C0F00F4000F10F400090044000A0044090
:1059200000B0044000C0044000D00440CDCC4C3F47
:105930000000000000000000000000000000000067
:105940004E9EEE000000000000000000000000007D
:105950000000000000000000000000000000000047
:105960000000000000000000000000000000000037
:10597000000056960000000000000000000000003B
:105980007F0000002003000000000000A4060000CB
:105990000000000000000000B40000000100000052
:1059A00000000000000000000000000000000000F7
:1059B00000000000000000000000000000000000E7
:1059C00000000000000000000000000000000000D7
:1059D00000000000000000000000000000000000C7
:105BB0000000001010101010100010100000000065
:105BC0000000002424240000000000000000000069
:105BD00000000024247E2424247E242400000000CD
:105BE000000000107C90907C12127C1000000000DD
:105BF0000000000062640810204C8C0000000000CF
:105C000000000000182420508A844A300000000060
:105C10000000001010200000000000000000000044
:105C20000000081020202020202020100800000064
:105C300000002010080808080808081020000000CC
:105C4000000000000010543838541000000000001C
:105C5000000000000010107C101000000000000088
:105C600000000000000000000000101020000000F4
:105C7000000000000000007C0000000000000000A8
:105C80000000000000000000000000100000000004
:105C90000000000000020408102040000000000086
:105CA0000000003844444C54644444380000000070
:105CB000000000103010101010101038000000000C
:105CC00000000038440404081020407C000000005C
:105CD0000000007C04081038040404780000000070
:105CE00000000008182848487C0808080000000048
:105CF0000000007C4040407804040478000000006C
:105D00000000003C4040407844444438000000001B
:105D10000000007C04040810202020200000000067
:105D20000000003844444438444444380000000033
:105D3000000000384444443C0404043800000000DF
:105D40000000000000000010000010000000000033
:105D500000000000000000001000101020000000F3
:105D600000000000000408102010080400000000DB
:105D7000000000000000007C007C0000000000002B
:105D8000000000000020100804081020000000009F
:105D900000003844440408101000101000000000F7
:105DA000000000000038445C545C403C00000000EF
:105DB000000018244242427E42424242000000005B
:105DC00000007C4242427C424242427C0000000091
:105DD00000003C42404040404040423C0000000047
:105DE00000007C42424242424242427C00000000AB
:105DF00000007E40404078404040407E000000006F
:105E000000007E404040784040404040000000009C
:105E100000003C4240405E424242423C00000000E2
:105E20000000424242427E424242424200000000A2
:105E30000000381010101010101010380000000072
:105E400000001C0808080808080848300000000086
:105E50000000424448506060504844420000000046
:105E600000004040404040404040407E0000000074
:105E700000008282C6C6AAAA929282820000000016
:105E8000000042626252524A4A4646420000000006
:105E900000003C42424242424242423C000000007A
:105EA00000007C424242427C4040404000000000F2
:105EB00000003C424242424242424A3C0E00000044
